:100000000C945F010C94A6010C94A6010C94A6011B
:100010000C94A6010C94A6010C94A6010C94A601C4
:100020000C94A6010C94A6010C94BE1C0C94AB1D60
:100030000C94C42C0C94A6010C94A6010C94A6015B
:100040000C94A6010C94A6010C94A6010C94A60194
:100050000C94A6010C947C2C0C94A6010C94A60183
:100060000C94A6010C94B0120C94A6010C94A60159
:100070000C94A6010C94A6010C94A6010C94A60164
:100080000C94A6010C94A6010C94A6010C94A60154
:100090000C94E7050C94A6010C94A6010C94A601FF
:1000A0000C94A6010C94A6010C94A6016B0280028C
:1000B000A702A702A702A702A702A70287028F0230
:1000C0009202950298029B029E02EB02ED02EF0261
:1000D000F102F302F902FE020203040309030D0315
:1000E0001103FA08040904090D090D092C092C094A
:1000F00040094009ED11EF11F111F311F311F6115F
:10010000F611F911FB11FD11FD110012001203127D
:100110000312031203120612061206120612091225
:100120000912131E361EF11E361EF11E7B1E9E1E68
:10013000F11EC01ED31EAB22AB22DA22DA223823F4
:100140009C23BE25BE25BE23BE25BF24BF249225E9
:10015000BE25BE25A925014E024E00014D024D00CF
:10016000014B024B00014A024A0029141A081517D4
:100170001C180C12132A2B041607090A0B0D0E0F5C
:100180003328791D1B06190511103637387D787B09
:100190007A657C2C2C7E5051524F20001021011189
:1001A00022021223031324041425051528081829F4
:1001B00009192A0A1A2B0B1B2C0C1C2D0D1DB09093
:1001C000A0B191A1B292A2B393A3B494A4B595A502
:1001D000B898A8B999A9BA9AAABB9BABBC9CACBD6C
:1001E0009DAD50304051314152324253334354342B
:1001F000445535455838485939495A3A4A5B3B4B7A
:100200005C3C4C5D3D4D80607081617182627283A7
:1002100063738464748565758969798A6A7A8B6B7E
:100220007B8C6C7C8D6D7D00000000010101020261
:10023000030405050607090A0B0C0E0F111214150D
:1002400017191B1D1F212325282A2C2F313436393D
:100250003B3E414346494C4F5255585A5D61646795
:100260006A6D707376797C7F8386898C8F9295987E
:100270009B9EA2A5A7AAADB0B3B6B9BCBEC1C4C669
:10028000C9CBCED0D3D5D7DADCDEE0E2E4E6E8EACB
:10029000EBEDEEF0F1F3F4F5F6F8F9FAFAFBFCFD0C
:1002A000FDFEFEFEFFFFFF016202620162026200CC
:1002B000012802280001E30115021502E3001124C0
:1002C0001FBECFEFDAE0DEBFCDBF04B603FE27C00E
:1002D0008091230A9091240AA091250AB091260AC0
:1002E0008730904BA740B04BD1F41092230A109264
:1002F000240A1092250A1092260A14BE84B7877F1A
:1003000084BF0FB6F894A8958091600088618093AF
:100310006000109260000FBEE0E0FEE3099515E07A
:10032000A0E0B1E0E0E8FDE602C005900D92AC353A
:10033000B107D9F72AE0ACE5B5E001C01D92A332C0
:10034000B207E1F70E94CB170C94BE360C94000064
:10035000CF93C82FCB010E94262D282F30E080E1BB
:10036000989FA0011124422B532B4038510519F4BA
:1003700080E090E021C09770E92FF0E088E0C89F0E
:10038000E00DF11D112484E0EE0FFF1F8A95E1F7C7
:10039000E20FF31FEE0FFF1FE050FC482591349150
:1003A000C9018B7F833E910531F4809161058823DB
:1003B00011F020E030E0C901CF910895EF92FF9253
:1003C0000F931F93CF937C01062FC42F613029F028
:1003D000A8F0643009F45CC06EC0FC0182818823FF
:1003E00009F453C00E949F2B81FF06C00E949F2BDF
:1003F00080FD02C085E342C089E240C0423009F17D
:1004000048F4442389F0413061F584E380935E052C
:1004100088E225C04430F9F0C8F0453011F581E399
:1004200080935E058AE21BC00E949F2B82FF02C060
:100430008DE301C089E280935F0585E380935E05CB
:1004400010C088E380935E0587E309C088E380934A
:100450005E0582E504C083E380935E058FE08093B0
:100460005F05F7018281882381F00E949F2B85FF21
:1004700003C080915E0502C080915F058093600596
:10048000809160050E94502114C0809160050FC0CA
:10049000FC018281882351F00E949F2B81FD0BC0BB
:1004A0000E949F2B85FD07C08CE2ECCF8CE20E945E
:1004B000C2210E94DC2BF7018281882309F447C006
:1004C00010E0F8013297EF30F10508F040C0EA5A29
:1004D000FF4F0C94C2320E949F2B80FF04C085E026
:1004E00090E00E9496178FEF0E94EE218FEF0E94FE
:1004F000F521CF911F910F91FF90EF900C940E2258
:100500009091610581E089278093610520C08C2F3F
:10051000CF911F910F91FF90EF900C94C70888E145
:1005200090E00EC083E190E00BC082E190E008C053
:100530008CE090E005C085E190E002C080EC90E0A6
:10054000CF911F910F91FF90EF900C949617CF9140
:100550001F910F91FF90EF900895662319F061307D
:10056000C1F027C0FC018281882339F00E940E2C43
:1005700090935D0580935C051CC080915C05909113
:100580005D050E94262C893C9105B4F480E691E03B
:100590000895FC0182818111E9CF80915C059091E1
:1005A0005D050E94262C893C91054CF486E591E07E
:1005B000089580E090E0089585E691E008958BE548
:1005C00091E0089590E08C30910590F5FC01EB5995
:1005D000FF4F0C94C23283B11DC083B116C083B1EA
:1005E00021C086B11FC086B18095881F8827881FCB
:1005F00008958CB182FB882780F917C08FB1809550
:10060000817008958FB10EC08FB185FB882780F966
:100610000CC08FB18295817008C08FB186958170B2
:1006200004C08CB186FB882780F991E08927089562
:1006300080E00895E82FF0E0EE0FFF1FE756FA4F35
:1006400080819181089508958798579884B1837F18
:1006500084B908950F931F93CF93DF9385B7806874
:1006600085BF85B7806885BF0E9476055C9A549ADD
:1006700080E590E00E941B050E9472080E94052CF4
:100680008FEC97E00197F1F700C000000E940E2C5C
:1006900090936505809364050E94240380B38C7851
:1006A00080BB81B3836781BB8EB184648EB98DB109
:1006B0008B7B8DB987B18F7387B988B1806C88B90E
:1006C00084B18F7884B985B1806785B909E915E06F
:1006D000C6E6D5E0F801119211928F0110929805AB
:1006E0000E940E2C909397058093960580E090E0F1
:1006F000FE01E80FF91F108201968C309105C1F7B9
:100700002C96F5E0C639DF0729F7DF91CF911F91CD
:100710000F910895DF92EF92FF920F931F93CF9363
:10072000DF938091980581110AC080919605909180
:1007300097050E94262C9093630580936205809113
:10074000620590916305892B09F481C08091980519
:10075000811106C00E940E2C9093970580939605F8
:1007600080919805813041F028F0823071F083301B
:1007700071F003C0879A01C0579A00E010E02CE0A6
:10078000D22EEE24E394F12C04C0229AF6CF239AC1
:10079000F4CFC0919805D0E0802F0E94E202209112
:1007A0006205DC9EF001DD9EF00D1124E00FF11FCB
:1007B000EA59FA4F9081990F982B2150E1F7DC9E6E
:1007C000F001DD9EF00D1124E00FF11FEA59FA4F00
:1007D00090839701002E02C0220F331F0A94E2F784
:1007E000892F8F71833061F028F48823B9F081302C
:1007F00031F506C08F3021F08F3111F08730F9F4D8
:10080000CC0FDD1FC756DA4F88819981A901482393
:100810005923452BA1F4282B392B0FC0CC0FDD1FFA
:10082000C756DA4F88819981A90148235923452B5E
:1008300031F02095309528233923398328830F5FA1
:100840001F4F0C30110509F0A4CF0E9424038091A2
:1008500098058F5F843018F48093980502C0109239
:10086000980581E0DF91CF911F910F91FF90EF905C
:10087000DF900895809112018A3021F40E942403B0
:10088000579A0895879A579A84B18C6084B90895CD
:10089000CF93809112018A30B9F483E00E94E20282
:1008A000811110C084E00E94E202882359F086E0A2
:1008B0000E94E202811106C087E00E94E20291E0FC
:1008C00081110DC090E00BC0C0E08C2F0E94E202AD
:1008D000811104C0CF5FCC30C1F7F4CF91E0892FF4
:1008E000CF9108950895089580914F0980FF08C021
:1008F0008E73883029F42F9A5C9881E08093750676
:1009000008952BB1342F309523233BB1432B3FB7B0
:10091000F894FC01680F791FE617F707E1F0819161
:1009200098E04BB987FF2BB9880F000000C02BB9A6
:10093000000000C000C000C000C000C000C000C077
:1009400000C000C000C000C000C000C000C000C0A7
:100950009A9539F7E1CF3FBF08952AB1242B2AB9E0
:100960009B01220F331F620F731F0E94810485E8D1
:100970008A95F1F70000089540E40C94AD04880FC7
:100980008093390960933A0940933B0988EF80933B
:100990001D0980911D098F3F39F040E063E089E334
:1009A00099E00E948C05F5CF0895CF93DF93C82F6F
:1009B000D62F45EC6EEF0E94BF044D2F6DEF8C2FAC
:1009C000DF91CF910C94BF040F931F93CF93DF93CC
:1009D000C82F8B0161E070E090E00E94D504CC0F3D
:1009E000C0933909E80110E008EF10933A0980E05C
:1009F00090E0FE01E80FF91F2081FC01E75CF64F53
:100A00002283019680319105A1F700931D09809101
:100A10001D098F3F39F040E062E189E399E00E94CF
:100A20008C05F5CF105F6096103CF9F6DF91CF9101
:100A30001F910F910895CF93DF93C82F63E00E9419
:100A4000D50440E060E08C2F0E94BF0441E060E0EC
:100A50008C2F0E94BF0440EC61E08C2F0E94BF04E9
:100A60008FE19EE40197F1F700C0000060E08C2F59
:100A70000E94D504D0E04FE36D2F8C2F0E94BF045D
:100A8000DF5FD931C1F7DF91CF910895803308F549
:100A900090E0FC01EE0FFF1F8E0F9F1FFC01E6563A
:100AA000FE4FE491F0E0EF55FA4F6083FC01E5560C
:100AB000FE4FE491F0E0EF55FA4F4083FC01E4561D
:100AC000FE4FE491F0E0EF55FA4F208381E08093F0
:100AD0006106089580916106882339F010926106BD
:100AE00061EA75E080E50C94E4040895ECE1F9E036
:100AF00010828FEF818312821092B90082E080937E
:100B0000B80085E08093BC00089590911C099D7FFA
:100B100081E009F080E008951F93CF93DF9300D028
:100B20001F92CDB7DEB7182F653110F081E048C0B5
:100B30004A8369839B830E9485054A8169819B81E1
:100B4000811105C082E08A95F1F700C0F1CF409392
:100B50001E09E12FF92FA1E2B9E070E0CD01815229
:100B60009940861797071CF481918D93F7CF709366
:100B70004E0960934D091092200910921F0980912F
:100B80001C098230B1F481E080931C0980911F0917
:100B9000909120099C012F5F3F4F309320092093B3
:100BA0001F09FC01EF5DF64F80818093BB0085E853
:100BB00004C081E080931C0985EA8093BC0080E03A
:100BC0000F900F900F90DF91CF911F9108951F927A
:100BD0000F920FB60F9211242F933F934F938F9341
:100BE0009F93EF93FF938091B900887F883239F10A
:100BF00080F4803109F49FC030F4882309F49FC049
:100C00008830E9F0A3C08831B9F0803209F480C09F
:100C10009DC0803491F138F4803309F479C0883371
:100C200009F476C093C08035A9F1883509F455C020
:100C3000883409F08BC06CC083E080931C0920913C
:100C40001F093091200980914D0990914E09281774
:100C500039070CF053C080911F09909120099C0125
:100C60002F5F3F4F3093200920931F09FC01EF5D58
:100C7000F64F80818093BB002BC084E080931C09D9
:100C8000809135099091360901972091370930916B
:100C9000380916C080913709909138099C012F5F5F
:100CA0003F4F30933809209337094091BB00FC0136
:100CB000E85FF64F4083809135099091360901979E
:100CC000281739072CF488EF80931D0985EC3CC068
:100CD00088EF80931D0985E837C08091370990918E
:100CE00038099C012F5F3F4F309338092093370913
:100CF0002091BB00FC01E85FF64F208380911E0924
:100D0000882311F08FEF0BC010921C098FEF10C0D9
:100D100080911E09882339F08091B900887F8093E3
:100D20001D0985EA11C010921C098091B900887FC5
:100D300080931D0908C082E080931C0907C01092AF
:100D40001D0910921C0985E98093BC00FF91EF9169
:100D50009F918F914F913F912F910F900FBE0F90C8
:100D60001F901895CF93DF9300D000D01F92CDB77E
:100D7000DEB7FA0193E0899F90011124232F330FEE
:100D8000330B1C821982982F990F890F8150869FEF
:100D9000C00111249D839A83691B6B83DE01A20F1E
:100DA000B31F13968C918183DE01A20FB31F12969D
:100DB0008C918083DE01A20FB31F11968C918283E8
:100DC0000F900F900F900F900F90DF91CF9108959B
:100DD0000F931F93CF93C82FE62F862F90E08C0F91
:100DE000911D840F911D83329240D4F0A5E0CA9FDB
:100DF000C001112407E010E0B8010E94AE32C62FF6
:100E0000B5E0EB9FC0011124B8010E94AE32E62F7D
:100E1000F5E04F9FC0011124B8010E94AE32462F69
:100E2000D9011196CC931197EC9312964C93CF91D4
:100E30001F910F9108950F931F93CF93DF9300D0CD
:100E400000D01F92CDB7DEB770E0869FF001879F7C
:100E5000F00D1124EF2FFF27042F10E0E09FD001A9
:100E6000E19FB00DF09FB00D1124E0E0F1E0E61B32
:100E7000F70BE09FB001E19F700DF09F700D112402
:100E80007C837983872F8B0F8D838A834B1B4B83C6
:100E9000892F90E063E070E00E949A32DE01A80F93
:100EA000B91FFD0111964C91628183810F900F90C3
:100EB0000F900F900F90DF91CF911F910F910C9495
:100EC000E8068AE090E00C94E435AB01BC018AE0CE
:100ED00090E00C940236EFE4F9E089E1808380EA47
:100EE000809350098FEF8283838360914F097091C3
:100EF000500980915109909152090C9465078DE831
:100F0000E9E6F9E0DF011D928A95E9F782E1E7E57C
:100F1000F9E0DF011D928A95E9F708951F93CF93B9
:100F2000DF9380914F0980FF0E947F07CBE6D9E0D5
:100F300010E0DE011297FE01319728814C9160810B
:100F4000812F0E9446051F5F23961F3291F766E0AE
:100F500070E087E599E0DF91CF911F910C94BC047C
:100F600020914F0920FF1DC026EF39E00E941B078A
:100F7000A9E6B9E0E7E5F9E080E02091F6093091D3
:100F8000F7094091F809863018F4208331834283B1
:100F90002D933D934D938F5F33968F3271F70C9461
:100FA0008E0708950F931F93CF93DF9320914F09DE
:100FB00020FF2FC0142F062FC92FD82F2E732230B9
:100FC00011F40E94B0079D2F9295990F990F907C74
:100FD00080914F098F73892B80934F09C295CC0F55
:100FE000CC0FC07CD695D695CD2BC09350090093DD
:100FF00051091093520960914F09709150098091E5
:10100000510990915209DF91CF911F910F910C944A
:101010006507DF91CF911F910F910895CF93909124
:101020004F0990FF5DC0917C811102C0906308C0A0
:10103000893110F0926004C0282F2F71220F922B5B
:1010400090934F09C82F60914F097091500980917A
:101050005109909152090E94650780914F09869528
:101060008F7111F02F9A5C9880914F09982F9E7381
:101070009230B9F482958695869583709091500947
:10108000292F220F220F4091520960915109822B82
:1010900092959695969593700E94D207CF910C9455
:1010A0008E07C23051F48FE2E6EBF6E0DF011D92CD
:1010B0008A95E9F7CF910C947F07C43059F4609179
:1010C000DA087091DB088091DC089091DD08CF91FF
:1010D0000C94740487EF8C0F823010F41092760613
:1010E000CF9108950E945E31811104C00E94443165
:1010F0000E946B070E94610760934F09709350092B
:1011000080935109909352096E736E3361F40E947B
:101110006B070E94610760934F0970935009809399
:10112000510990935209279A549A80914F0980FF50
:1011300004C086958F710C940E080E948E072F981C
:101140005C9A089580914F09982F909590FB80F9B3
:1011500080934F0960914F09709150098091510916
:10116000909152090E94650780914F0980FF04C049
:1011700086958F710C940E080E947F070E948E073F
:1011800080911A0A843011F02F985C9A0895CF92BA
:10119000DF92EF92FF920F931F93CF93DF93C82EAE
:1011A000D0914F09D295D695D695D370D09050094D
:1011B0008D2D880F880FD82BD294D694D69493E097
:1011C000D922E090510940915209042FC0FE02C07B
:1011D000CFEF01C0C1E00E949F2B81FDC1954C2D36
:1011E00050E04930510508F05EC0FA01EF58FF4F5A
:1011F0000C94C232DF91CF911F910F91FF90EF902D
:10120000DF90CF900C94A20890914F099695892F6A
:101210008F718C0F0E940E0846C020914F092295B5
:1012200026952695237030915009432F440F440F83
:10123000842F822B932F92959695969593709D5F10
:1012400024E1C202800D911D112460E073E00E9430
:10125000AE32D82FD92E2AC08091510991E1C9020E
:1012600070011124E80EF11C2FEFE216F10409F0D1
:101270001CF4F7FC29C01AC0EE24EA94F12C16C025
:101280008091520991E1C902A00111248A01080F3D
:10129000111D0F3F110509F01CF417FD18C006C001
:1012A0000FEF10E003C022E02C15A0F4402F6E2DAC
:1012B0008D2F9D2DDF91CF911F910F91FF90EF907A
:1012C000DF90CF900C94D207E12CF12CEFCF00E00F
:1012D00010E0ECCFDF91CF911F910F91FF90EF9035
:1012E000DF90CF900895CF93DF93C82FD62F262F6E
:1012F00030E0280F311D240F311D23323240D4F04D
:1013000025E0829FC001112427E030E0B9010E944E
:10131000AE32C62F55E0D59FC0011124B9010E94FD
:10132000AE32D62F55E0459FC0011124B9010E946D
:10133000AE32462F20E030E0F901E95AF64FC18382
:10134000D08342832D5F3F4F22313105A9F720E042
:1013500030E0F901E759F64FC183D08342832D5F16
:101360003F4F2D383105A9F7DF91CF910C948E07AF
:10137000BF92CF92DF92EF92FF920F931F93CF9382
:10138000DF93CDB7DEB729970FB6F894DEBF0FBE57
:10139000CDBFE22F2983F32F3A834B835C836D8388
:1013A0007E838F8398879F010B811C81203309F0F6
:1013B0005EC0313099F4D8018C9129960FB6F8941B
:1013C000DEBF0FBECDBFDF91CF911F910F91FF9078
:1013D000EF90DF90CF90BF900C94C708323099F413
:1013E000F801808129960FB6F894DEBF0FBECDBFFD
:1013F000DF91CF911F910F91FF90EF90DF90CF90F1
:10140000BF900C940E083330C9F4D80112964C9159
:10141000129711966C9111978C9129960FB6F894AA
:10142000DEBF0FBECDBFDF91CF911F910F91FF9017
:10143000EF90DF90CF90BF900C947309343009F097
:101440006CC0F801238142816181808129960FB6A9
:10145000F894DEBF0FBECDBFDF91CF911F910F91EA
:10146000FF90EF90DF90CF90BF900C944605213312
:1014700009F053C0332309F450C069E271E089EFE9
:1014800099E039870E943C33B02E780109EF19E0CA
:1014900088E3C82E81E0D82E39858E2D8B198317CD
:1014A000F8F4F80101900020E9F73197E95FF9407D
:1014B000E0937406D7018D917D011F928F93DF9287
:1014C000CF92FF27E750F64FFF93EF9339870E94A3
:1014D00043330F900F900F900F900F900F90DCCF31
:1014E00060E373E089EF99E00E94313389EF99E07E
:1014F0000E94321384E690E029960FB6F894DEBF7E
:101500000FBECDBFDF91CF911F910F91FF90EF9054
:10151000DF90CF90BF900C94F71229960FB6F894F5
:10152000DEBF0FBECDBFDF91CF911F910F91FF9016
:10153000EF90DF90CF90BF9008950F931F93CF93BC
:1015400090914F0990FF65C0C62F9E73943009F5A6
:101550002F9906C09091FD07911102C02F9A5C98B7
:101560009CE0899FF0011124EC0FF11DEF5BFE4F11
:10157000008110E0F801EA54F94F8EE780830E9461
:101580001433F801EA57F94F60E071E00E94AE327F
:10159000808380914F098E738630D9F52F9906C0CC
:1015A0008091FD07811102C02F9A5C9820917706E7
:1015B000822F90E0019683709927FC01E458F94F3F
:1015C00030813E3F7CF4FC01E858F94F80818E3039
:1015D0004CF081E0820F843018F48093770602C0CB
:1015E000109277068091770690E0FC01E858F94F59
:1015F000C083FC01E458F94FC0830E941433E0918A
:101600007706F0E0EA57F94F60E071E00E94AE32F1
:101610008083CF911F910F910895CF93C82FE091B0
:101620007306F0E0E95DFD4F449180914F0982958A
:1016300086958695837090915009292F220F220F4D
:1016400060915109822B92959695969593700E9480
:10165000B0073091070120917306C39F200D11241C
:10166000209373062C1738F08C2F90E0820F911D79
:101670008F3791051CF0319530930701CF91089574
:10168000DF92EF92FF920F931F93CF93DF9326E8A1
:10169000E22E26E0F22E09E619E0C6EBD6E080E065
:1016A000DC2E9FE2D90EE881E23068F0F0E0E95DDF
:1016B000FD4F6491A801F70180810E94B2068881E4
:1016C0008250888381E02196FFEFEF1AFF0A0D5FB9
:1016D0001F4FDC12E8CF9BE3E92E91E0F92E07E5DE
:1016E00019E0C0E8D6E0DC2EE6E0DE0EE881E2306C
:1016F00068F0F0E0E95DFD4F6491A801F701808199
:101700000E94B20688818250888381E02196FFEF93
:10171000EF1AFF0A0D5F1F4FDC12E8CF81110BC0DB
:1017200080914F098E73843031F480911A0A84308D
:1017300011F02F985C9ADF91CF911F910F91FF903C
:10174000EF90DF900C948E07DF92EF92FF920F9351
:101750001F93CF93DF93809172068F5F823018F4CE
:101760008093720692C0109272060E947F0706E86C
:1017700016E0B8E7EB2EB6E0FB2ECCE7D6E0DC2E89
:1017800084E0D80E46EF59E06FEFF80181918F01A8
:101790000E94B20628812E3F3CF140E050E0622FCB
:1017A000022E000C770B27FD18C0FA01E60FF71F79
:1017B000EF5BFE4F808190E0FC01EE0FFF1F8E0F6C
:1017C0009F1FFC01E759F64F8091F6099091F709A8
:1017D000A091F80980839183A283445F5F4F4033D7
:1017E000510509F721502883F70120812E3044F557
:1017F00040E050E0622F022E000C770B2C30C4F436
:10180000FA01E60FF71FEF5BFE4F808190E0FC01CD
:10181000EE0FFF1F8E0F9F1FFC01E759F64F8091BF
:10182000F6099091F709A091F80980839183A2832A
:10183000445F5F4F4033510509F72F5FF701208365
:101840002196FFEFEF1AFF0ADC129CCF80917706FA
:1018500090E0FC01E458F94F20812E3F6CF4FC012C
:10186000E858F94F80818E303CF080911A0A84301C
:1018700019F02F985C9A09C0DF91CF911F910F91B9
:10188000FF90EF90DF900C948E07DF91CF911F9126
:101890000F91FF90EF90DF900895EF92FF920F93DA
:1018A0001F93CF93DF930E947F0780917506882353
:1018B00009F483C0109275068091DA089091DB08D4
:1018C000A091DC08B091DD0827E030E0022FAC01E8
:1018D000BD01022E04C076956795579547950A94E9
:1018E000D2F7452B462B472B51F0273061F426EFDA
:1018F00039E046EB66EB86EB0E94E80611C021500A
:10190000310921F752C0C901019726EF39E04FEFA5
:101910006FEF9695982F8827979587950E941B07BC
:1019200091E4E92E91E0F92E10E0C0E0D0E06C2FB8
:10193000712F802F0E94A8010297B0F0F701EC0FE1
:10194000FD1F208130E0F901EE0FFF1F2E0F3F1F1A
:10195000F901E759F64F8091F6099091F709A091A6
:10196000F80980839183A2832196CC30D105F9F6C2
:101970001F5F8CE0E80EF11C1430B9F6E7E5F9E0E2
:101980008091F6099091F709A091F80981939193BC
:10199000A19389E0E936F80799F7DF91CF911F917C
:1019A0000F91FF90EF900C948E070E948E0780910C
:1019B0001A0A843011F02F985C9ADF91CF911F9111
:1019C0000F91FF90EF900895CF93DF9320917106D0
:1019D0002F5F422F50E090E0880F991F84179507E2
:1019E0001CF0209371062CC0109271060E941433D3
:1019F000EC010E9414336CE070E00E94AE32282F9C
:101A0000CE0164E070E00E94AE329CE0899FF0015C
:101A10001124E20FF11DEF5BFE4FC081D0E0FE010B
:101A2000EA54F94F8081823058F48EE780830E9417
:101A30001433CA57D94F60E071E00E94AE328883F8
:101A4000DF91CF910C94400BDF92EF92FF920F93B6
:101A50001F93CF93DF93909170069F5F90937006D2
:101A6000891708F086C00E947F070E9414336CE03B
:101A700070E00E94AE32EC01DD27FE01EA54F94F1E
:101A8000808181110DC085E080830E941433CA5784
:101A9000D94F60E071E00E94AE32888310927006E8
:101AA00006EB16E0C0E0D0E054E0E52E65E0D62E6F
:101AB0007CE0F72EF8018081882309F44AC046EFC4
:101AC00059E06FEFFE01EA57F94F80810E94B2069C
:101AD000F80120818E2D821B8430D0F4FE01F89E07
:101AE000E00DF11D1124EF5BFE4F808190E0FC01C1
:101AF000EE0FFF1F8E0F9F1FFC01E759F64F8091DD
:101B0000F6099091F709A091F80980839183A28347
:101B10008D2D821B8430D0F4FE01F89EE00DF11D66
:101B20001124EF5BFE4F808190E0FC01EE0FFF1F60
:101B30008E0F9F1FFC01E759F64F8091F609909197
:101B4000F709A091F80980839183A2832150F801BD
:101B5000208321960F5F1F4FCC30D10509F0AACF0B
:101B6000DF91CF911F910F91FF90EF90DF900C9438
:101B70008E07DF91CF911F910F91FF90EF90DF9033
:101B800008959F92AF92BF92CF92DF92EF92FF9211
:101B90000F931F93CF93DF9380916F068F5F809396
:101BA0006F06882309F4B6C08DE8E9E6F9E0DF01A5
:101BB0001D928A95E9F780917606882341F08091FD
:101BC0006E06882369F1815080936E06A3C084E07D
:101BD0008093760684E180936E0606E816E0C6EBF5
:101BE000D6E06EE0962EA12CBB24B394E7E5CE2E72
:101BF000E9E0DE2EF2E1EF2EFC2EB4E0FB0E99922E
:101C00000E941433B5010E94AE32F80181938F0116
:101C1000D601EE2D1D92EA95E9F7FC12F0CFCFCF59
:101C200046EBE42E46E0F42EC0E0D0E05CE0D52E9A
:101C300004E010E0CC2ED7018C918F3018F0109278
:101C4000760668C0882309F450C046EF59E06FEF6C
:101C5000FE01EA57F94F80810E94B2062CE0DC9E1B
:101C6000A001DD9E500D1124F7018081F22FF81B99
:101C70008F2FFC30C0F4FA01E80FF11DEF5BFE4F2F
:101C8000808190E0FC01EE0FFF1F8E0F9F1FFC0173
:101C9000E759F64F8091F6099091F709A091F8095C
:101CA00080839183A2832F5F2F30F1F60E9414333B
:101CB0005C010E9414339C01C501B8010E94AE3240
:101CC000C81699F0C901B8010E94AE32C81669F071
:101CD000D7018C9181508C93811107C08091760639
:101CE000882319F08150809376062196BFEFEB1A76
:101CF000FB0AC430D10509F09DCFDF91CF911F9130
:101D00000F91FF90EF90DF90CF90BF90AF909F909A
:101D10000C948E07DF91CF911F910F91FF90EF9060
:101D2000DF90CF90BF90AF909F9008952F923F92F9
:101D30004F925F926F927F928F929F92AF92BF92DB
:101D4000CF92DF92EF92FF920F931F93CF93DF9387
:101D5000CDB7DEB72A970FB6F894DEBF0FBECDBF62
:101D600080916D068F5F80936D06882309F429C1E9
:101D7000809176068823E9F10E94143304E010E094
:101D8000B8010E94AE324C010E941433B8010E9487
:101D9000AE325C010E941433B8010E94AE326C0175
:101DA0000E941433B8010E94AE3208E716E0B1E495
:101DB0006B2EB1E07B2E2CE736E03A872987E12CA9
:101DC000F12C412C23E0522EF401FF27FA83E98302
:101DD000950133273C832B83FC01FF27FE83ED8392
:101DE0003CE0832E9601332738872F834BE0242E47
:101DF00015C084E08093760610927C068BE0809379
:101E0000780610927D068093790610927E06809364
:101E10007A0610927F0680937B06AECF89859A85DD
:101E20008C5796406C01E985FA853080F8019080E6
:101E30009314ECF420E030E0F301E20FF31F818112
:101E400090E0FC01EE0FFF1F8E0F9F1FFC01E75972
:101E5000F64F1082118212822F5F3F4F2A303105D8
:101E600059F7E985FA851082F80120827DC020911A
:101E70004F09229526952695237030915009432FBE
:101E8000440F440F842F822B932F9295969596950D
:101E900093708E0D9F1DB2010E94AE325C012981AC
:101EA0003A81C216D30661F18F819885C816D9068A
:101EB00039F137FC25C08C9CF0018D9CF00D11246C
:101EC000E30DF11D37FCFA95EF5BFE4F208130E00A
:101ED000C901880F991F280F391F2759364F4FEF17
:101EE00060915109C5010E941B0781E0830DE985BE
:101EF000FA8580838F3024F0109276060E947F0747
:101F00002B813C81C216D30679F18D819E81C81642
:101F1000D90651F1191444F5C501845D9E4F8C9C7E
:101F2000F0018D9CF00D1124E90DF11D97FCFA953F
:101F3000EF5BFE4F208130E0A901440F551F240FB5
:101F4000351F2759364FB2010E949A324FEF6091E8
:101F500051090E941B079A94F8019082911004C0C5
:101F6000109276060E947F0729853A852F5F3F4FA2
:101F70003A8729870F5F1F4F30E8E30EF11C8CE092
:101F8000680E711CE11492E0F90609F047CF2A9619
:101F90000FB6F894DEBF0FBECDBFDF91CF911F917A
:101FA0000F91FF90EF90DF90CF90BF90AF909F90F8
:101FB0008F907F906F905F904F903F902F900C94F8
:101FC0008E072A960FB6F894DEBF0FBECDBFDF9105
:101FD000CF911F910F91FF90EF90DF90CF90BF9026
:101FE000AF909F908F907F906F905F904F903F90B9
:101FF0002F900895CF93C82FEFE4F9E043816281D9
:1020000080916B0690916C060E94B00720916B0640
:1020100030916C06C90143E0C49F800D911D1124CD
:1020200060E073E00E949A3290936C0680936B0696
:10203000CF9108956F927F928F92AF92BF92CF927D
:10204000DF92EF92FF920F931F93CF93DF93D82FDE
:10205000C82FC695E1E4CE2EE1E0DE2E8601E12C0C
:10206000F12CA12CF3E0BF2E8091690690916A06B5
:102070008E0D9F1DB5010E949A3226EF39E04091E6
:102080005209609151090E941B0780E090E0F8011D
:10209000E80FF91F208130E0F901EE0FFF1F2E0F2E
:1020A0003F1FF901E759F64F2091F6093091F709E2
:1020B0004091F8092083318342830C968033910547
:1020C00031F7802F8C1969F08B3069F080E3E80ECE
:1020D000F11C0F5F1F4F80E4E81682E0F80621F63E
:1020E00021C080E001C083E0482F50E04E5F5F4F89
:1020F000282F082E000C330B421753073CF3F9012D
:10210000EE0FFF1F2E0F3F1FF901E95AF64F6090A7
:10211000F6097090F7098090F809608271828282D6
:102120008F5FE6CF0E948E072091690630916A0684
:102130004C2F50E0D0FF09C0CA0144E0880F991F1E
:102140004A95E1F7820F931F09C0C9019D5F24E002
:10215000440F551F2A95E1F7841B950B60E073E04F
:102160000E949A3290936A0680936906DF91CF911C
:102170001F910F91FF90EF90DF90CF90BF90AF90A5
:102180008F907F906F900895CF92DF92EF92FF92A1
:102190000F931F93CF93DF93909168069F5F282F33
:1021A0002695291758F090936806DF91CF911F91DB
:1021B0000F91FF90EF90DF90CF900895C82F10926D
:1021C00068060E947F07C0FF03C0FF24FA9402C084
:1021D000FF24F39456E0D52EE12C00E310E0C0E09C
:1021E000D3E0C090060197013203C00111248C0D89
:1021F000911DC7FC9A95C096B8010E94AE32FC01B1
:10220000EF5BFE4F208130E0C901880F991F280F36
:10221000391F2759364F80914F09829586958695AB
:10222000837090915009692F660F660F462F482BD7
:10223000592F5295569556955370CA0162E3E69E02
:10224000800D911D1124BE010E94AE3240915209B1
:10225000609151090E941B07E394DA94D110C1CF19
:102260008C2D8F0D81331CF01092060104C087FD68
:1022700080E380930601DF91CF911F910F91FF9032
:10228000EF90DF90CF900C948E07CF92DF92EF9279
:10229000909167069F5F891718F09093670687C033
:1022A000109267060E947F0740E050E080E0209196
:1022B0000501BA01620F711D27FD7A956C30710519
:1022C00008F047C0240F60E070E0A22FB0E0FB01EF
:1022D000EA0FFB1FEF5BFE4F808190E0FC01EE0FE9
:1022E000FF1F8E0F9F1FFC01E759F64FC090F609A4
:1022F000D090F709E090F809C082D182E282645F51
:102300007F4F6033710519F7222321F02B3021F024
:1023100081E01FC080E001C083E0682F70E06E5F45
:102320007F4F282F30E06217730794F3F901EE0F07
:10233000FF1F2E0F3F1FF901E95AF64FC090F60913
:10234000D090F709E090F809C082D182E2828F5FD5
:10235000E8CF4F5F5F4F4630510509F0A8CF81119C
:102360000E948E079091040180910501890F80934E
:1023700005018B5F8131D8F0919590930401809194
:10238000650690916606889660E073E00E949A3236
:10239000909366068093650626EF39E040915209D6
:1023A00060915109EF90DF90CF900C941B07EF9054
:1023B000DF90CF90089580914F0980FF2DC02F9B13
:1023C0002BC086958F71E82FF0E03297E731F10549
:1023D00018F5E658FF4F0C94C2320C94400B0C9445
:1023E000A40B0C944D0C84500C94E40C86500C946B
:1023F000240D0C94C10D0C94960E89500C940D0B69
:102400008B500C94FA0F8D500C941A1083510C942D
:10241000C41087510C94451108952F985C9A089523
:1024200010921C090C947208CF93DF9300D000D057
:102430001F92CDB7DEB7662371F0642F852F0E94FF
:102440009D0A0E941A2C60930108709302088093E1
:102450000308909304080F900F900F900F900F9027
:10246000DF91CF9108952F9B12C0809164068F5FFA
:10247000813518F4809364060AC010926406809136
:10248000FD07811102C00E94DB110E946A05809144
:102490006206909163060196813D27E0920728F439
:1024A000909363068093620625C010926306109293
:1024B00062068091FD078823E9F080911A0A843032
:1024C000A9F00E947F070E948E075C9A20E040E0FE
:1024D00060E880E00E94460520E040E060E881E09E
:1024E0000E94460585B1805885B904C01092FD0749
:1024F0000E9410120C949215F8948CE08093CC00FA
:102500001092CD00E9ECF0E08081806980838081C9
:1025100088608083EAECF0E080818083E8ECF0E082
:10252000808182608083789408952091E60680916E
:10253000E706821759F030E0F901E851F94F808140
:102540002F5F3F4F2093E60690E008958FEF9FEFB7
:1025500008959091C80095FFFCCF8093CE00089518
:102560001F920F920FB60F9211242F933F934F9308
:102570008F939F93EF93FF938091E70690E09C01E8
:102580002F5F3F4F4091E606421741F03091CE0059
:10259000FC01E851F94F30832093E706FF91EF915A
:1025A0009F918F914F913F912F910F900FBE0F9060
:1025B0001F9018958091F70708950895F89487E67D
:1025C0008093CC001092CD00E9ECF0E0808180692E
:1025D0008083808188608083EAECF0E08081808362
:1025E000E8ECF0E080818260808378940895EF9237
:1025F000FF920F931F93CF938C010E940E2C7C01AE
:10260000C0E0C7010E94262C80179107F0F40E94B9
:1026100095129C012F3F8FEF3807A9F02D3099F0CC
:102620004C2F50E02A3051F4C23030F0FA01E95119
:10263000F84F80818F3449F02FE530E0FA01E751FF
:10264000F84F2083CF5FCD30E0F2EC2FF0E0E75180
:10265000F84F108289EE97E0CF911F910F91FF9074
:10266000EF900895CF93DF93EC018991882319F0BF
:102670000E94A912FACFDF91CF910895CF93DF93F3
:10268000EC018F5691098230910520F08A5791090B
:10269000029788F48091FA079091FB07892B31F417
:1026A00089E792E09093FB078093FA07D093F907AC
:1026B000C093F80704C01092FB071092FA078091AC
:1026C000FC0781112CC081E791E00E943213DF9357
:1026D000CF9383EA91E09F938F9389EF99E09F9343
:1026E0008F930E94433389EF99E00E94321384E66E
:1026F00090E00E94F71242E050E068E172E00E9430
:1027000024330F900F900F900F900F900F90892B04
:1027100019F41092FC0703C081E08093FC07DF915D
:10272000CF910895CF93DF93EC018091FC07811145
:1027300049C086E891E00E9432138C81282F082E30
:10274000000C330B3F938F938B81282F082E000CA6
:10275000330B3F938F938A81282F082E000C330B65
:102760003F938F938981282F082E000C330B3F93C2
:102770008F938AE991E09F938F9389EF99E09F93DC
:102780008F930E94433389EF99E00E94321384E6CD
:1027900090E00E94F71242E050E068E172E00E948F
:1027A00024332DB73EB7245F3F4F0FB6F8943EBF9A
:1027B0000FBE2DBF892B19F41092FC0703C081E0D6
:1027C0008093FC078091FC0781112DC087EA91E07E
:1027D0000E94321388811F928F9383EA91E09F9326
:1027E0008F9389EF99E09F938F930E94433389EFF2
:1027F00099E00E94321384E690E00E94F71242E0D2
:1028000050E068E172E00E9424330F900F900F9027
:102810000F900F900F90892B19F41092FC0703C0B2
:1028200081E08093FC07DF91CF910895CF93DF93F0
:102830002091FC07211143C0EC018DEB91E00E9437
:1028400032138F811F928F938E811F928F938D8170
:102850001F928F938C811F928F938B811F928F93E6
:102860008A811F928F9388811F928F9381ED91E0CF
:102870009F938F9389EF99E09F938F930E944333A7
:1028800089EF99E00E94321384E690E00E94F712EB
:1028900045E050E068EF71E00E9424332DB73EB769
:1028A0002E5E3F4F0FB6F8943EBF0FBE2DBF892B53
:1028B00021F481E08093FC0702C01092FC07DF91B5
:1028C000CF910895CF93DF9385B7806885BF85B793
:1028D000806885BF559A5D980E94052C0E94DE1283
:1028E0002FEF81EE94E0215080409040E1F700C04E
:1028F00000008EEF91E00E94321384E690E00E9487
:10290000F7128EEF91E00E94321384E690E00E946D
:10291000F712EC0142E050E062E072E00E942433E2
:10292000892B09F46DC042E050E068E172E0CE010D
:102930000E942433892B09F463C08091C9008F77EA
:102940008093C9008091C9008093C9000E947C12C5
:102950002FEF80E792E0215080409040E1F700C0E7
:1029600000008EEF91E00E94321384E690E00E9416
:10297000F7122FEF80E792E0215080409040E1F77E
:1029800000C0000088E092E00E94321384E690E0EC
:102990000E94F71245E050E066E172E00E942433A5
:1029A000892B51F08BE192E00E94321384E690E093
:1029B0000E94F7120E94A22C2FEF80E792E0215094
:1029C00080409040E1F700C000008CE292E00E945D
:1029D000321384E690E00E94F71245E050E068EF81
:1029E00071E00E942433892B09F099C08BE392E0B7
:1029F0000E9432138AE592E0DF91CF910C9432135A
:102A00002FEF82E597E0215080409040E1F700C031
:102A100000008BE192E00E94321384E690E00E9475
:102A2000F7122FEF83ED90E3215080409040E1F7C3
:102A300000C000008EEF91E00E94321384E690E027
:102A40000E94F7122FEF82E597E0215080409040DE
:102A5000E1F700C000008AE992E00E94321384E6A8
:102A600090E00E94F7122FEF82E597E0215080401E
:102A70009040E1F700C0000089E291E00E9432132B
:102A800081EA92E00E94321384E690E00E94F712FD
:102A90002FEF82E597E0215080409040E1F700C0A1
:102AA00000008BEA92E00E94321384E690E00E94DC
:102AB000F7122FEF82E597E0215080409040E1F738
:102AC00000C000008BEB92E00E94321384E690E09D
:102AD0000E94F7122FEF82E597E02150804090404E
:102AE000E1F700C000008BEC92E00E94321384E614
:102AF00090E00E94F7122FEF82E597E0215080408E
:102B00009040E1F700C000008BED92E00E9432138C
:102B100084E690E00E94F7120E94A22C0ECFDF9173
:102B2000CF9108958091FA079091FB070097F1F0FB
:102B30008230910530F001979093FB078093FA075C
:102B400008952091E8072F5F2093E8078091F80708
:102B50009091F90730E043EF50E0481B590B2417E0
:102B6000350720F01092E8070C943E130895CF9398
:102B70005C9B9BC0C82F8EEE92E00E94321384E6CD
:102B800090E00E94F712FC01418180ED840F8A30B1
:102B900020F081E08093090832C082818A3378F581
:102BA000608170E06053710994E6969FF001979FF1
:102BB000F00D112450E0405351099AE0949F900188
:102BC000959F300D11242E0F3F1F280F311D83E0DC
:102BD000220F331F8A95E1F72A54324030931401B3
:102BE0002093130120318EE0380720F481E0809398
:102BF000FD0705C023343E4010F01092FD07C2309F
:102C000009F053C08091130190911401833D2FE08E
:102C10009207E8F48F362FE09207D8F48D332FE037
:102C20009207C8F4893D2EE09207B8F4873A2EE067
:102C30009207A8F485372EE0920798F483342EE0AB
:102C4000920788F481319E4080F0C4E10FC0CAE54C
:102C50000DC0C0E50BC0C6E409C0CCE307C0C2E3A9
:102C600005C0C8E203C0CEE101C0CAE08AEF92E02D
:102C70000E9432131F92CF9383EA91E09F938F9328
:102C800089EF99E09F938F930E94433389EF99E0F6
:102C90000E9432130F900F900F900F900F900F9093
:102CA00084E690E0CF910C94F712CF9108950E94A2
:102CB0001A2C609301087093020880930308909384
:102CC00004080895CF93DF935D99EFC080910908C0
:102CD0008823C1F084E690E00E94F712EC0142E004
:102CE00050E068E172E00E942433892B59F045E0FE
:102CF00050E068EF71E0CE010E942433892B11F07F
:102D00001092090880910908811155C08091050829
:102D1000909106080E94262C8938934108F44BC0F4
:102D20000E940E2C909306088093050889E093E09A
:102D30000E94321384E690E00E94F712FC01808129
:102D4000813351F480910808811118C081E080938B
:102D500008081092070812C0803369F480910808AF
:102D6000882319F01092080809C0809107088F5F26
:102D70008093070803C081E08093090880910A08C6
:102D8000811112C080911201882371F0809107088F
:102D90008C3050F080911A0A843021F05D9A84E0E2
:102DA000809312011092070880911201823018F46A
:102DB00081E00E94B71580911A0A8430B1F18091A8
:102DC0001201823029F40E94B71583E0809312012A
:102DD00080911201813091F4609101087091020894
:102DE00080910308909104080E94502C69397A431D
:102DF0008105910518F082E0809312018091120103
:102E0000833099F460910108709102088091030861
:102E1000909104080E94502C61387E4E86439105A3
:102E200020F084E0809312015D9A8091FC07882352
:102E3000D1F08EEF91E00E94321384E690E00E9480
:102E4000F71242E050E068E172E00E942433892BDF
:102E500051F488E193E00E94321384E690E00E94EE
:102E6000F7121092FC078091FE078823F1F08C3056
:102E700011F0823171F482E393E00E943213809169
:102E8000FE07823119F48BE493E007C087EF92E0EC
:102E900004C0853121F48BEC92E00E94321384E669
:102EA00090E00E94F7121092FE0780910A088111AB
:102EB0001EC00E9421208850914059F00E940E228D
:102EC00080912001809300081092200188E091E019
:102ED0001EC08091FF07811126C080911A0A84309C
:102EE00011F581E080930A088093FF071CC00E94BF
:102EF00021208551914079F081E08093FF070E9465
:102F00000E22809100088093200185E191E0DF91FD
:102F1000CF910C941C2080911A0A843021F01092D9
:102F20000A081092FF07DF91CF910895833139F19C
:102F3000A0F48C3009F18231F9F0853051F50E940E
:102F40000E222FEF89E698E1215080409040E1F772
:102F500000C000000E94A22C0DC0883129F0803CE6
:102F600099F08531B1F408C090910A0881E0892771
:102F700080930A0881E008958093FE07FBCF90912B
:102F8000120181E0892702C05D9A8AE080931201D4
:102F9000F1CF80E008951F93CF93DF9384B7877FAD
:102FA00084BF0FB6F894A8958091600088618093E3
:102FB0006000109260000FBE90E080E80FB6F894B9
:102FC00080936100909361000FBE0E94451C0E9497
:102FD000A01C8091E20084608093E20078948FEFDF
:102FE00090911A0A8150943041F0EFE3FFE131975C
:102FF000F1F700C000008111F3CF80911A0A8430EC
:1030000019F481E080930A080E9462140E94571606
:103010000E94742081E080930B089DE088E10FB648
:10302000F894A895809360000FBE90936000C8E16B
:10303000DDE011E080911201823008F43BC00E9473
:103040003A040E94ED2C0E944804882351F10E940A
:1030500024030E941A2C6093010870930208809345
:103060000308909304080FB6F894A8958091600027
:10307000886180936000109260000FBE0FB6F894D4
:10308000A895C09360000FBED09360000E94242DCD
:1030900080911201843018F05D980E947A2010937C
:1030A000120180911201843008F0C4CFA8950E94CB
:1030B0006216C0CFA8950E947A20F9CF80911D0892
:1030C0000895CF93DF9300D01F92CDB7DEB79C0158
:1030D00080911A0A843019F593E099833B832A83FF
:1030E0009093E9008FEF9091E800815095FD06C024
:1030F0009AE69A95F1F700C08111F5CF8091E8002A
:1031000085FF0DC040E050E063E070E0CE01019625
:103110000E94E71A8091E8008E778093E8000F9074
:103120000F900F90DF91CF910895CF93DF9300D050
:103130001F92CDB7DEB720911A0A243021F522E084
:1031400029839B838A8383E08093E9008FEF9091AA
:10315000E800815095FD06C09AE69A95F1F700C007
:103160008111F5CF8091E80085FF0DC040E050E06F
:1031700063E070E0CE0101960E94E71A8091E800BA
:103180008E778093E8000F900F900F90DF91CF9192
:10319000089520911A0A2430F1F422E02093E900E6
:1031A0002FEF3091E800215035FD06C03AE63A9500
:1031B000F1F700C02111F5CF2091E80025FF0BC0E9
:1031C00040E050E065E070E00E94E71A8091E8007E
:1031D0008E778093E8000895CF93DF9320911A0AA9
:1031E000243009F048C0EC0180911F018823E1F0F0
:1031F000809120018823C1F086E08093E9008FEF61
:103200009091E800815095FD06C095E19A95F1F7FF
:1032100000008111F5CF8091E80085FF2CC040E0CF
:1032200050E060E170E017C081E08093E9008FEF2B
:103230009091E800815095FD06C09AE69A95F1F7C5
:1032400000C08111F5CF8091E80085FF14C040E0F7
:1032500050E068E070E0CE010E94E71A8091E8003B
:103260008E778093E80080E1FE01ADE0B8E0019048
:103270000D928A95E1F7DF91CF9108958091190A17
:10328000811109C00E94451C0E94A01C8091E2008F
:1032900084608093E20008951092190A08950895B9
:1032A0001F93CF93DF93CDB7DEB7A0970FB6F894F7
:1032B000DEBF0FBECDBF80911A0A843009F044C032
:1032C0001091E9001F709091EC00892F817090FDA2
:1032D00080E8182B85E08093E9008091E80082FF68
:1032E00015C08091E80085FF0CC040E050E060E22E
:1032F00070E0CE0101960E94321BCE0101960E9421
:10330000051F8091E8008B778093E80084E080932C
:10331000E9008091EB0080FF14C08091EE0087FFF0
:1033200010C08091E80085FF03C01092F100F9CF32
:103330008091E80080FF05C08091E8008E7780933F
:10334000E8001F701093E900A0960FB6F894DEBF56
:103350000FBECDBFDF91CF911F91089542E061EC88
:1033600081E00E94E01B42E061EC82E00E94E01BF1
:1033700042E061EC83E00E94E01B42E261EC84E009
:103380000E94E01B42E260EC85E00E94E01B42E10B
:1033900061EC86E00C94E01B80911C0A833009F4F8
:1033A00055C030F4813071F0823009F48EC0089538
:1033B0008A3009F47AC08B3009F460C0893009F092
:1033C0009CC020C080911B0A813A09F096C0809170
:1033D000E800877F8093E80080911F0A9091200A7F
:1033E000892B21F460E18DE098E003C060E080E08B
:1033F00090E070E00E947D1B8091E8008B778093C5
:10340000E800089580911B0A813209F076C080910E
:103410001F0A9091200A009719F0049709F06DC0D7
:103420008091E800877F8093E8008091E80082FD2A
:1034300005C080911A0A8111F8CF5FC08091F10018
:1034400080931D088091E8008B7753C080911B0A00
:10345000813A09F052C080911F0A9091200A892B6D
:1034600009F04BC08091E800877F8093E80080914D
:10347000E80080FFFCCF80911F0136C080911B0ABD
:103480008132D9F580911F0A9091200A892BA9F5E4
:103490008091E800877F8093E8000E94F41B809170
:1034A0001D0A80931F010C940E2280911B0A813209
:1034B00021F58091E800877F8093E8000E94F41B4B
:1034C00080911E0A80931E08089580911B0A813AFC
:1034D000A1F48091E800877F8093E8008091E80064
:1034E00080FFFCCF80911E088093F1008091E8005E
:1034F0008E778093E8000C94F41B089580911D084A
:1035000080930C0810921D0880E00E9473040E94B2
:1035100021210C940E220C947E1A0E94242D80915D
:103520000C0880931D0808950C948D1A292F3327B9
:1035300023303105C1F05CF42130310579F02230BF
:103540003105E9F58DE890E02EE933E03CC0213209
:103550003105C1F02232310511F131C082E190E034
:103560002BE234E030C099278330910540F5FC010F
:10357000EE0FFF1FE659FC4F20813181FC01E95914
:10358000FC4F1AC06530D8F4E62FF0E0EE0FFF1FB5
:10359000E35AFC4F2081318189E090E014C065300E
:1035A00070F470E0FB01EE0FFF1FED5AFC4F20811D
:1035B0003181FB01E25BFC4F808190E004C080E040
:1035C00090E020E030E0FA01318320830895CF922B
:1035D000DF92EF92FF920F931F93CF93DF93EC0153
:1035E0008B016A010E94131C811133C0C114D104E4
:1035F00039F0F60180819181081B190BC80FD91F82
:10360000E12CF12C0115110519F18091E80085FDDF
:1036100016C08091E8008E778093E800C114D10431
:1036200049F0F60180819181E80EF91EF182E08275
:1036300085E00FC00E94131C882321F30AC08991E2
:103640008093F10001501109FFEFEF1AFF0ADACF62
:1036500080E0DF91CF911F910F91FF90EF90DF906D
:10366000CF900895CF92DF92EF92FF920F931F9326
:10367000CF93DF93EC018B016A010E94131C81112F
:1036800033C0C114D10439F0F60180819181081B47
:10369000190BC80FD91FE12CF12C0115110519F1D7
:1036A0008091E80085FD16C08091E8008B778093BB
:1036B000E800C114D10449F0F60180819181E80E3F
:1036C000F91EF182E08285E00FC00E94131C88235E
:1036D00021F30AC08091F100899301501109FFEF95
:1036E000EF1AFF0ADACF80E0DF91CF911F910F919F
:1036F000FF90EF90DF90CF9008952091210A3091B4
:10370000220A2617370748F06115710539F4209110
:10371000E8002E772093E80001C0B90140E0611570
:103720007105A9F120911A0A222309F443C025301A
:1037300009F442C02091E80023FD40C02091E80038
:1037400022FD32C02091E80020FFE9CF4091F30034
:103750002091F20030E0342BFC01CF01611571059E
:1037600059F02830310540F481918093F100615087
:1037700071092F5F3F4FF1CF41E02830310509F04B
:1037800040E02091E8002E772093E800C8CF411157
:10379000C9CF0AC080911A0A882361F0853061F090
:1037A0008091E80083FD0AC08091E80082FFF2CF9B
:1037B00080E0089582E0089583E0089581E008950F
:1037C0008F708093E900EBEEF0E080818160808370
:1037D000EDEEF0E010826093EC0040838091EE000B
:1037E000881F8827881F089580911B0A87FF11C0B2
:1037F0008091E80082FD05C080911A0A8111F8CFFE
:1038000011C08091E8008B770BC080911A0A882341
:1038100049F08091E80080FFF8CF8091E8008E7732
:103820008093E80008952091E4003091E50095E64A
:103830004091EC00842F817040FF22C08091E8000D
:1038400080FD1CC080911A0A882391F0853091F088
:103850008091EB0085FD10C04091E4005091E5009F
:103860004217530729F39A01915011F784E0089504
:1038700082E0089583E0089581E0089580E008954E
:103880004091E80042FFDECF08950E94B11C0E94E3
:10389000B91CE0EEF0E0808181608083E8EDF0E02B
:1038A00080818F77808319BCA7EDB0E08C918E7FEB
:1038B0008C9380818F7E80831092190A08950F93D4
:1038C0001F93CF93DF930E94B11C0E94B91CC8EDD7
:1038D000D0E088818F778883888180688883888119
:1038E0008F7D888319BC10921A0A1092170A1092C1
:1038F000180A00EE10E0F80180818B7F80838881B8
:103900008160888342E060E080E00E94E01BE1EE9D
:10391000F0E080818E7F8083E2EEF0E08081816044
:103920008083808188608083F80180818E7F80839E
:10393000888180618883DF91CF911F910F910895D5
:10394000E8EDF0E080818F7E8083E7EDF0E080811C
:103950008160808384E082BF81E08093190A0C94A7
:103960005F1CE8EDF0E080818E7F80831092E200A2
:1039700008951092DA001092E10008951F920F92BC
:103980000FB60F9211242F933F934F935F936F9332
:103990007F938F939F93AF93BF93EF93FF93809108
:1039A000E10082FF0BC08091E20082FF07C080919E
:1039B000E1008B7F8093E1000E9450198091DA0032
:1039C00080FF1DC08091D80080FF19C08091DA006F
:1039D0008E7F8093DA008091D90019BC80FF0BC0E4
:1039E00082E089BD09B400FEFDCF81E080931A0A10
:1039F0000E943E1904C010921A0A0E944C1980912C
:103A0000E10080FF19C08091E20080FF15C0809125
:103A1000E2008E7F8093E2008091E20080618093DB
:103A2000E2008091D80080628093D80019BC85E0C4
:103A300080931A0A0E948B1A8091E10084FF4DC086
:103A40008091E20084FF49C019BC82E089BD09B4BD
:103A500000FEFDCF8091D8008F7D8093D8008091AB
:103A6000E10084FF1AC080910B088823B1F00FB6E3
:103A7000F894A8958091600088618093600010920E
:103A800060000FBE9CE088E10FB6F894A895809383
:103A900060000FBE90936000FFCF8091E1008F7EA9
:103AA0008093E1008091E2008F7E8093E20080911C
:103AB000E20081608093E2008091170A882311F070
:103AC00084E007C08091E30087FD02C081E001C06F
:103AD00083E080931A0A0E94941A8091E10083FF88
:103AE00029C08091E20083FF25C08091E100877F9B
:103AF0008093E10082E080931A0A1092170A809165
:103B0000E1008E7F8093E1008091E2008E7F8093C0
:103B1000E2008091E20080618093E20042E060E098
:103B200080E00E94E01B8091F00088608093F000AC
:103B30000E944F19FF91EF91BF91AF919F918F918B
:103B40007F916F915F914F913F912F910F900FBE99
:103B50000F901F9018951F920F920FB60F9211247D
:103B60002F933F934F935F936F937F938F939F9385
:103B7000AF93BF93CF93DF93EF93FF93C091E9008F
:103B8000CF708091EC00D82FD17080FDD0E81092DA
:103B9000E9008091F000877F8093F00078940E9484
:103BA000EF1D1092E9008091F00088608093F00092
:103BB000CD2BCF70C093E900FF91EF91DF91CF91B2
:103BC000BF91AF919F918F917F916F915F914F9135
:103BD0003F912F910F900FBE0F901F9018951F933C
:103BE000CF93DF9300D0CDB7DEB7EBE1FAE088E00A
:103BF0008E0F9091F10091938E13FBCF0E94CC1900
:103C00008091E80083FFEDC080911B0A90911C0A0F
:103C1000492F50E04A30510508F0E3C0FA01EF5651
:103C2000FF4F0C94C232803881F0823809F0D9C03D
:103C300080911F0A8F708093E9008091EB0085FBD3
:103C4000882780F91092E90007C08091180A88231C
:103C500011F082E001C080E09091E800977F90939E
:103C6000E8008093F1001092F10095C0282F2D7F7D
:103C700009F0B7C0882319F0823061F0B2C080919A
:103C80001D0A813009F0ADC0933009F080E08093C7
:103C9000180A2BC080911D0A811127C080911F0A2C
:103CA0008F7009F49EC08093E9002091EB0020FF03
:103CB0001CC0933021F48091EB00806214C090917D
:103CC000EB0090619093EB0021E030E0A90102C08D
:103CD000440F551F8A95E2F74093EA001092EA00DC
:103CE0008091EB0088608093EB001092E900809156
:103CF000E800877F53C0811174C010911D0A1F779F
:103D00008091E3008078812B8093E3008091E8002C
:103D1000877F8093E8000E94F41B8091E80080FF79
:103D2000FCCF8091E30080688093E300111102C012
:103D300082E001C083E080931A0A53C08058823029
:103D400008F04FC0AE014F5F5F4F60911F0A809136
:103D50001D0A90911E0A0E94961ABC01892B09F433
:103D600040C09091E800977F9093E80089819A8104
:103D70000E947D1B8091E8008B778093E80031C022
:103D8000803879F58091E800877F8093E800809102
:103D9000170A8093F1008091E8008E778093E80005
:103DA0000E94F41B1EC081111CC090911D0A92300C
:103DB000C0F48091E800877F8093E8009093170A11
:103DC0000E94F41B8091170A811106C08091E300C4
:103DD00087FD02C081E001C084E080931A0A0E943E
:103DE000AE198091E80083FF0AC08091E800877FC8
:103DF0008093E8008091EB0080628093EB000F904D
:103E00000F90DF91CF911F910895AF92BF92DF92F3
:103E1000EF92FF920F931F93CF93DF93CDB7DEB74F
:103E200028970FB6F894DEBF0FBECDBF0DB71EB7F3
:103E3000DC012C9111963C91EDB7FEB7E31BF10923
:103E40000FB6F894FEBF0FBEEDBF4DB75EB74F5F24
:103E50005F4F5A01722F771F7727771F632F661FD7
:103E60006627661F2F773F77772379F0AC01430FE2
:103E7000511DFA01A281EA2FF0E0BE2FAA27FA0114
:103E80004381FD01E40FF11D02C0E0E0F0E0029685
:103E90007501AC01D42ED81AD31638F4DA01DD90AE
:103EA000AD01D701DD927D01F5CF29836D833A8382
:103EB0004A2DBC82AB827E83F887EF835C818E2F94
:103EC00098850E94F31F81E00FB6F8941EBF0FBEC5
:103ED0000DBF28960FB6F894DEBF0FBECDBFDF91A1
:103EE000CF911F910F91FF90EF90DF90BF90AF9017
:103EF0000895DF92EF92FF920F931F93CF93DF937A
:103F0000CDB7DEB728970FB6F894DEBF0FBECDBF92
:103F100029833A834B835C836D837E838F83988769
:103F2000EB80FC8080912108662391F0811123C0F1
:103F3000F701818190E0982F88272081820F911DC1
:103F40009093200880931F0881E08093210811C07E
:103F5000882319F0109221080EC0F701818190E0AA
:103F6000982F88272081820F911D9093200880939D
:103F70001F0802E001C000E0D12C10E02D2D30E040
:103F80008A8190E0801B910B28173907ECF480910F
:103F90001F0890912008AC0148505109483F5340F8
:103FA00040F42E0D3F1DF901E00FF11F60810E94CA
:103FB000F03580911F089091200801969093200879
:103FC00080931F08D394DACF81E028960FB6F89437
:103FD000DEBF0FBECDBFDF91CF911F910F91FF903C
:103FE000EF90DF900895CF93DF93CDB7DEB728979A
:103FF0000FB6F894DEBF0FBECDBF3A834B835C8310
:104000006D837E838F839887203119F40E94791FF6
:1040100009C03A814B815C816D817E818F81988559
:104020000E94B80981E028960FB6F894DEBF0FBE53
:10403000CDBFDF91CF9108959093270880932608F4
:10404000089580912608909127080895E091260808
:10405000F0912708309721F00190F081E02D09942C
:1040600080E00895E0912608F0912708309721F02C
:104070000280F381E02D09940895E0912608F091E3
:104080002708309721F00480F581E02D09940895E8
:1040900020912408309125088217930771F090939E
:1040A000250880932408E0912608F091270830978E
:1040B00021F00680F781E02D0994089520912208CF
:1040C000309123088217930771F09093230880930F
:1040D0002208E0912608F0912708309721F000840B
:1040E000F185E02D099408950E94052C0E942A0371
:1040F0000C9472048F929F92AF92BF92CF92DF92F4
:10410000EF92FF920F931F93CF93DF9300D000D0D5
:104110001F92CDB7DEB70E948A0309E218E0F12CA6
:104120008F2D0E941A034C01F801A080B180A826AF
:10413000B926A114B10439F4F3940E5F1F4FF4E0D3
:10414000FF12EECF39C08091F50881FD0E94230354
:10415000E12CCC24C394D12CC6018A219B21892B2C
:1041600021F1E982FA8221E0C60188219921892B77
:1041700009F420E02B830E940E2C8160782F9D8310
:104180008C8349815A816B818D810E9422214981D2
:104190005A816B817C818D810E941412F80180818B
:1041A00091818C259D2591838083E394CC0CDD1C2B
:1041B000FCE0EF12D1CFC0CF8FEF89838A831B82BF
:1041C0000E940E2C8160782F9D838C8349815A81B7
:1041D0006B818D810E9422210E9433120E94AE2E9B
:1041E000109128080E9426201817B9F00E94262056
:1041F000809328080F900F900F900F900F90DF91F1
:10420000CF911F910F91FF90EF90DF90CF90BF90D3
:10421000AF909F908F900C94032C0F900F900F9065
:104220000F900F90DF91CF911F910F91FF90EF9022
:10423000DF90CF90BF90AF909F908F9008950C9497
:1042400073040895CF93DF93CDB7DEB72B970FB6E6
:10425000F894DEBF0FBECDBF4F83588769877A873A
:104260008B87DE01119686E0FD0111928A95E9F7B0
:1042700085E0FE01379601900D928A95E1F749811C
:104280005A816B817C818D819E810E9450282B9662
:104290000FB6F894DEBF0FBECDBFDF91CF9108956A
:1042A000CF93882309F46CC0803B29F487EA92E01D
:1042B000CF910C94F428C82F8CEF8C0F813A20F00A
:1042C00080E58C0F8E3248F48C2F0E94AF30811124
:1042D00057C08C2F0E94192B0CC080E28C0F8830A5
:1042E00058F4C77081E001C0880FCA95EAF70E94B0
:1042F000A22BCF910C94DC2B8BE58C0F833078F4C0
:10430000C53A29F0C63A31F083E890E005C081E86B
:1043100090E002C082E890E0CF910C94482088E5BC
:104320008C0F873168F5C83A89F0C93A91F0CA3ADA
:1043300099F0CB3AA1F0CC3AA9F0CD3AB1F0CE3A0F
:10434000B9F0CF3AC1F080E090E017C082EE90E083
:1043500014C089EE90E011C08AEE90E00EC085EBAB
:1043600090E00BC086EB90E008C083EB90E005C0C6
:1043700084EB90E002C087EB90E0CF910C945E203C
:10438000CF910895882349F19CEF980F913A20F03E
:1043900090E5980F9E3218F40E945B2B0DC090E2BE
:1043A000980F983058F4877091E001C0990F8A9562
:1043B000EAF7892F0E94A82B0C94DC2B9BE5980F21
:1043C000933020F480E090E00C944820885A8731A4
:1043D00020F480E090E00C945E200895882321F082
:1043E0000E94A22B0C94DC2B0895882321F00E94BC
:1043F000A82B0C94DC2B08950E94C22B0E94912BB9
:104400000E94DC2B0E94932F0E94A32E80E090E05C
:104410000E94482080E090E00C945E200E94B22B25
:104420000C94FC21CF93DF9300D000D01F92CDB726
:10443000DEB70E94AC2A292F22952F7030E02C3055
:1044400031054CF42A303105C4F4225031092230B0
:10445000310540F023C02C303105D1F02F3031052B
:10446000B9F01CC0853A28F48430B0F4823028F4C6
:1044700013C090E2980F983078F0883E30F4803E78
:1044800058F48450813A50F407C0803F39F404C096
:1044900093FB882780F903C081E001C080E00F9082
:1044A0000F900F900F900F90DF91CF910895CF93C1
:1044B000882329F08A3020F4CDE1C80F01C0C7E27B
:1044C0008C2F0E9450218C2FCF910C94C221BF922F
:1044D000CF92DF92EF92FF920F931F93CF93DF93D0
:1044E00000D000D000D0CDB7DEB725E0FC01DE0162
:1044F000119601900D922A95E1F7FC0140815181BE
:10450000028163817481258122952F706115710567
:1045100009F434C35F3F19F44F3F09F42FC36C0112
:1045200049835A830B83862F7D836C83602F782F7A
:104530008D812E830E94AC2A182FB92E0E94AB2A9F
:104540000E949B29EB2DE295EF70F0E0E556FF4FBE
:104550002E810C94C2328B2D807F9B2D9F70F92E63
:10456000882319F0F29440EFF422002349F0FF2051
:1045700009F486C28F2D0E94B52B0E94DC2B80C2CD
:10458000812F0E94C221FF2009F4F8C28F2D0E94C2
:10459000BB2B26960FB6F894DEBF0FBECDBFDF91C2
:1045A000CF911F910F91FF90EF90DF90CF90BF9030
:1045B0000C94DC2B8B2D807F9B2D9F70F92E8032ED
:1045C00019F0F29430EFF322112319F0113009F1B0
:1045D0002AC00023B1F08F2D222351F1213041F563
:1045E00026960FB6F894DEBF0FBECDBFDF91CF91F8
:1045F0001F910F91FF90EF90DF90CF90BF900C94A0
:10460000C52B222319F0213009F4B8C20E94C82B0F
:104610002DC00023F1F0233008F0B0C20E949F2B80
:104620008F2129F023C00023F9F0211116C08F2D0E
:1046300026960FB6F894DEBF0FBECDBFDF91CF91A7
:104640001F910F91FF90EF90DF90CF90BF900C944F
:10465000EE21223008F092C209C0F601858180FF68
:104660000FC28F708583E3CF211137C28F2DA1C177
:104670002B2D26952695237030E02115310521F04C
:1046800021303105D1F07AC2002321F0812F9B2DFA
:10469000937002C080E090E026960FB6F894DEBFDB
:1046A0000FBECDBFDF91CF911F910F91FF90EF9083
:1046B000DF90CF90BF900C945E20002351F1E12E4B
:1046C000FB2DF370FF2EE11423E0F20604F185EBDD
:1046D00092E00E94F4288FEF90E7E2E08150904052
:1046E000E040E1F700C00000A895C701807F99274E
:1046F00024E0969587952A95E1F70E945722C701F5
:104700008F7099270E94572280EB92E011C2C70157
:1047100002C080E090E026960FB6F894DEBF0FBE90
:10472000CDBFDF91CF911F910F91FF90EF90DF9060
:10473000CF90BF900C944820812F002381F00E94DD
:10474000B62D0E94A32E163408F018C2E12FF0E017
:10475000EE5CF74F81E08083809331080FC20E94A6
:104760001E2E0E94A32E163408F008C2E12FF0E09E
:10477000EE5CF74F10821092310800C28B2D8370CF
:1047800009F07BC00111FAC1812F8295869587704F
:10479000880F880F912F9F70C92ED12CE12CF12CFE
:1047A000082E04C0CC0CDD1CEE1CFF1C0A94D2F7B2
:1047B00014FF12C04FE050E060E070E004C0440F0E
:1047C000551F661F771F8A95D2F7CB01BA016095F6
:1047D00070958095909503C060E070E0CB012B2D23
:1047E000269526952370422F50E042305105D9F08E
:1047F0004330510569F16C297D298E299F2941306B
:10480000510551F126960FB6F894DEBF0FBECDBF0D
:10481000DF91CF911F910F91FF90EF90DF90CF909C
:10482000BF900C94C0296C297D298E299F2926963A
:104830000FB6F894DEBF0FBECDBFDF91CF911F91B1
:104840000F91FF90EF90DF90CF90BF900C94DA29FA
:104850000E94C029C701B60126960FB6F894DEBFA4
:104860000FBECDBFDF91CF911F910F91FF90EF90C1
:10487000DF90CF90BF900C94A629002319F08B2DC8
:10488000817001C08695882309F478C1812F8295B3
:1048900086958770880F880F912F9F70C92ED12C15
:1048A000E12CF12C082E04C0CC0CDD1CEE1CFF1CEE
:1048B0000A94D2F714FF12C04FE050E060E070E0BD
:1048C00004C0440F551F661F771F8A95D2F7CB018E
:1048D000BA01609570958095909503C060E070E096
:1048E000CB012B2D269526952370422F50E0423088
:1048F0005105D9F04330510569F16C297D298E2984
:104900009F294130510551F126960FB6F894DEBF2C
:104910000FBECDBFDF91CF911F910F91FF90EF9010
:10492000DF90CF90BF900C94872A6C297D298E2927
:104930009F2926960FB6F894DEBF0FBECDBFDF913C
:10494000CF911F910F91FF90EF90DF90CF90BF908C
:104950000C94992A0E94872AC701B60126960FB6A1
:10496000F894DEBF0FBECDBFDF91CF911F910F91A5
:10497000FF90EF90DF90CF90BF900C94752A103F7E
:1049800049F118F4103E48F471C0123F09F443C0D5
:10499000E8F1133F09F444C069C01F708B2D8F717B
:1049A000002321F00E940E2A812F42CE0E942F2A3E
:1049B000812F26960FB6F894DEBF0FBECDBFDF91D4
:1049C000CF911F910F91FF90EF90DF90CF90BF900C
:1049D0000C94F5210023B1F0223008F0CFC08B2DCC
:1049E0008F7126960FB6F894DEBF0FBECDBFDF9154
:1049F000CF911F910F91FF90EF90DF90CF90BF90DC
:104A00000C94542A233008F0B9C0E9CF002329F0D0
:104A10008B2D8F7149C00023D9F38B2D8F7171C0FD
:104A2000002399F08B2D8F7126960FB6F894DEBF78
:104A30000FBECDBFDF91CF911F910F91FF90EF90EF
:104A4000DF90CF90BF900C94F92926960FB6F8947A
:104A5000DEBF0FBECDBFDF91CF911F910F91FF90B1
:104A6000EF90DF90CF90BF900C94F429002369F170
:104A70002223C1F0B3FE04C0F601858180FD12C07F
:104A8000812F26960FB6F894DEBF0FBECDBFDF9103
:104A9000CF911F910F91FF90EF90DF90CF90BF903B
:104AA0000C9450218B2D877026960FB6F894DEBF9C
:104AB0000FBECDBFDF91CF911F910F91FF90EF906F
:104AC000DF90CF90BF900C940E2A2223C1F0B3FE4A
:104AD00004C0F601858180FD12C0812F26960FB695
:104AE000F894DEBF0FBECDBFDF91CF911F910F9124
:104AF000FF90EF90DF90CF90BF900C94C2218B2D50
:104B0000877026960FB6F894DEBF0FBECDBFDF913B
:104B1000CF911F910F91FF90EF90DF90CF90BF90BA
:104B20000C942F2A4B2D4F70612FC6010E94AD02AD
:104B300026960FB6F894DEBF0FBECDBFDF91CF91A2
:104B40001F910F91FF90EF90DF90CF90BF900C944A
:104B5000F4284B2D4F70612FC60126960FB6F8949E
:104B6000DEBF0FBECDBFDF91CF911F910F91FF90A0
:104B7000EF90DF90CF90BF900C94DE0126960FB699
:104B8000F894DEBF0FBECDBFDF91CF911F910F9183
:104B9000FF90EF90DF90CF90BF900895CF93DF9379
:104BA00000D000D01F92CDB7DEB70F900F900F90BE
:104BB0000F900F90DF91CF910895CF93DF9300D0A6
:104BC00000D000D0CDB7DEB726960FB6F894DEBF82
:104BD0000FBECDBFDF91CF9108951F93CF93DF9389
:104BE000C091720816E080917308C81799F0D0E060
:104BF0001C9FF0011D9FF00D1124EC58F74F4081D0
:104C0000518162817381848195810E94DD25219685
:104C1000C770E9CFDF91CF911F9108954091A4080B
:104C20005091A5086091A6087091A7088091A808E6
:104C30009091A9080C94DD258091A90882958F7028
:104C400009F054C08091A608882309F44FC08091D0
:104C50007208A09173086091A4087091A508409112
:104C6000A7085091A808B6E08A1709F43FC090E061
:104C700041155105C1F17F3F11F46F3FA1F1B89F7C
:104C8000F001B99FF00D1124EC58F74F21817213F8
:104C90002AC02081621327C02281211124C02381D0
:104CA00034812417350710F421503109241B350BAA
:104CB000243B3105C0F42091A9082F702061209376
:104CC000A90826E0289FF001299FF00D1124E7583C
:104CD000F74F80818F708061808384EA98E00E9422
:104CE00067220C94ED2501968770BECF0895BF9280
:104CF000CF92DF92EF92FF920F931F93CF93DF93A8
:104D0000CDB7DEB761970FB6F894DEBF0FBECDBF4B
:104D10007C0185E0F701DE011D9601900D928A95D8
:104D2000E1F7D7014C9111965C9111971296DC90A6
:104D3000129713960D911C9114973091A4086091CD
:104D4000A5088091A7089091A808009709F477C159
:104D50006F3F19F43F3F09F472C1B090A608BB2021
:104D600009F4C5C02091A9080817190728F0F8010F
:104D7000E81BF90BCF0104C080959095800F911F1F
:104D8000CC24C394843B910580F0C12C207F09F092
:104D9000CCC0702F198B088B6D2D89890E94CE2570
:104DA00084EA98E00E946722B6C0822F807F09F0D3
:104DB00047C0651314C0341312C0D11010C02F7037
:104DC00020612093A9080E940E2684EA98E00E94A0
:104DD00067228091A908D70115968C932FC00115E1
:104DE000110519F15F3F11F44F3FF9F0CD2CD110AF
:104DF0001CC0809172082091730836E0821709F474
:104E00005CC090E0389FF001399FF00D1124EC5800
:104E1000F74F6181561306C06081461303C062815B
:104E2000611103C001968770E9CFCD2CDD2009F414
:104E300026C18091A90881608093A908C12C1FC157
:104E4000651308C0341306C0D11004C08091A908AE
:104E5000D701C9C04D875E87DF86702F198B088BFD
:104E60006D2D89890E9412228823E9F1DD20D9F174
:104E70002091A908822F82958F7090E0029774F09C
:104E80008091A4089091A50898878F8319861B8725
:104E90000A872C87CE0107960E94672286E0F701D9
:104EA000A4EAB8E001900D928A95E1F70E941C26D1
:104EB0000E940E26CC24C394E2C0702F198B088B5D
:104EC00060E089890E94AC2A292F22952F7030E05A
:104ED000223031050CF0C7C09F7009F0C1C0805E60
:104EE000883008F4CCC0C7010E946722E3CF0817BE
:104EF000190708F456C0F801E81BF90BCF01843BF1
:104F0000910508F453C0C12C702F198B088B6D2D9F
:104F100089890E94CE25E4EAF8E086E0DF011D924F
:104F20008A95E9F70E940E26AAC0651314C03413AF
:104F300012C0D11010C08091A908F7018583C70164
:104F40000E94672286E0E4EAF8E0DF011D928A957C
:104F5000E9F7CB2C94C04D875E87DF86702F198BC5
:104F6000088B6D2D89890E941222882309F4BBCFFA
:104F7000DD2009F4B8CF2091A908822F82958F7087
:104F800090E002970CF48ACF8091A4089091A50834
:104F90009A8389831B821D830C832E83CE01019605
:104FA0007BCF80959095800F911FA9CFCD2CDD20D0
:104FB00009F499CF65132EC034132CC02091A90891
:104FC00020FD1FC0822F82958F70D9F0D7011596D2
:104FD0002C9315978F3049F08F5F982F9295907F83
:104FE000822F8F70892B15968C93C7010E946722A0
:104FF00086E0F701A4EAB8E001900D928A95E1F706
:1050000091CF86E0F701A4EAB8E001900D928A956D
:10501000E1F735C04D875E87DF86702F198B088BCF
:105020006D2D89890E941222811138CF8091A908A3
:1050300081608093A908C7010E94672220C0DD20FB
:1050400009F451CF4D875E87DF86702F198B088B4F
:105050006D2D89890E941222882309F444CF1ECF26
:1050600081113DCF0CC0243031050CF03CCF9F7036
:1050700009F435CFF7019581907F09F030CF8C2D61
:1050800061960FB6F894DEBF0FBECDBFDF91CF9112
:105090001F910F91FF90EF90DF90CF90BF900895F8
:1050A0001F93CF93DF93CDB7DEB72C970FB6F8944D
:1050B000DEBF0FBECDBF4F83588769877A878B8746
:1050C0009C87CE0107960E947726882369F08F81FE
:1050D00098852A853B85232BF1F19F3F09F063C01A
:1050E0008F3F09F060C037C086E0FE013796DE01D1
:1050F000119601900D928A95E1F76F817885EA8586
:10510000FB85309741F17F3F11F46F3F21F12091F2
:10511000730830E0C90101968770992740917208A1
:1051200050E08417950709F447C069837A83FD83AB
:10513000EC8396E0929FD001939FB00D1124AC5860
:10514000B74FFE01319601900D929A95E1F7809349
:1051500073080E94ED2516E0809172089091730803
:105160008917C1F1189FC00111248C58974F0E94D4
:105170007726882379F1E09172081E9FF0011124AF
:10518000EC58F74F40815181628173818481958110
:105190000E94DD258091720890E001968770992722
:1051A00080937208D9CF4F81588569857A858B8520
:1051B0009C850E94DD25CFCF0E940E22109273089D
:1051C00010927208E4EAF8E086E0DF011D928A9509
:1051D000E9F7C1CF2C960FB6F894DEBF0FBECDBF56
:1051E000DF91CF911F910895DF92EF92FF920F937D
:1051F0001F93CF93DF93FC01892B09F48AC0E12C24
:10520000F12CDD24D394EF0121968491853709F4A4
:1052100061C058F4843708F04EC0843008F06AC08A
:105220008130D1F0823071F174C0883709F45DC0EB
:1052300050F4863709F455C0873709F06AC08E2DBF
:105240000E94AF2B54C09CE7980F903708F061C0C4
:105250008F770E94C22150C08F010E5F1F4FFE0149
:10526000849190E2980F983050F48770FD2D01C022
:10527000FF0F8A95EAF78F2F0E94B52B14C00E946A
:10528000502113C08F010E5F1F4FFE01C49180E2B9
:105290008C0F883060F4C7708D2D01C0880FCA95BF
:1052A000EAF70E94BB2B0E94DC2BE80125C08C2F63
:1052B0000E94C221FACF9F012E5F3F4FFE01C49191
:1052C000CC2369F08FEC97E00197F1F700C0000064
:1052D000C150F6CF9F012E5F3F4FFE01F490E901D0
:1052E0000BC00E949F2BE82E07C00E94B22B0E9489
:1052F000DC2B02C00E9450218F2D882341F0EFEC5F
:10530000F7E03197F1F700C000008150F6CFFE01C1
:105310007ACFDF91CF911F910F91FF90EF90DF90A7
:1053200008956093DA087093DB088093DC0890930B
:10533000DD080C94740408956093DE087093DF0810
:105340008093E0089093E1080C94022C0F931F9334
:105350000091DE081091DF082091E0083091E1080B
:10536000602B712B822B932B6093DE087093DF08E8
:105370008093E0089093E1081F910F910C94022C08
:105380000F931F930091DE081091DF082091E00831
:105390003091E10860237123822393236093DE0818
:1053A0007093DF088093E0089093E1081F910F91BC
:1053B0000C94022C0F931F930091DE081091DF08CC
:1053C0002091E0083091E108602771278227932718
:1053D0006093DE087093DF088093E0089093E10803
:1053E0001F910F910C94022C60E070E0CB010C94A3
:1053F00091290F931F9341E050E060E070E08A0133
:105400009B0104C0000F111F221F331F8A95D2F782
:10541000C901B8011F910F910C9491290F931F930B
:1054200041E050E060E070E004C0440F551F661F8B
:10543000771F8A95D2F78091DA089091DB08A091C6
:10544000DC08B091DD088A019B01082B192B2A2B5F
:105450003B2BC901B8011F910F910C9491290F9317
:105460001F9341E050E060E070E004C0440F551F1E
:10547000661F771F8A95D2F7409550956095709575
:105480008091DA089091DB08A091DC08B091DD08EA
:105490008A019B01082319232A233B23C901B80150
:1054A0001F910F910C9491290F931F9341E050E0AD
:1054B00060E070E004C0440F551F661F771F8A9597
:1054C000D2F78091DA089091DB08A091DC08B091C6
:1054D000DD088A019B01082719272A273B27C901D4
:1054E000B8011F910F910C9491290F931F93009174
:1054F000DA081091DB082091DC083091DD08602B80
:10550000712B822B932B1F910F910C9491290F9348
:105510001F930091DA081091DB082091DC0830918C
:10552000DD0860237123822393231F910F910C9434
:1055300091290F931F930091DA081091DB082091B5
:10554000DC083091DD0860277127822793271F919F
:105550000F910C94912908958F929F92AF92BF92D0
:10556000DF92EF92FF920F931F93CF93DF9300D0C0
:1055700000D01F92CDB7DEB78A016623C9F18090B3
:10558000DE089090DF08A090E008B090E1088091DC
:10559000DA089091DB08A091DC08B091DD08882A38
:1055A000992AAA2ABB2A8FE1E82EF12CD501C40141
:1055B0000E2C04C0B695A795979587950A94D2F7B7
:1055C00080FF07C0DE2CB8018E2D0E94A801019734
:1055D00029F481E0E81AF10848F7D12C8CE0189FF3
:1055E000F0011124E00FF11DE655F74FD08209C0FC
:1055F0008CE0189FF0011124E40FF11DE655F74FE0
:10560000D08009831A8369817A818D2D0E94A80137
:105610000F900F900F900F900F90DF91CF911F91EF
:105620000F91FF90EF90DF90BF90AF909F908F9081
:10563000089590911F01992321F0909120019111DB
:1056400009C02091210130912201F90132969FEF8A
:1056500040E01FC0982F9695969596959F3050F5EF
:10566000E0912101F0912201E90FF11D877021E005
:1056700030E0A90102C0440F551F8A95E2F7CA0124
:105680009181892B818308959F3F39F04F5F4E3080
:1056900041F051915813F8CF0DC05111F7CF942F0D
:1056A000F5CF9F3F39F0F901E90FF11D97FDFA950C
:1056B00082830895089590911F01992321F090917C
:1056C0002001911109C02091210130912201F9019D
:1056D0003296205F3F4F1FC0982F969596959695CE
:1056E0009F30F0F4E0912101F0912201E90FF11DCA
:1056F000877021E030E0A90102C0440F551F8A9550
:10570000E2F7CA01809591818923818308953196BA
:10571000E217F30729F090819813F9CF1082F7CFA1
:10572000089581E090E0E0912101F0912201E80FDD
:10573000F91F1082019680319105A9F70895809193
:10574000F40808959091F408892B8093F408089543
:1057500080959091F40889238093F40808958093AC
:10576000F40808951092F40808959091F308892B95
:105770008093F308089580959091F308892380938E
:10578000F30808951092F30808958093E2080895AD
:105790001092E20808958091210190912201FC016C
:1057A00031969C01205F3F4F80E0919191118F5F76
:1057B000E217F307D1F70895E0912101F09122015A
:1057C0008091F4088083E0912101F0912201908181
:1057D0008091F308892B80838091E208882361F00F
:1057E000E0912101F09122019081892B80830E9418
:1057F000CB2B81111092E20880912101909122011E
:105800000C94322008950C941F2182E084BD93E013
:1058100095BD9DE797BD80936E0008952FB7F894CE
:105820008091F6089091F708A091F808B091F908D6
:105830002FBF08952FB7F8946091F6087091F7087C
:105840008091F8089091F9082FBF0895CF92DF92C8
:10585000EF92FF920F931F932FB7F8944091F608A1
:105860005091F7086091F8087091F9082FBF6A010C
:105870007B01EE24FF248C0120E030E0C016D1062D
:10588000E206F30610F4415051099A01281B390B26
:10589000C9011F910F91FF90EF90DF90CF90089575
:1058A000CF92DF92EF92FF920F931F932FB7F8944E
:1058B000C090F608D090F708E090F808F090F9084A
:1058C0002FBF97018601061B170B280B390BC61635
:1058D000D706E806F90618F0C901B80106C0C901E3
:1058E000B80161507109810991091F910F91FF90D1
:1058F000EF90DF90CF90089578941F920F920FB69B
:105900000F9211248F939F93AF93BF938091F608CA
:105910009091F708A091F808B091F9080196A11D9F
:10592000B11D8093F6089093F708A093F808B09300
:10593000F908BF91AF919F918F910F900FBE0F907B
:105940001F9018950E94451CF8942FEF83ED90E36B
:10595000215080409040E1F700C0000087E090EBCC
:10596000DC018093230A9093240AA093250AB09324
:10597000260A9CE088E10FB6F894A8958093600011
:105980000FBE90936000FFCF1F920F920FB60F9241
:1059900011248F939F93AF93BF938091FA08811145
:1059A00013C08091F6089091F708A091F808B09183
:1059B000F9084196A11DB11D8093F6089093F70850
:1059C000A093F808B093F908BF91AF919F918F9180
:1059D0000F900FBE0F901F90189580911A0A843077
:1059E00009F431C00FB6F894A895809160008861E1
:1059F00080936000109260000FBE1092FA0820E4BD
:105A000088E190E00FB6F894A895809360000FBEEF
:105A1000209360000E940D1283B7817F846083BF52
:105A200083B7816083BF7894889583B78E7F83BF67
:105A30000FB6F894A895809160008861809360000B
:105A4000109260000FBE08950C9410122CE0929FEB
:105A5000F0011124E80FF11DE659FE4F9491892FB2
:105A60008F7092959F7008958091FF0880FF0BC002
:105A70006091260185E0689FB001112475956795B6
:105A8000759567952BC081FF09C06091260185E05F
:105A9000689FB00111247595679520C082FF07C0EB
:105AA0006091260185E0689FB001112417C0909194
:105AB00000099923D1F060912501961788F720916C
:105AC000260185E0289F90011124929FA001939FB9
:105AD000500D112470E0CA010E94AE326038710589
