:100000000C9462010C94A9010C94A9010C94A9010F
:100010000C94A9010C94A9010C94A9010C94A901B8
:100020000C94A9010C94A9010C943D1B0C942A1C5E
:100030000C94372B0C94A9010C94A9010C94A901E0
:100040000C94A9010C94A9010C94A9010C94A90188
:100050000C94A9010C94EF2A0C94A9010C94A90109
:100060000C94A9010C9494120C94A9010C94A9016C
:100070000C94A9010C94A9010C94A9010C94A90158
:100080000C94A9010C94A9010C94A9010C94A90148
:100090000C94DE050C94A9010C94A9010C94A901FF
:1000A0000C94A9010C94A9010C94A9017202940268
:1000B000BF02BF02BF02BF02BF02BF02A202AA026A
:1000C000AD02B002B302B60203030503070309033E
:1000D0000B03110316031A031C0321032503290331
:1000E000F108FB08FB08040904092309230937095F
:1000F00037095509550955094A0908120A120C12FF
:100100000E120E12111211121412161218121812C7
:100110001B121B121E121E121E121E12211221125F
:100120002112211224122412921CB51C701DB51C20
:10013000701DFA1C1D1D701D3F1D521D2F212F21EA
:100140005E215E21BC21202232243224422232242C
:10015000432343230624322432241D24014E024E1D
:1001600000014D024D00014B024B00014A024A00C2
:1001700029141A0815171C180C12132A2B04160719
:10018000090A0B0D0E0F3328791D1B0619051110D6
:100190003637387D787B7A657C2C2C7E5051524FD7
:1001A000200010210111220212230313240414251C
:1001B00005152808182909192A0A1A2B0B1B2C0CBB
:1001C0001C2D0D1DB090A0B191A1B292A2B393A32A
:1001D000B494A4B595A5B898A8B999A9BA9AAABB98
:1001E0009BABBC9CACBD9DAD5030405131415232B7
:1001F00042533343543444553545583848593949A6
:100200005A3A4A5B3B4B5C3C4C5D3D4D8060708193
:1002100061718262728363738464748565758969B0
:10022000798A6A7A8B6B7B8C6C7C8D6D7D0000008B
:10023000000101010202030405050607090A0B0C6F
:100240000E0F1112141517191B1D1F212325282A03
:100250002C2F313436393B3E414346494C4F5255A1
:10026000585A5D6164676A6D707376797C7F8386A6
:10027000898C8F9295989B9EA2A5A7AAADB0B3B684
:10028000B9BCBEC1C4C6C9CBCED0D3D5D7DADCDEAB
:10029000E0E2E4E6E8EAEBEDEEF0F1F3F4F5F6F88F
:1002A000F9FAFAFBFCFDFDFEFEFEFFFFFF01620214
:1002B000620162026200012802280001E3011502C6
:1002C0001502E30011241FBECFEFDAE0DEBFCDBF81
:1002D00004B603FE27C08091E4099091E509A0913E
:1002E000E609B091E7098730904BA740B04BD1F4B5
:1002F0001092E4091092E5091092E6091092E709BC
:1003000014BE84B7877F84BF0FB6F894A8958091F8
:100310006000886180936000109260000FBEE0E092
:10032000FEE3099514E0A0E0B1E0ECE4FBE602C0D6
:1003300005900D92AE38B107D9F729E0AEE8B4E0E8
:1003400001C01D92A43EB207E1F70E9447160C942B
:10035000A4350C940000CF93C82FCB010E94992B99
:10036000282F30E080E1989FA0011124422B532BCD
:100370004038510519F480E090E021C09770E92FD2
:10038000F0E088E0C89FE00DF11D112484E0EE0F3D
:10039000FF1F8A95E1F7E20FF31FEE0FFF1FE050FA
:1003A000FC4825913491C9018B7F833E910531F43E
:1003B00080919304882311F020E030E0C901CF91AF
:1003C0000895EF92FF920F931F93CF937C01062F16
:1003D000C42F613029F0A8F0643009F45EC072C007
:1003E000FC018281882309F453C00E94132A81FFF3
:1003F00006C00E94132A80FD02C085E342C089E244
:1004000040C0423009F148F4442389F0413061F59D
:1004100084E38093900488E225C04430F9F0C8F06A
:10042000453011F581E3809390048AE21BC00E945D
:10043000132A82FF02C08DE301C089E280939104F8
:1004400085E38093900410C088E38093900487E351
:1004500009C088E38093900482E504C083E380931D
:1004600090048FE080939104F7018281882381F0CA
:100470000E94132A85FF03C08091900402C08091DE
:10048000910480939204809192040E94CF1F18C01F
:10049000809192040E94412013C0FC018281882334
:1004A00061F00E94132A81FD0DC00E94132A85FD70
:1004B00009C08CE20E948D2903C08CE20E94CF29E2
:1004C0000E94502AF7018281882309F458C010E065
:1004D000F8013297EE30F10508F051C0EA5AFF4FAB
:1004E0000C94A8310E94132A80FF0DC00E948D2019
:1004F000FFE728E381E0F15020408040E1F700C0B1
:1005000000000E94152B8FEF0E94162A0E94502A8D
:100510008FEF0E941C2A0E94502ACF911F910F91A9
:10052000FF90EF900C948D209091930481E08927A7
:100530008093930490E0CF911F910F91FF90EF90E3
:100540000C9477048C2FCF911F910F91FF90EF9017
:100550000C94BE0888E190E00BC083E190E008C0F5
:1005600082E190E005C08CE090E002C085E190E07F
:10057000CF911F910F91FF90EF900C940F16CF9198
:100580001F910F91FF90EF900895662319F061304D
:10059000C1F027C0FC018281882339F00E94812AA2
:1005A00090938F0480938E041CC080918E04909150
:1005B0008F040E94992A893C9105B4F486E691E063
:1005C0000895FC0182818111E9CF80918E04909180
:1005D0008F040E94992A893C91054CF48CE591E0A6
:1005E000089580E090E008958BE691E0089581E61B
:1005F00091E0089590E08C30910590F5FC01EC5964
:10060000FF4F0C94A83183B11DC083B116C083B1D4
:1006100021C086B11FC086B18095881F8827881F9A
:1006200008958CB182FB882780F917C08FB180951F
:10063000817008958FB10EC08FB185FB882780F936
:100640000CC08FB18295817008C08FB18695817082
:1006500004C08CB186FB882780F991E08927089532
:1006600080E00895E82FF0E0EE0FFF1FE553FB4F09
:1006700080819181089508958798579884B1837FE8
:1006800084B908950F931F93CF93DF9385B7806844
:1006900085BF85B7806885BF0E946D055C9A549AB6
:1006A00080E590E00E9412050E9469080E94782A65
:1006B0008FEC97E00197F1F700C000000E94812ABB
:1006C00090939704809396040E943C0380B38C78A7
:1006D00080BB81B3836781BB8EB184648EB98DB1D9
:1006E0008B7B8DB987B18F7387B988B1806C88B9DE
:1006F00084B18F7884B985B1806785B90BEC14E03B
:10070000C8E9D4E0F801119211928F011092CA0445
:100710000E94812A9093C9048093C80480E090E0ED
:10072000FE01E80FF91F108201968C309105C1F788
:100730002C96F4E0C83CDF0729F7DF91CF911F9199
:100740000F910895DF92EF92FF920F931F93CF9333
:10075000DF938091CA0481110AC08091C8049091EE
:10076000C9040E94992A90939504809394048091DF
:10077000940490919504892B09F481C08091CA0456
:10078000811106C00E94812A9093C9048093C804F5
:100790008091CA04813041F028F0823071F08330BA
:1007A00071F003C0879A01C0579A00E010E02CE076
:1007B000D22EEE24E394F12C04C0229AF6CF239A91
:1007C000F4CFC091CA04D0E0802F0E94FA02209199
:1007D0009404DC9EF001DD9EF00D1124E00FF11F6A
:1007E000E856FB4F9081990F982B2150E1F7DC9E42
:1007F000F001DD9EF00D1124E00FF11FE856FB4FD4
:1008000090839701002E02C0220F331F0A94E2F753
:10081000892F8F71833061F028F48823B9F08130FB
:1008200031F506C08F3021F08F3111F08730F9F4A7
:10083000CC0FDD1FC553DB4F88819981A901482367
:100840005923452BA1F4282B392B0FC0CC0FDD1FCA
:10085000C553DB4F88819981A90148235923452B32
:1008600031F02095309528233923398328830F5F71
:100870001F4F0C30110509F0A4CF0E943C0380915A
:10088000CA048F5F843018F48093CA0402C01092A7
:10089000CA0481E0DF91CF911F910F91FF90EF90FB
:1008A000DF900895879A579A84B18C6084B908952F
:1008B000CF93C0E08C2F0E94FA02811104C0CF5F59
:1008C000CC30C1F701C081E0CF910895089508951B
:1008D000089580912E0980FF08C08E73883029F416
:1008E0002F9A5C9881E08093C30508950895089538
:1008F0002BB1342F309523233BB1432B3FB7F894D2
:10090000FC01680F791FE617F707E1F0819198E085
:100910004BB987FF2BB9880F000000C02BB900002E
:1009200000C000C000C000C000C000C000C000C0C7
:1009300000C000C000C000C000C000C000C09A9548
:1009400039F7E1CF3FBF08952AB1242B2AB99B0183
:10095000220F331F620F731F0E94780485E88A9567
:10096000F1F70000089540E40C94A404880F8093EC
:1009700018096093190940931A0988EF8093FC08BD
:100980008091FC088F3F39F040E063E088E199E016
:100990000E948305F5CF0895CF93DF93C82FD62FFC
:1009A00045EC6EEF0E94B6044D2F6DEF8C2FDF915A
:1009B000CF910C94B6040F931F93CF93DF93C82F5E
:1009C0008B0161E070E090E00E94CC04CC0FC093FA
:1009D0001809E80110E008EF1093190980E090E091
:1009E000FE01E80FF91F2081FC01E85EF64F22832B
:1009F000019680319105A1F70093FC088091FC08D5
:100A00008F3F39F040E062E188E199E00E94830580
:100A1000F5CF105F6096103CF9F6DF91CF911F91F2
:100A20000F910895CF93DF93C82F63E00E94CC0409
:100A300040E060E08C2F0E94B60441E060E08C2F23
:100A40000E94B60440EC61E08C2F0E94B6048FE156
:100A50009EE40197F1F700C0000060E08C2F0E9437
:100A6000CC04D0E04FE36D2F8C2F0E94B604DF5FE3
:100A7000D931C1F7DF91CF910895803308F590E027
:100A8000FC01EE0FFF1F8E0F9F1FFC01E056FE4F73
:100A9000E491F0E0ED52FB4F6083FC01EF55FE4F17
:100AA000E491F0E0ED52FB4F4083FC01EE55FE4F28
:100AB000E491F0E0ED52FB4F208381E080939305B9
:100AC000089580919305882339F01092930563ED82
:100AD00074E080E50C94DB040895EBEFF8E01082FD
:100AE0008FEF818312821092B90082E08093B80068
:100AF00085E08093BC0008959091FB089D7F81E084
:100B000009F080E008951F93CF93DF9300D01F92E8
:100B1000CDB7DEB7182F653110F081E048C04A83A9
:100B200069839B830E947C054A8169819B81811135
:100B300005C082E08A95F1F700C0F1CF4093FD082F
:100B4000E12FF92FA0E0B9E070E0CD01805099408D
:100B5000861797071CF481918D93F7CF70932D0919
:100B600060932C091092FF081092FE088091FB08F8
:100B70008230B1F481E08093FB088091FE0890916F
:100B8000FF089C012F5F3F4F3093FF082093FE0822
:100B9000FC01E050F74F80818093BB0085E804C0E2
:100BA00081E08093FB0885EA8093BC0080E00F9091
:100BB0000F900F90DF91CF911F9108951F920F9288
:100BC0000FB60F9211242F933F934F938F939F93C0
:100BD000EF93FF938091B900887F883239F180F4D8
:100BE000803109F49FC030F4882309F49FC0883015
:100BF000E9F0A3C08831B9F0803209F480C09DC00B
:100C0000803491F138F4803309F479C0883309F4E1
:100C100076C093C08035A9F1883509F455C0883471
:100C200009F08BC06CC083E08093FB082091FE0824
:100C30003091FF0880912C0990912D0928173907D0
:100C40000CF053C08091FE089091FF089C012F5F2B
:100C50003F4F3093FF082093FE08FC01E050F74F10
:100C600080818093BB002BC084E08093FB0880913F
:100C700014099091150901972091160930911709CF
:100C800016C080911609909117099C012F5F3F4F64
:100C900030931709209316094091BB00FC01E951DC
:100CA000F74F4083809114099091150901972817F7
:100CB00039072CF488EF8093FC0885EC3CC088EF62
:100CC0008093FC0885E837C0809116099091170938
:100CD0009C012F5F3F4F30931709209316092091F5
:100CE000BB00FC01E951F74F20838091FD08882368
:100CF00011F08FEF0BC01092FB088FEF10C08091A6
:100D0000FD08882339F08091B900887F8093FC0822
:100D100085EA11C01092FB088091B900887F80930A
:100D2000FC0808C082E08093FB0807C01092FC0812
:100D30001092FB0885E98093BC00FF91EF919F9191
:100D40008F914F913F912F910F900FBE0F901F9059
:100D50001895CF93DF9300D000D01F92CDB7DEB7A8
:100D6000FA0193E0899F90011124232F330F330B55
:100D70001C821982982F990F890F8150869FC0017C
:100D800011249D839A83691B6B83DE01A20FB31F1D
:100D900013968C918183DE01A20FB31F12968C9162
:100DA0008083DE01A20FB31F11968C9182830F9076
:100DB0000F900F900F900F90DF91CF9108950F93A8
:100DC0001F93CF93C82FE62F862F90E08C0F911D95
:100DD000840F911D83329240D4F0A5E0CA9FC001D8
:100DE000112407E010E0B8010E949431C62FB5E04D
:100DF000EB9FC0011124B8010E949431E62FF5E069
:100E00004F9FC0011124B8010E949431462FD9018F
:100E10001196CC931197EC9312964C93CF911F910E
:100E20000F9108950F931F93CF93DF9300D000D0BD
:100E30001F92CDB7DEB770E0869FF001879FF00D5F
:100E40001124EF2FFF27042F10E0E09FD001E19F36
:100E5000B00DF09FB00D1124E0E0F1E0E61BF70BC0
:100E6000E09FB001E19F700DF09F700D11247C8315
:100E70007983872F8B0F8D838A834B1B4B83892F1D
:100E800090E063E070E00E948031DE01A80FB91F9E
:100E9000FD0111964C91628183810F900F900F900C
:100EA0000F900F90DF91CF911F910F910C94DF065F
:100EB0008AE090E00C94CA34AB01BC018AE090E077
:100EC0000C94E834EEE2F9E089E1808380EA8093D3
:100ED0002F098FEF8283838360912E0970912F09F0
:100EE00080913009909131090C945C078DE8E8E419
:100EF000F9E0DF011D928A95E9F782E1E6E3F9E086
:100F0000DF011D928A95E9F708951F93CF93DF9330
:100F100080912E0980FF0E947607CAE4D9E010E094
:100F2000DE011297FE01319728814C916081812F5B
:100F30000E943D051F5F23961F3291F766E070E027
:100F400086E399E0DF91CF911F910C94B304209137
:100F50002E0920FF1DC025ED39E00E941207A8E4EC
:100F6000B9E0E6E3F9E080E02091D5093091D609B7
:100F70004091D709863018F42083318342832D9322
:100F80003D934D938F5F33968F3271F70C948507A5
:100F900008950F931F93CF93DF9320912E0920FF85
:100FA0002FC0142F062FC92FD82F2E73223011F4E3
:100FB0000E94A7079D2F9295990F990F907C809181
:100FC0002E098F73892B80932E09C295CC0FCC0FDD
:100FD000C07CD695D695CD2BC0932F0900933009B0
:100FE0001093310960912E0970912F098091300979
:100FF00090913109DF91CF911F910F910C945C0773
:10100000DF91CF911F910F910895CF9390912E0969
:1010100090FF5DC0917C811102C0906308C089314E
:1010200010F0926004C0282F2F71220F922B909302
:101030002E09C82F60912E0970912F0980913009D7
:10104000909131090E945C0780912E0986958F71DD
:1010500011F02F9A5C9880912E09982F9E739230F0
:10106000B9F4829586958695837090912F09292FE2
:10107000220F220F4091310960913009822B929505
:101080009695969593700E94C907CF910C94850709
:10109000C23051F48FE2E5E0F6E0DF011D928A955F
:1010A000E9F7CF910C947607C43059F46091B908F0
:1010B0007091BA088091BB089091BC08CF910C94B4
:1010C000690487EF8C0F823010F41092C405CF9121
:1010D00008950E944430811104C00E942A300E9469
:1010E00062070E94580760932E0970932F0980931E
:1010F0003009909331096E736E3361F40E94620778
:101100000E94580760932E0970932F09809330092D
:1011100090933109279A549A80912E0980FF04C038
:1011200086958F710C9405080E9485072F985C9A0C
:10113000089580912E09982F909590FB80F98093C7
:101140002E0960912E0970912F098091300990919C
:1011500031090E945C0780912E0980FF04C08695AA
:101160008F710C9405080E9476070E948507809174
:10117000DB09843011F02F985C9A0895CF92DF92AA
:10118000EF92FF920F931F93CF93DF93C82ED091CE
:101190002E09D295D695D695D370D0902F098D2D46
:1011A000880F880FD82BD294D694D69493E0D92266
:1011B000E090300940913109042FC0FE02C0CFEF0A
:1011C00001C0C1E00E94132A81FDC1954C2D50E061
:1011D0004D30510508F069C0FA01E059FF4F0C94F9
:1011E000A831DF91CF911F910F91FF90EF90DF9089
:1011F000CF900C94990890912E099695892F8F7114
:101200008C0F0E94050851C020912E092295269529
:101210002695237030912F09432F440F440F842FBC
:10122000822B932F92959695969593709D5F24E1CE
:10123000C202800D911D112460E073E00E94943180
:10124000D82FD92E35C08091300991E1C9027001A3
:101250001124E80EF11C2FEFE216F10409F01CF442
:10126000F7FC34C025C0EE24EA94F12C21C0809113
:10127000310991E1C902A00111248A01080F111D51
:101280000F3F110509F01CF417FD23C011C00FEF2B
:1012900010E00EC09091CE0581E089278093CE05A5
:1012A000811106C00E94670403C022E02C15A0F43F
:1012B000402F6E2D8D2F9D2DDF91CF911F910F917E
:1012C000FF90EF90DF90CF900C94C907E12CF12CA8
:1012D000EFCF00E010E0ECCFDF91CF911F910F91A5
:1012E000FF90EF90DF90CF900895CF93DF93C82FBA
:1012F000D62F262F30E0280F311D240F311D233229
:101300003240D4F025E0829FC001112427E030E074
:10131000B9010E949431C62F55E0D59FC001112418
:10132000B9010E949431D62F55E0459FC001112488
:10133000B9010E949431462F20E030E0F901EA5CC7
:10134000F64FC183D08342832D5F3F4F2231310559
:10135000A9F720E030E0F901E85BF64FC183D083C4
:1013600042832D5F3F4F2D383105A9F7DF91CF9193
:101370000C948507BF92CF92DF92EF92FF920F936A
:101380001F93CF93DF93CDB7DEB729970FB6F894AD
:10139000DEBF0FBECDBFE22F2983F32F3A834B83ED
:1013A0005C836D837E838F8398879F010B811C8173
:1013B000203309F061C0313099F4D8018C9129961D
:1013C0000FB6F894DEBF0FBECDBFDF91CF911F9156
:1013D0000F91FF90EF90DF90CF90BF900C94BE08DC
:1013E000323099F4F801808129960FB6F894DEBF67
:1013F0000FBECDBFDF91CF911F910F91FF90EF9066
:10140000DF90CF90BF900C9405083330C9F4D80119
:1014100012964C91129711966C9111978C91299676
:101420000FB6F894DEBF0FBECDBFDF91CF911F91F5
:101430000F91FF90EF90DF90CF90BF900C947509C3
:10144000343009F06FC0F80180818F3208F06AC033
:1014500023814281618129960FB6F894DEBF0FBEC9
:10146000CDBFDF91CF911F910F91FF90EF90DF9053
:10147000CF90BF900C943D05213309F053C0332326
:1014800009F450C066E271E085EA95E039870E9470
:101490002232B02E780105EA15E085E3C82E81E0FE
:1014A000D82E39858E2D8B198317F8F4F801019009
:1014B0000020E9F73197E55AF540E093A405D701FC
:1014C0008D917D011F928F93DF92CF92FF27EB5575
:1014D000FA4FFF93EF9339870E9429320F900F90B4
:1014E0000F900F900F900F90DCCF69E372E085EAC8
:1014F00095E00E94173285EA95E00E94071384E682
:1015000090E029960FB6F894DEBF0FBECDBFDF91F5
:10151000CF911F910F91FF90EF90DF90CF90BF90F0
:101520000C94CC1229960FB6F894DEBF0FBECDBF37
:10153000DF91CF911F910F91FF90EF90DF90CF90AF
:10154000BF9008950F931F93CF9390912E0990FF12
:101550005DC0C62F9E739430E9F42F9902C02F9A74
:101560005C989CE0899FF0011124EC0FF11DE25C76
:10157000FE4F008110E0F801EB5FF94F8EE78083AA
:101580000E94FA31F801EB52FA4F60E071E00E94DC
:101590009431808380912E098E738630B9F52F990E
:1015A00002C02F9A5C982091C505822F90E0019689
:1015B00083709927FC01E653FA4F30813E3F7CF45B
:1015C000FC01EA53FA4F80818E304CF081E0820FAB
:1015D000843018F48093C50502C01092C50580912F
:1015E000C50590E0FC01EA53FA4FC083FC01E653C5
:1015F000FA4FC0830E94FA31E091C505F0E0EB524A
:10160000FA4F60E071E00E9494318083CF911F9186
:101610000F910895CF93C82FE091A305F0E0E35D0B
:10162000FD4F449180912E09829586958695837011
:1016300090912F09292F220F220F60913009822BC0
:1016400092959695969593700E94A7073091070101
:101650002091A305C39F200D11242093A3052C17CF
:1016600038F08C2F90E0820F911D8F3791051CF080
:10167000319530930701CF910895DF92EF92FF9259
:101680000F931F93CF93DF9325EDE22E25E0F22EEB
:1016900008E419E0C5E0D6E080E0DC2E9FE2D90E38
:1016A000E881E23068F0F0E0E35DFD4F6491A8016D
:1016B000F70180810E94A90688818250888381E099
:1016C0002196FFEFEF1AFF0A0D5F1F4FDC12E8CFE4
:1016D00098E3E92E91E0F92E06E319E0CFECD5E08E
:1016E000DC2EE6E0DE0EE881E23068F0F0E0E35D5B
:1016F000FD4F6491A801F70180810E94A9068881AD
:101700008250888381E02196FFEFEF1AFF0A0D5F78
:101710001F4FDC12E8CF81110BC080912E098E7310
:10172000843031F48091DB09843011F02F985C9A79
:10173000DF91CF911F910F91FF90EF90DF900C946C
:101740008507DF92EF92FF920F931F93CF93DF9362
:101750008091A2058F5F823018F48093A20592C019
:101760001092A2050E94760705ED15E0B6ECEB2E6F
:10177000B5E0FB2ECAECD5E0DC2E84E0D80E45EDBA
:1017800059E06FEFF80181918F010E94A90628812D
:101790002E3F3CF140E050E0622F022E000C770B10
:1017A00027FD18C0FA01E60FF71FE25CFE4F8081AB
:1017B00090E0FC01EE0FFF1F8E0F9F1FFC01E85B06
:1017C000F64F8091D5099091D609A091D7098083D1
:1017D0009183A283445F5F4F4033510509F7215045
:1017E0002883F70120812E3044F540E050E0622F3D
:1017F000022E000C770B2C30C4F4FA01E60FF71F11
:10180000E25CFE4F808190E0FC01EE0FFF1F8E0F27
:101810009F1FFC01E85BF64F8091D5099091D60996
:10182000A091D70980839183A283445F5F4F4033A7
:10183000510509F72F5FF70120832196FFEFEF1A7B
:10184000FF0ADC129CCF8091C50590E0FC01E653B5
:10185000FA4F20812E3F6CF4FC01EA53FA4F80814D
:101860008E303CF08091DB09843019F02F985C9A1F
:1018700009C0DF91CF911F910F91FF90EF90DF9002
:101880000C948507DF91CF911F910F91FF90EF90FE
:10189000DF900895EF92FF920F931F93CF93DF9302
:1018A0000E9476078091C305882309F483C01092B3
:1018B000C3058091B9089091BA08A091BB08B09176
:1018C000BC0827E030E0022FAC01BD01022E04C0AD
:1018D00076956795579547950A94D2F7452B462BF1
:1018E000472B51F0273061F425ED39E046EB66EBEC
:1018F00086EB0E94DF0611C02150310921F752C04A
:10190000C901019725ED39E04FEF6FEF9695982FBC
:101910008827979587950E9412079EE3E92E91E00C
:10192000F92E10E0C0E0D0E06C2F712F802F0E94C4
:10193000AB010297B0F0F701EC0FFD1F208130E002
:10194000F901EE0FFF1F2E0F3F1FF901E85BF64F65
:101950008091D5099091D609A091D7098083918370
:10196000A2832196CC30D105F9F61F5F8CE0E80EFA
:10197000F11C1430B9F6E6E3F9E08091D5099091B5
:10198000D609A091D70981939193A19389E0E83476
:10199000F80799F7DF91CF911F910F91FF90EF908A
:1019A0000C9485070E9485078091DB09843011F033
:1019B0002F985C9ADF91CF911F910F91FF90EF903C
:1019C0000895CF93DF932091A1052F5F422F50E020
:1019D00090E0880F991F841795071CF02093A105AC
:1019E0002CC01092A1050E94FA31EC010E94FA313C
:1019F0006CE070E00E949431282FCE0164E070E02A
:101A00000E9494319CE0899FF0011124E20FF11DA6
:101A1000E25CFE4FC081D0E0FE01EB5FF94F8081B8
:101A2000823058F48EE780830E94FA31CB52DA4F2D
:101A300060E071E00E9494318883DF91CF910C9433
:101A40003D0BDF92EF92FF920F931F93CF93DF93A3
:101A50009091A0059F5F9093A005891708F086C01C
:101A60000E9476070E94FA316CE070E00E94943187
:101A7000EC01DD27FE01EB5FF94F808181110DC084
:101A800085E080830E94FA31CB52DA4F60E071E04A
:101A90000E94943188831092A00505E016E0C0E012
:101AA000D0E054E0E52E65E0D62E7CE0F72EF8017C
:101AB0008081882309F44AC045ED59E06FEFFE01AB
:101AC000EB52FA4F80810E94A906F80120818E2DE9
:101AD000821B8430D0F4FE01F89EE00DF11D11242C
:101AE000E25CFE4F808190E0FC01EE0FFF1F8E0F45
:101AF0009F1FFC01E85BF64F8091D5099091D609B4
:101B0000A091D70980839183A2838D2D821B84307D
:101B1000D0F4FE01F89EE00DF11D1124E25CFE4FB1
:101B2000808190E0FC01EE0FFF1F8E0F9F1FFC01D4
:101B3000E85BF64F8091D5099091D609A091D7091D
:101B400080839183A2832150F801208321960F5F27
:101B50001F4FCC30D10509F0AACFDF91CF911F9153
:101B60000F91FF90EF90DF900C948507DF91CF915C
:101B70001F910F91FF90EF90DF9008959F92AF9289
:101B8000BF92CF92DF92EF92FF920F931F93CF936A
:101B9000DF9380919F058F5F80939F05882309F4D1
:101BA000B6C08DE8E8E4F9E0DF011D928A95E9F717
:101BB0008091C405882341F080919E05882369F1B6
:101BC000815080939E05A3C084E08093C40584E186
:101BD00080939E0505ED15E0C5E0D6E06EE0962EFB
:101BE000A12CBB24B394E6E3CE2EE9E0DE2EF2E195
:101BF000EF2EFC2EB4E0FB0E99920E94FA31B50153
:101C00000E949431F80181938F01D601EE2D1D922F
:101C1000EA95E9F7FC12F0CFCFCF45E0E42E46E09D
:101C2000F42EC0E0D0E05CE0D52E04E010E0CC2E35
:101C3000D7018C918F3018F01092C40568C08823AA
:101C400009F450C045ED59E06FEFFE01EB52FA4F39
:101C500080810E94A9062CE0DC9EA001DD9E500D33
:101C60001124F7018081F22FF81B8F2FFC30C0F474
:101C7000FA01E80FF11DE25CFE4F808190E0FC016B
:101C8000EE0FFF1F8E0F9F1FFC01E85BF64F809148
:101C9000D5099091D609A091D70980839183A28319
:101CA0002F5F2F30F1F60E94FA315C010E94FA3169
:101CB0009C01C501B8010E949431C81699F0C90170
:101CC000B8010E949431C81669F0D7018C918150F7
:101CD0008C93811107C08091C405882319F081502D
:101CE0008093C4052196BFEFEB1AFB0AC430D105DF
:101CF00009F09DCFDF91CF911F910F91FF90EF9051
:101D0000DF90CF90BF90AF909F900C948507DF91AC
:101D1000CF911F910F91FF90EF90DF90CF90BF90E8
:101D2000AF909F9008952F923F924F925F926F9243
:101D30007F928F929F92AF92BF92CF92DF92EF925B
:101D4000FF920F931F93CF93DF93CDB7DEB72A9700
:101D50000FB6F894DEBF0FBECDBF80919D058F5F9B
:101D600080939D05882309F429C18091C4058823A7
:101D7000E9F10E94FA3104E010E0B8010E949431C8
:101D80004C010E94FA31B8010E9494315C010E941A
:101D9000FA31B8010E9494316C010E94FA31B80105
:101DA0000E94943106EC15E0BEE36B2EB1E07B2E71
:101DB0002AEC35E03A872987E12CF12C412C23E0ED
:101DC000522EF401FF27FA83E983950133273C83E0
:101DD0002B83FC01FF27FE83ED833CE0832E9601DD
:101DE000332738872F834BE0242E15C084E080935F
:101DF000C4051092CA058BE08093C6051092CB05EE
:101E00008093C7051092CC058093C8051092CD052C
:101E10008093C905AECF89859A858A5C95406C010F
:101E2000E985FA853080F80190809314ECF420E085
:101E300030E0F301E20FF31F818190E0FC01EE0F2F
:101E4000FF1F8E0F9F1FFC01E85BF64F108211826F
:101E500012822F5F3F4F2A30310559F7E985FA8505
:101E60001082F80120827DC020912E0922952695AE
:101E70002695237030912F09432F440F440F842F50
:101E8000822B932F92959695969593708E0D9F1D0C
:101E9000B2010E9494315C0129813A81C216D306B5
:101EA00061F18F819885C816D90639F137FC25C0B4
:101EB0008C9CF0018D9CF00D1124E30DF11D37FC7D
:101EC000FA95E25CFE4F208130E0C901880F991F2E
:101ED000280F391F285B364F4FEF60913009C5013D
:101EE0000E94120781E0830DE985FA8580838F3097
:101EF00024F01092C4050E9476072B813C81C21603
:101F0000D30679F18D819E81C816D90651F1191435
:101F100044F5C501845D9E4F8C9CF0018D9CF00DB5
:101F20001124E90DF11D97FCFA95E25CFE4F20812A
:101F300030E0A901440F551F240F351F285B364F91
:101F4000B2010E9480314FEF609130090E94120768
:101F50009A94F8019082911004C01092C4050E94D6
:101F6000760729853A852F5F3F4F3A8729870F5F8C
:101F70001F4F30E8E30EF11C8CE0680E711CE11479
:101F800092E0F90609F047CF2A960FB6F894DEBF23
:101F90000FBECDBFDF91CF911F910F91FF90EF90BA
:101FA000DF90CF90BF90AF909F908F907F906F9079
:101FB0005F904F903F902F900C9485072A960FB614
:101FC000F894DEBF0FBECDBFDF91CF911F910F916F
:101FD000FF90EF90DF90CF90BF90AF909F908F9049
:101FE0007F906F905F904F903F902F900895CF9388
:101FF000C82FEEE2F9E04381628180919B059091C8
:102000009C050E94A70720919B0530919C05C90162
:1020100043E0C49F800D911D112460E073E00E9495
:10202000803190939C0580939B05CF910895AF924A
:10203000BF92CF92DF92EF92FF920F931F93CF93B5
:10204000DF93D82FC82FC6956EE3C62E61E0D62E3B
:10205000760100E010E0A12C73E0B72E8091990585
:1020600090919A05800F911FB5010E94803125ED56
:1020700039E040913109609130090E94120780E0F7
:1020800090E0F701E80FF91F208130E0F901EE0F31
:10209000FF1F2E0F3F1FF901E85BF64F2091D50976
:1020A0003091D6094091D7092083318342830C9621
:1020B0008033910531F78E2D8C19C9F48091D509A3
:1020C0009091D609A091D70980933609909337094A
:1020D000A09338098093390990933A09A0933B095A
:1020E00080933C0990933D09A0933E091AC08B3020
:1020F000C1F48091D5099091D609A091D709809318
:102100003F0990934009A09341098093420990931D
:102110004309A09344098093450990934609A093ED
:102120004709005D1F4F8FEFE81AF80A003482E07C
:10213000180709F093CF0E948507209199053091E7
:102140009A054C2F50E0D0FF09C0CA0144E0880F27
:10215000991F4A95E1F7820F931F09C0C9019D5F3E
:1021600024E0440F551F2A95E1F7841B950B60E08E
:1021700073E00E94803190939A0580939905DF91D6
:10218000CF911F910F91FF90EF90DF90CF90BF9074
:10219000AF900895CF92DF92EF92FF920F931F932B
:1021A000CF93DF93909198059F5F282F269529174D
:1021B00058F090939805DF91CF911F910F91FF9068
:1021C000EF90DF90CF900895C82F109298050E944D
:1021D0007607C0FF03C0FF24FA9402C0FF24F394E3
:1021E00056E0D52EE12C00E310E0C0E0D3E0C09033
:1021F000060197013203C00111248C0D911DC7FC0B
:102200009A95C096B8010E949431FC01E25CFE4FA1
:10221000208130E0C901880F991F280F391F285BE2
:10222000364F80912E098295869586958370909180
:102230002F09692F660F660F462F482B592F52958D
:10224000569556955370CA0162E3E69E800D911D26
:102250001124BE010E9494314091310960913009EE
:102260000E941207E394DA94D110C1CF8C2D8F0D08
:1022700081331CF01092060104C087FD80E3809337
:102280000601DF91CF911F910F91FF90EF90DF90AA
:10229000CF900C948507CF92DF92EF9290919705A3
:1022A0009F5F891718F09093970598C01092970533
:1022B0000E94760740E050E080E020910501BA01DD
:1022C000620F711D27FD7A956C30710508F058C0BA
:1022D000240F60E070E0A22FB0E0FB01EA0FFB1FCB
:1022E000E25CFE4F808190E0FC01EE0FFF1F8E0F3D
:1022F0009F1FFC01E85BF64FC090D509D090D6092E
:10230000E090D709C082D182E282645F7F4F603360
:10231000710519F7211119C08091D5099091D6093D
:10232000A091D7098093360990933709A093380973
:102330008093390990933A09A0933B0980933C0913
:1023400090933D09A0933E091AC02B30C1F48091AF
:10235000D5099091D609A091D70980933F09909310
:102360004009A09341098093420990934309A093A7
:1023700044098093450990934609A093470981E059
:102380004F5F5F4F4630510509F097CF81110E9492
:1023900085079091040180910501890F80930501C3
:1023A0008B5F8131D8F091959093040180919505D0
:1023B00090919605889660E073E00E94803190933A
:1023C00096058093950525ED39E04091310960919E
:1023D0003009EF90DF90CF900C941207EF90DF90D0
:1023E000CF90089580912E0980FF31C02F9B2FC080
:1023F0009091CE0591112BC086958F71E82FF0E05A
:102400003297E731F10518F5E358FF4F0C94A831E6
:102410000C943D0B0C94A10B0C944A0C84500C941E
:10242000E10C86500C94210D0C94BE0D0C94930E6F
:1024300089500C940A0B8B500C94F70F8D500C9410
:10244000171083510C94CA1087510C944B110895A6
:102450002F985C9A08951092FB080C946908CF930A
:10246000DF9300D000D01F92CDB7DEB7662321F0F6
:10247000642F852F0E94A20A0E948D2A6093DD0797
:102480007093DE078093DF079093E0070F900F9023
:102490000F900F900F90DF91CF9108952F9B0EC05A
:1024A000809194058F5F813518F48093940506C060
:1024B000109294050E94F2110E9461050C9446143A
:1024C000F8948CE08093CC001092CD00E9ECF0E021
:1024D000808180698083808188608083EAECF0E07D
:1024E00080818083E8ECF0E0808182608083789452
:1024F00008952091350680913606821759F030E014
:10250000F901E95CF94F80812F5F3F4F2093350639
:1025100090E008958FEF9FEF08959091C80095FF88
:10252000FCCF8093CE0008951F920F920FB60F92AA
:1025300011242F933F934F938F939F93EF93FF9388
:102540008091360690E09C012F5F3F4F4091350609
:10255000421741F03091CE00FC01E95CF94F308325
:1025600020933606FF91EF919F918F914F913F916C
:102570002F910F900FBE0F901F9018958091CA0752
:102580000895089585B7806885BF85B7806885BF41
:10259000559A5D980C946012EF92FF920F931F93DF
:1025A000CF938C010E94812A7C01C0E0C7010E9468
:1025B000992A80179107F0F40E9479129C012F3F0D
:1025C0008FEF3807A9F02D3099F04C2F50E02A30CA
:1025D00051F4C23030F0FA01EA5CF84F80818F3458
:1025E00049F02FE530E0FA01E85CF84F2083CF5F37
:1025F000CD30E0F2EC2FF0E0E85CF84F108288E399
:1026000097E0CF911F910F91FF90EF900895CF9396
:10261000DF93EC018991882319F00E948D12FACF83
:10262000DF91CF910895CF939C012F56310922302D
:10263000310528F02A5731092230310588F42091DC
:10264000CD073091CE07232B31F429E732E03093C8
:10265000CE072093CD079093CC078093CB0704C07F
:102660001092CE071092CD072091D007211130C0D3
:102670002091CF0721112CC0C1E0C093CF079F93B9
:102680008F938EE691E09F938F938AEA97E09F93D2
:102690008F930E9429328AEA97E00E94071384E60A
:1026A00090E00E94CC1242E050E066E871E00E94A7
:1026B0000A320F900F900F900F900F900F90892B70
:1026C00029F41092D0071092CF0702C0C093D00710
:1026D000CF9108951F93CF93DF93EC018091D007A2
:1026E00081114DC08091CF07811149C011E0109335
:1026F000CF078C81282F082E000C330B3F938F932C
:102700008B81282F082E000C330B3F938F938A81E7
:10271000282F082E000C330B3F938F938981282F8D
:10272000082E000C330B3F938F9389E891E09F9321
:102730008F9382E897E09F938F930E94293282E8DB
:1027400097E00E94071384E690E00E94CC1242E0DA
:1027500050E066E871E00E940A322DB73EB7245F70
:102760003F4F0FB6F8943EBF0FBE2DBF892B29F403
:102770001092D0071092CF0702C01093D00780911B
:10278000D007811131C08091CF0781112DC011E098
:102790001093CF0788811F928F9389EA91E09F93CE
:1027A0008F9382E897E09F938F930E94293282E86B
:1027B00097E00E94071384E690E00E94CC1242E06A
:1027C00050E066E871E00E940A320F900F900F907F
:1027D0000F900F900F90892B29F41092D007109230
:1027E000CF0702C01093D007DF91CF911F910895BA
:1027F000CF932091D007211147C02091CF072111FD
:1028000043C0FC01C1E0C093CF0787811F928F9323
:1028100086811F928F9385811F928F9384811F924F
:102820008F9383811F928F9382811F928F938081D8
:102830001F928F9382EC91E09F938F9386E497E0B1
:102840009F938F930E94293286E497E00E9407139A
:1028500084E690E00E94CC1245E050E06CEF71E01D
:102860000E940A322DB73EB72E5E3F4F0FB6F89446
:102870003EBF0FBE2DBF892B19F4C093D00704C0F3
:102880001092D0071092CF07CF9108958091CD0775
:102890009091CE070097F1F08230910530F00197CA
:1028A0009093CE078093CD070895209137072F5F2F
:1028B000209337078091CB079091CC0730E043EF0E
:1028C00050E0481B590B2417350720F010923707AA
:1028D0000C94131308950E948D2A6093DD07709362
:1028E000DE078093DF079093E0070895CF93DF938F
:1028F0005D9954C18091E7078823D1F084E690E088
:102900000E94CC12EC0142E050E066E871E00E94C7
:102910000A32892B69F045E050E06CEF71E0CE019E
:102920000E940A32892B21F01092E7071092CF07FC
:102930008091E70781115CC08091E1079091E207E7
:102940000E94992A8938934108F452C08091CF0798
:1029500081114EC0C1E0C093CF070E94812A90939D
:10296000E2078093E10782E092E00E94071384E689
:1029700090E00E94CC12FC018081813349F4809167
:10298000E607811102C0C093E6071092CF0713C07B
:10299000803379F48091E6078823B9F31092E60733
:1029A0000E94812A9093E5078093E4071092E30741
:1029B000ECCFC093E7078091E807811119C080919F
:1029C000E607811115C08091E4079091E5070E9408
:1029D000992A81369A4E60F08091DB09843031F07B
:1029E0005D9A81E08093D3078093D2071092E3072A
:1029F0008091DB09843089F18091D107811116C063
:102A00008091D307811112C06091DD077091DE07BC
:102A10008091DF079091E0070E94C32A69397A43C9
:102A20008105910518F081E08093D3078091D30749
:102A3000882399F06091DD077091DE078091DF07B0
:102A40009091E0070E94C32A61387E4E864391052B
:102A500020F081E08093D2075D9A8091D3078111A5
:102A600053C08091D9079091DA070E94992A89383A
:102A7000934108F449C08091CF07811145C08091EE
:102A8000E707811141C0C1E0C093CF070E94812AAE
:102A90009093DA078093D90781E192E00E940713AF
:102AA00084E690E00E94CC12FC01218180ED820F2F
:102AB0008A3018F0C093E70725C062816A3310F5A9
:102AC000408150E04053510984E6849FF001859F86
:102AD000F00D112430E0205331094AE0429FC0013B
:102AE000439F900D11248E0F9F1F860F911D23E091
:102AF000880F991F2A95E1F78A5492409093D8073E
:102B00008093D7071092CF078091D0078823E1F0F8
:102B10008DE192E00E94071384E690E00E94CC12BF
:102B200042E050E066E871E00E940A32892B61F4CD
:102B300081E292E00E94071384E690E00E94CC12AA
:102B40001092D0071092CF078091D607882351F0BA
:102B50001092D6078BE392E00E94071384E690E080
:102B60000E94CC128091D507882351F01092D5078E
:102B700086E592E00E94071384E690E00E94CC1262
:102B80008091D407882351F01092D40781E792E016
:102B90000E94071384E690E00E94CC128091E8071F
:102BA00081111EC00E94A01E8850914059F00E94C1
:102BB0008D2080911D018093DC0710921D0188E01B
:102BC00091E01EC08091DB07811126C08091DB0956
:102BD000843011F581E08093E8078093DB071CC007
:102BE0000E94A01E8251914079F081E08093DB0722
:102BF0000E948D208091DC0780931D0182E191E08D
:102C0000DF91CF910C949B1E8091DB09843021F0E1
:102C10001092E8071092DB07DF91CF91089582317F
:102C200061F140F4853099F08C3079F581E0809342
:102C3000D5070895853129F18831B9F0833129F517
:102C40009091D10781E089278093D10714C00E9419
:102C50008D202FEF89E698E1215080409040E1F7E8
:102C600000C000000E94152B06C09091E80781E08B
:102C700089278093E80781E0089581E08093D60753
:102C8000089581E08093D407089580E00895CF935C
:102C9000DF9384B7877F84BF0FB6F894A89580919F
:102CA0006000886180936000109260000FBE90E029
:102CB00080E80FB6F89480936100909361000FBE96
:102CC0000E94C41A0E941F1B8091E20084608093BE
:102CD000E20078948FEF9091DB098150943041F0BD
:102CE000EFE3FFE13197F1F700C000008111F3CF6E
:102CF0008091DB09843019F481E08093E8070E9419
:102D0000C2120E946B140E94F31E81E08093E907B7
:102D10009DE088E10FB6F894A895809360000FBEFF
:102D200090936000C8E1DDE08091D307882309F427
:102D30003CC00E9452040E94602B0E9458048823C9
:102D400061F10E943C030E948D2A6093DD0770931D
:102D5000DE078093DF079093E0070FB6F894A895FD
:102D600080916000886180936000109260000FBEC7
:102D70000FB6F894A895C09360000FBED093600082
:102D80001092D3070E94972B8091D207882329F0B5
:102D90001092D2075D980E94F91E8091D20781118E
:102DA000C3CFA8950E947614BFCF8091D20781111E
:102DB000BBCFA8950E94F91EF5CF8091FB0708951F
:102DC000CF93DF9300D01F92CDB7DEB79C018091E7
:102DD000DB09843019F593E099833B832A83909330
:102DE000E9008FEF9091E800815095FD06C09AE6CA
:102DF0009A95F1F700C08111F5CF8091E80085FF29
:102E00000DC040E050E063E070E0CE0101960E940A
:102E100066198091E8008E778093E8000F900F90FC
:102E20000F90DF91CF910895CF93DF9300D01F9241
:102E3000CDB7DEB72091DB09243021F522E02983CC
:102E40009B838A8383E08093E9008FEF9091E80071
:102E5000815095FD06C09AE69A95F1F700C0811160
:102E6000F5CF8091E80085FF0DC040E050E063E0C1
:102E700070E0CE0101960E9466198091E8008E777D
:102E80008093E8000F900F900F90DF91CF910895FD
:102E90002091DB092430F1F422E02093E9002FEFA8
:102EA0003091E800215035FD06C03AE63A95F1F739
:102EB00000C02111F5CF2091E80025FF0BC040E0B4
:102EC00050E065E070E00E9466198091E8008E771E
:102ED0008093E8000895CF93DF932091DB0924309D
:102EE00009F048C0EC0180911C018823E1F0809139
:102EF0001D018823C1F086E08093E9008FEF909157
:102F0000E800815095FD06C095E19A95F1F7000023
:102F10008111F5CF8091E80085FF2CC040E050E0A2
:102F200060E170E017C081E08093E9008FEF90913D
:102F3000E800815095FD06C09AE69A95F1F700C029
:102F40008111F5CF8091E80085FF14C040E050E08A
:102F500068E070E0CE010E9466198091E8008E77EB
:102F60008093E80080E1FE01ABEEB7E001900D92A6
:102F70008A95E1F7DF91CF9108958091DA09811167
:102F800009C00E94C41A0E941F1B8091E200846045
:102F90008093E20008951092DA09089508951F932E
:102FA000CF93DF93CDB7DEB7A0970FB6F894DEBF0F
:102FB0000FBECDBF8091DB09843009F044C0109171
:102FC000E9001F709091EC00892F817090FD80E8DE
:102FD000182B85E08093E9008091E80082FF15C0FE
:102FE0008091E80085FF0CC040E050E060E270E0B6
:102FF000CE0101960E94B119CE0101960E94841D56
:103000008091E8008B778093E80084E08093E9006A
:103010008091EB0080FF14C08091EE0087FF10C00C
:103020008091E80085FF03C01092F100F9CF8091F4
:10303000E80080FF05C08091E8008E778093E8006B
:103040001F701093E900A0960FB6F894DEBF0FBE74
:10305000CDBFDF91CF911F91089542E061EC81E0F7
:103060000E945F1A42E061EC82E00E945F1A42E037
:1030700061EC83E00E945F1A42E261EC84E00E940E
:103080005F1A42E260EC85E00E945F1A42E161EC67
:1030900086E00C945F1A8091DD09833009F455C0F5
:1030A00030F4813071F0823009F48EC008958A3096
:1030B00009F47AC08B3009F460C0893009F09CC0F3
:1030C00020C08091DC09813A09F096C08091E80027
:1030D000877F8093E8008091E0099091E109892B36
:1030E00021F460E18BEE97E003C060E080E090E0C7
:1030F00070E00E94FC198091E8008B778093E800D3
:1031000008958091DC09813209F076C08091E00950
:103110009091E109009719F0049709F06DC0809132
:10312000E800877F8093E8008091E80082FD05C079
:103130008091DB098111F8CF5FC08091F10080930D
:10314000FB078091E8008B7753C08091DC09813ABE
:1031500009F052C08091E0099091E109892B09F0B2
:103160004BC08091E800877F8093E8008091E80061
:1031700080FFFCCF80911C0136C08091DC09813238
:10318000D9F58091E0099091E109892BA9F5809109
:10319000E800877F8093E8000E94731A8091DE091F
:1031A00080931C010C948D208091DC09813221F5E3
:1031B0008091E800877F8093E8000E94731A8091D5
:1031C000DF098093FC0708958091DC09813AA1F41E
:1031D0008091E800877F8093E8008091E80080FF7D
:1031E000FCCF8091FC078093F1008091E8008E77FE
:1031F0008093E8000C94731A08958091FB078093E4
:10320000EA071092FB0780E00E9468040E94A01F5A
:103210000C948D200C94FD180E94972B8091EA0746
:103220008093FB0708950C940C19292F3327233022
:103230003105C1F05CF42130310579F022303105DF
:10324000E9F58DE890E021ED32E03CC02132310516
:10325000C1F02232310511F131C082E190E02EE55A
:1032600033E030C099278330910540F5FC01EE0F23
:10327000FF1FE356FD4F20813181FC01E656FD4FD3
:103280001AC06530D8F4E62FF0E0EE0FFF1FE057CC
:10329000FD4F2081318189E090E014C0653070F4E9
:1032A00070E0FB01EE0FFF1FEA57FD4F20813181D7
:1032B000FB01EF57FD4F808190E004C080E090E07B
:1032C00020E030E0FA01318320830895CF92DF922D
:1032D000EF92FF920F931F93CF93DF93EC018B013B
:1032E0006A010E94921A811133C0C114D10439F0CD
:1032F000F60180819181081B190BC80FD91FE12CA1
:10330000F12C0115110519F18091E80085FD16C019
:103310008091E8008E778093E800C114D10449F0D1
:10332000F60180819181E80EF91EF182E08285E04C
:103330000FC00E94921A882321F30AC089918093BA
:10334000F10001501109FFEFEF1AFF0ADACF80E018
:10335000DF91CF911F910F91FF90EF90DF90CF9071
:103360000895CF92DF92EF92FF920F931F93CF9326
:10337000DF93EC018B016A010E94921A811133C024
:10338000C114D10439F0F60180819181081B190B19
:10339000C80FD91FE12CF12C0115110519F18091ED
:1033A000E80085FD16C08091E8008B778093E800E7
:1033B000C114D10449F0F60180819181E80EF91E13
:1033C000F182E08285E00FC00E94921A882321F3E7
:1033D0000AC08091F100899301501109FFEFEF1AA3
:1033E000FF0ADACF80E0DF91CF911F910F91FF901C
:1033F000EF90DF90CF9008952091E2093091E3099A
:103400002617370748F06115710539F42091E80057
:103410002E772093E80001C0B90140E061157105E5
:10342000A9F12091DB09222309F443C0253009F4D6
:1034300042C02091E80023FD40C02091E80022FD19
:1034400032C02091E80020FFE9CF4091F3002091A5
:10345000F20030E0342BFC01CF016115710559F009
:103460002830310540F481918093F1006150710959
:103470002F5F3F4FF1CF41E02830310509F040E0A8
:103480002091E8002E772093E800C8CF4111C9CFE2
:103490000AC08091DB09882361F0853061F080915A
:1034A000E80083FD0AC08091E80082FFF2CF80E04F
:1034B000089582E0089583E0089581E008958F7073
:1034C0008093E900EBEEF0E0808181608083EDEE97
:1034D000F0E010826093EC0040838091EE00881F42
:1034E0008827881F08958091DC0987FF11C080918B
:1034F000E80082FD05C08091DB098111F8CF11C081
:103500008091E8008B770BC08091DB09882349F01C
:103510008091E80080FFF8CF8091E8008E7780935B
:10352000E80008952091E4003091E50095E640918F
:10353000EC00842F817040FF22C08091E80080FD64
:103540001CC08091DB09882391F0853091F0809137
:10355000EB0085FD10C04091E4005091E50042175A
:10356000530729F39A01915011F784E0089582E0FE
:10357000089583E0089581E0089580E008954091E2
:10358000E80042FFDECF08950E94301B0E94381BE6
:10359000E0EEF0E0808181608083E8EDF0E0808102
:1035A0008F77808319BCA7EDB0E08C918E7F8C93D0
:1035B00080818F7E80831092DA0908950F931F9384
:1035C000CF93DF930E94301B0E94381BC8EDD0E0E0
:1035D00088818F77888388818068888388818F7DC0
:1035E000888319BC1092DB091092D8091092D9096E
:1035F00000EE10E0F80180818B7F808388818160FC
:10360000888342E060E080E00E945F1AE1EEF0E033
:1036100080818E7F8083E2EEF0E080818160808314
:10362000808188608083F80180818E7F808388819B
:1036300080618883DF91CF911F910F910895E8ED0C
:10364000F0E080818F7E8083E7EDF0E08081816013
:10365000808384E082BF81E08093DA090C94DE1AD3
:10366000E8EDF0E080818E7F80831092E200089583
:103670001092DA001092E10008951F920F920FB697
:103680000F9211242F933F934F935F936F937F93E8
:103690008F939F93AF93BF93EF93FF938091E1003C
:1036A00082FF0BC08091E20082FF07C08091E100A1
:1036B0008B7F8093E1000E94CF178091DA0080FF1A
:1036C0001DC08091D80080FF19C08091DA008E7FE4
:1036D0008093DA008091D90019BC80FF0BC082E092
:1036E00089BD09B400FEFDCF81E08093DB090E9413
:1036F000BD1704C01092DB090E94CB178091E10036
:1037000080FF19C08091E20080FF15C08091E20027
:103710008E7F8093E2008091E20080618093E200DE
:103720008091D80080628093D80019BC85E0809396
:10373000DB090E940A198091E10084FF4DC080914D
:10374000E20084FF49C019BC82E089BD09B400FED3
:10375000FDCF8091D8008F7D8093D8008091E100CB
:1037600084FF1AC08091E9078823B1F00FB6F8945E
:10377000A89580916000886180936000109260003D
:103780000FBE9CE088E10FB6F894A8958093600086
:103790000FBE90936000FFCF8091E1008F7E8093F9
:1037A000E1008091E2008F7E8093E2008091E20050
:1037B00081608093E2008091D809882311F084E031
:1037C00007C08091E30087FD02C081E001C083E073
:1037D0008093DB090E9413198091E10083FF29C0C7
:1037E0008091E20083FF25C08091E100877F809374
:1037F000E10082E08093DB091092D8098091E1001A
:103800008E7F8093E1008091E2008E7F8093E200C2
:103810008091E20080618093E20042E060E080E01D
:103820000E945F1A8091F00088608093F0000E94EF
:10383000CE17FF91EF91BF91AF919F918F917F91A3
:103840006F915F914F913F912F910F900FBE0F900D
:103850001F9018951F920F920FB60F9211242F935D
:103860003F934F935F936F937F938F939F93AF9308
:10387000BF93CF93DF93EF93FF93C091E900CF7095
:103880008091EC00D82FD17080FDD0E81092E90033
:103890008091F000877F8093F00078940E946E1CE6
:1038A0001092E9008091F00088608093F000CD2BA9
:1038B000CF70C093E900FF91EF91DF91CF91BF915D
:1038C000AF919F918F917F916F915F914F913F91B8
:1038D0002F910F900FBE0F901F9018951F93CF93AD
:1038E000DF9300D0CDB7DEB7ECEDF9E088E08E0FC6
:1038F0009091F10091938E13FBCF0E944B18809111
:10390000E80083FFEDC08091DC099091DD09492F2B
:1039100050E04A30510508F0E3C0FA01EC56FF4F81
:103920000C94A831803881F0823809F0D9C0809198
:10393000E0098F708093E9008091EB0085FB882778
:1039400080F91092E90007C08091D909882311F00D
:1039500082E001C080E09091E800977F9093E800BA
:103960008093F1001092F10095C0282F2D7F09F06F
:10397000B7C0882319F0823061F0B2C08091DE09AF
:10398000813009F0ADC0933009F080E08093D9090F
:103990002BC08091DE09811127C08091E0098F70D2
:1039A00009F49EC08093E9002091EB0020FF1CC029
:1039B000933021F48091EB00806214C09091EB0071
:1039C00090619093EB0021E030E0A90102C0440F28
:1039D000551F8A95E2F74093EA001092EA00809121
:1039E000EB0088608093EB001092E9008091E80082
:1039F000877F53C0811174C01091DE091F778091B9
:103A0000E3008078812B8093E3008091E800877F3A
:103A10008093E8000E94731A8091E80080FFFCCF39
:103A20008091E30080688093E300111102C082E07E
:103A300001C083E08093DB0953C08058823008F0D6
:103A40004FC0AE014F5F5F4F6091E0098091DE098A
:103A50009091DF090E941519BC01892B09F440C01F
:103A60009091E800977F9093E80089819A810E9465
:103A7000FC198091E8008B778093E80031C0803892
:103A800079F58091E800877F8093E8008091D809DC
:103A90008093F1008091E8008E778093E8000E9487
:103AA000731A1EC081111CC09091DE099230C0F4BF
:103AB0008091E800877F8093E8009093D8090E9466
:103AC000731A8091D809811106C08091E30087FDA7
:103AD00002C081E001C084E08093DB090E942D18C0
:103AE0008091E80083FF0AC08091E800877F80937F
:103AF000E8008091EB0080628093EB000F900F90C4
:103B0000DF91CF911F910895AF92BF92DF92EF9214
:103B1000FF920F931F93CF93DF93CDB7DEB7289714
:103B20000FB6F894DEBF0FBECDBF0DB71EB7DC01D8
:103B30002C9111963C91EDB7FEB7E31BF1090FB63E
:103B4000F894FEBF0FBEEDBF4DB75EB74F5F5F4F3E
:103B50005A01722F771F7727771F632F661F6627FB
:103B6000661F2F773F77772379F0AC01430F511D04
:103B7000FA01A281EA2FF0E0BE2FAA27FA014381C1
:103B8000FD01E40FF11D02C0E0E0F0E002967501D6
:103B9000AC01D42ED81AD31638F4DA01DD90AD0179
:103BA000D701DD927D01F5CF29836D833A834A2DBC
:103BB000BC82AB827E83F887EF835C818E2F9885F1
:103BC0000E94721E81E00FB6F8941EBF0FBE0DBF9B
:103BD00028960FB6F894DEBF0FBECDBFDF91CF9110
:103BE0001F910F91FF90EF90DF90BF90AF900895DD
:103BF000DF92EF92FF920F931F93CF93DF93CDB796
:103C0000DEB728970FB6F894DEBF0FBECDBF29836D
:103C10003A834B835C836D837E838F839887EB80AD
:103C2000FC808091FF07662391F0811123C0F7018A
:103C3000818190E0982F88272081820F911D909399
:103C4000FE078093FD0781E08093FF0711C0882362
:103C500019F01092FF070EC0F701818190E0982FB4
:103C600088272081820F911D9093FE078093FD0786
:103C700002E001C000E0D12C10E02D2D30E08A815F
:103C800090E0801B910B28173907ECF48091FD0719
:103C90009091FE07AC0148505109483F534040F411
:103CA0002E0D3F1DF901E00FF11F60810E94D634F7
:103CB0008091FD079091FE0701969093FE078093F7
:103CC000FD07D394DACF81E028960FB6F894DEBFD3
:103CD0000FBECDBFDF91CF911F910F91FF90EF905D
:103CE000DF900895CF93DF93CDB7DEB728970FB657
:103CF000F894DEBF0FBECDBF3A834B835C836D83E8
:103D00007E838F839887203119F40E94F81D09C0A3
:103D10003A814B815C816D817E818F8198850E9483
:103D2000BA0981E028960FB6F894DEBF0FBECDBF6A
:103D3000DF91CF910895909305088093040808952A
:103D400080910408909105080895E0910408F0918D
:103D50000508309721F00190F081E02D099480E072
:103D60000895E0910408F0910508309721F0028051
:103D7000F381E02D09940895E0910408F09105087D
:103D8000309721F00480F581E02D09940895209169
:103D90000208309103088217930771F0909303088B
:103DA00080930208E0910408F0910508309721F013
:103DB0000680F781E02D0994089520910008309144
:103DC00001088217930771F090930108809300080F
:103DD000E0910408F0910508309721F00084F18506
:103DE000E02D099408950E94782A0E9442030C94C1
:103DF00066048F929F92AF92BF92CF92DF92EF9222
:103E0000FF920F931F93CF93DF9300D000D01F92A8
:103E1000CDB7DEB70E94A20307E018E0F12C8F2D8A
:103E20000E9432034C01F801A080B180A826B92677
:103E3000A114B10439F4F3940E5F1F4FF4E0FF12A4
:103E4000EECF39C08091D40881FD0E943B03E12C64
:103E5000CC24C394D12CC6018A219B21892B21F12A
:103E6000E982FA8221E0C60188219921892B09F48F
:103E700020E02B830E94812A8160782F9D838C8390
:103E800049815A816B818D810E94A11F49815A818C
:103E90006B817C818D810E942F12F801808191813C
:103EA0008C259D2591838083E394CC0CDD1CFCE064
:103EB000EF12D1CFC0CF8FEF89838A831B820E94FC
:103EC000812A8160782F9D838C8349815A816B81FF
:103ED0008D810E94A11F0E944E120E94212D1091DF
:103EE00006080E94A51E1817B9F00E94A51E80930F
:103EF00006080F900F900F900F900F90DF91CF91C9
:103F00001F910F91FF90EF90DF90CF90BF90AF90F7
:103F10009F908F900C94762A0F900F900F900F9097
:103F20000F90DF91CF911F910F91FF90EF90DF9055
:103F3000CF90BF90AF909F908F9008950C9468049D
:103F40000895CF93DF93CDB7DEB72B970FB6F894D4
:103F5000DEBF0FBECDBF4F83588769877A878B87B7
:103F6000DE01119686E0FD0111928A95E9F785E060
:103F7000FE01379601900D928A95E1F749815A81A9
:103F80006B817C818D819E810E94C4262B960FB609
:103F9000F894DEBF0FBECDBFDF91CF910895CF93D0
:103FA000882309F46CC0803B29F48DEA92E0CF911C
:103FB0000C946827C82F8CEF8C0F813A20F080E595
:103FC0008C0F8E3248F48C2F0E94952F811157C090
:103FD0008C2F0E948D290CC080E28C0F883058F401
:103FE000C77081E001C0880FCA95EAF70E94162ABF
:103FF000CF910C94502A8BE58C0F833078F4C53A1E
:1040000029F0C63A31F083E890E005C081E890E0FD
:1040100002C082E890E0CF910C94C71E88E58C0F17
:10402000873168F5C83A89F0C93A91F0CA3A99F0EF
:10403000CB3AA1F0CC3AA9F0CD3AB1F0CE3AB9F0F2
:10404000CF3AC1F080E090E017C082EE90E014C05B
:1040500089EE90E011C08AEE90E00EC085EB90E012
:104060000BC086EB90E008C083EB90E005C084EBCA
:1040700090E002C087EB90E0CF910C94DD1ECF91D1
:104080000895882349F19CEF980F913A20F090E52C
:10409000980F9E3218F40E94CF290DC090E2980F1D
:1040A000983058F4877091E001C0990F8A95EAF72B
:1040B000892F0E941C2A0C94502A9BE5980F93305C
:1040C00020F480E090E00C94C71E885A873120F4D9
:1040D00080E090E00C94DD1E0895882321F00E947A
:1040E000162A0C94502A0895882321F00E941C2A35
:1040F0000C94502A08950E94362A0E94052A0E9494
:10410000502A0E94062E0E94162D80E090E00E9408
:10411000C71E80E090E00C94DD1E0E94262A0C94BD
:104120007B20CF93DF9300D000D01F92CDB7DEB7B6
:104130000E942029292F22952F7030E02C30310544
:104140004CF42A303105C4F42250310922303105B3
:1041500040F023C02C303105D1F02F303105B9F0BB
:104160001CC0853A28F48430B0F4823028F413C09F
:1041700090E2980F983078F0883E30F4803E58F402
:104180008450813A50F407C0803F39F404C093FB57
:10419000882780F903C081E001C080E00F900F9074
:1041A0000F900F900F90DF91CF910895811102C071
:1041B00087E203C08A3018F4835E80930F088091F1
:1041C0000F080E948D290E94502A80910F080E949A
:1041D000CF290C94502ABF92CF92DF92EF92FF9298
:1041E0000F931F93CF93DF9300D000D000D0CDB7B3
:1041F000DEB725E0FC01DE01119601900D922A95B3
:10420000E1F7FC0140815181028163817481258144
:1042100022952F706115710509F424C35F3F19F4CD
:104220004F3F09F41FC36C0149835A830B83862FC8
:104230007D836C83602F782F8D812E830E942029AF
:10424000182FB92E0E941F290E940F28EB2DE295EE
:10425000EF70F0E0E256FF4F2E810C94A8318B2DC9
:10426000807F9B2D9F70F92E882319F0F29440EFE8
:10427000F422002349F0FF2009F4A1C28F2D0E94EF
:10428000292A0E94502A9BC2812F0E944120FF2090
:1042900009F4E8C28F2D0E942F2A26960FB6F894B3
:1042A000DEBF0FBECDBFDF91CF911F910F91FF9069
:1042B000EF90DF90CF90BF900C94502A8B2D807F91
:1042C0009B2D9F70F92E803219F0F29430EFF3227B
:1042D000112319F0113009F12AC00023B1F08F2DFC
:1042E000222351F1213041F526960FB6F894DEBF16
:1042F0000FBECDBFDF91CF911F910F91FF90EF9037
:10430000DF90CF90BF900C94392A222319F02130EE
:1043100009F4A8C20E943C2A2DC00023F1F02330EA
:1043200008F0A0C20E94132A8F2129F023C0002385
:10433000F9F0211116C08F2D26960FB6F894DEBF26
:104340000FBECDBFDF91CF911F910F91FF90EF90E6
:10435000DF90CF90BF900C946D20223008F082C285
:1043600009C0F601858180FF2AC28F708583E3CF63
:1043700021113AC28F2DA1C12B2D26952695237090
:1043800030E02115310521F021303105D1F06AC22C
:10439000002321F0812F9B2D937002C080E090E0DC
:1043A00026960FB6F894DEBF0FBECDBFDF91CF913A
:1043B0001F910F91FF90EF90DF90CF90BF900C94E2
:1043C000DD1E002351F1E12EFB2DF370FF2EE114D1
:1043D00023E0F20604F18BEB92E00E9468278FEF56
:1043E00090E7E2E081509040E040E1F700C000003B
:1043F000A895C701807F992724E0969587952A95EF
:10440000E1F70E94D620C7018F7099270E94D6201D
:1044100086EB92E001C2C70102C080E090E02696E0
:104420000FB6F894DEBF0FBECDBFDF91CF911F91C5
:104430000F91FF90EF90DF90CF90BF900C94C71E2C
:10444000812F002381F00E94292C0E94162D163402
:1044500008F008C2E12FF0E0EF5EF74F81E08083C3
:1044600080931008FFC10E94912C0E94162D1634D3
:1044700008F0F8C1E12FF0E0EF5EF74F10821092E4
:104480001008F0C18B2D837009F07BC00111EAC1C7
:10449000812F829586958770880F880F912F9F7046
:1044A000C92ED12CE12CF12C082E04C0CC0CDD1C23
:1044B000EE1CFF1C0A94D2F714FF12C04FE050E02C
:1044C00060E070E004C0440F551F661F771F8A9597
:1044D000D2F7CB01BA01609570958095909503C095
:1044E00060E070E0CB012B2D269526952370422F9E
:1044F00050E042305105D9F04330510569F16C2943
:104500007D298E299F294130510551F126960FB6FC
:10451000F894DEBF0FBECDBFDF91CF911F910F91F9
:10452000FF90EF90DF90CF90BF900C9434286C29CF
:104530007D298E299F2926960FB6F894DEBF0FBEDF
:10454000CDBFDF91CF911F910F91FF90EF90DF9042
:10455000CF90BF900C944E280E943428C701B6011A
:1045600026960FB6F894DEBF0FBECDBFDF91CF9178
:104570001F910F91FF90EF90DF90CF90BF900C9420
:104580001A28002319F08B2D817001C0869588238D
:1045900009F468C1812F829586958770880F880FEE
:1045A000912F9F70C92ED12CE12CF12C082E04C024
:1045B000CC0CDD1CEE1CFF1C0A94D2F714FF12C0B9
:1045C0004FE050E060E070E004C0440F551F661FEC
:1045D000771F8A95D2F7CB01BA01609570958095C7
:1045E000909503C060E070E0CB012B2D26952695B9
:1045F0002370422F50E042305105D9F0433051052D
:1046000069F16C297D298E299F294130510551F18D
:1046100026960FB6F894DEBF0FBECDBFDF91CF91C7
:104620001F910F91FF90EF90DF90CF90BF900C946F
:10463000FB286C297D298E299F2926960FB6F89490
:10464000DEBF0FBECDBFDF91CF911F910F91FF90C5
:10465000EF90DF90CF90BF900C940D290E94FB2823
:10466000C701B60126960FB6F894DEBF0FBECDBFC8
:10467000DF91CF911F910F91FF90EF90DF90CF903E
:10468000BF900C94E928103F49F118F4103E48F40B
:1046900091C0123F09F453C0E8F1133F09F464C01C
:1046A00089C01F708B2D8F71002321F00E948228FA
:1046B000812F42CE0E94A328812F26960FB6F89410
:1046C000DEBF0FBECDBFDF91CF911F910F91FF9045
:1046D000EF90DF90CF90BF900C9474200023B1F046
:1046E000223008F0BFC08B2D8F7126960FB6F8943C
:1046F000DEBF0FBECDBFDF91CF911F910F91FF9015
:10470000EF90DF90CF90BF900C94C828233008F032
:10471000A9C0E9CF0023A9F08B2D8F7126960FB683
:10472000F894DEBF0FBECDBFDF91CF911F910F91E7
:10473000FF90EF90DF90CF90BF900C9482280023E1
:1047400059F38B2D8F7126960FB6F894DEBF0FBEEE
:10475000CDBFDF91CF911F910F91FF90EF90DF9030
:10476000CF90BF900C94A328002399F08B2D8F71CC
:1047700026960FB6F894DEBF0FBECDBFDF91CF9166
:104780001F910F91FF90EF90DF90CF90BF900C940E
:104790006D2826960FB6F894DEBF0FBECDBFDF9111
:1047A000CF911F910F91FF90EF90DF90CF90BF902E
:1047B0000C9468280023A9F0222309F4ADCF812F9F
:1047C00026960FB6F894DEBF0FBECDBFDF91CF9116
:1047D0001F910F91FF90EF90DF90CF90BF900C94BE
:1047E000CF1F222309F4ADCF812F26960FB6F89460
:1047F000DEBF0FBECDBFDF91CF911F910F91FF9014
:10480000EF90DF90CF90BF900C9441204B2D4F70D4
:10481000612FC6010E94C50226960FB6F894DEBF2E
:104820000FBECDBFDF91CF911F910F91FF90EF9001
:10483000DF90CF90BF900C9468274B2D4F70612F65
:10484000C60126960FB6F894DEBF0FBECDBFDF912E
:10485000CF911F910F91FF90EF90DF90CF90BF907D
:104860000C94E10126960FB6F894DEBF0FBECDBFC3
:10487000DF91CF911F910F91FF90EF90DF90CF903C
:10488000BF900895CF93DF9300D000D01F92CDB793
:10489000DEB70F900F900F900F900F90DF91CF9198
:1048A0000895CF93DF9300D000D000D0CDB7DEB70E
:1048B00026960FB6F894DEBF0FBECDBFDF91CF9125
:1048C00008951F93CF93DF93C091510816E0809114
:1048D0005208C81799F0D0E01C9FF0011D9FF00D01
:1048E0001124ED5AF74F4081518162817381848197
:1048F00095810E9451242196C770E9CFDF91CF9115
:104900001F91089540918308509184086091850813
:104910007091860880918708909188080C945124A2
:104920008091880882958F7009F054C08091850825
:10493000882309F44FC080915108A09152086091DA
:104940008308709184084091860850918708B6E0EA
:104950008A1709F43FC090E041155105C1F17F3F2E
:1049600011F46F3FA1F1B89FF001B99FF00D112430
:10497000ED5AF74F218172132AC02081621327C09C
:104980002281211124C0238134812417350710F49A
:1049900021503109241B350B243B3105C0F42091F3
:1049A00088082F7020612093880826E0289FF00156
:1049B000299FF00D1124E85AF74F80818F70806194
:1049C000808383E898E00E94EB200C946124019698
:1049D0008770BECF0895BF92CF92DF92EF92FF9281
:1049E0000F931F93CF93DF93CDB7DEB761970FB6C9
:1049F000F894DEBF0FBECDBF7C0185E0F701DE017C
:104A00001D9601900D928A95E1F7D7014C91119670
:104A10005C9111971296DC90129713960D911C9150
:104A20001497309183086091840880918608909152
:104A30008708009709F477C16F3F19F43F3F09F4E5
:104A400072C1B0908508BB2009F4C5C020918808C8
:104A50000817190728F0F801E81BF90BCF0104C06B
:104A600080959095800F911FCC24C394843B910531
:104A700080F0C12C207F09F0CCC0702F198B088BDF
:104A80006D2D89890E94422483E898E00E94EB20E2
:104A9000B6C0822F807F09F047C0651314C034135D
:104AA00012C0D11010C02F702061209388080E947E
:104AB000822483E898E00E94EB2080918808D70147
:104AC00015968C932FC00115110519F15F3F11F454
:104AD0004F3FF9F0CD2CD1101CC08091510820918E
:104AE000520836E0821709F45CC090E0389FF0016C
:104AF000399FF00D1124ED5AF74F6181561306C00E
:104B00006081461303C06281611103C00196877002
:104B1000E9CFCD2CDD2009F426C180918808816081
:104B200080938808C12C1FC1651308C0341306C0C8
:104B3000D11004C080918808D701C9C04D875E8715
:104B4000DF86702F198B088B6D2D89890E9491202B
:104B50008823E9F1DD20D9F120918808822F829500
:104B60008F7090E0029774F0809183089091840890
:104B700098878F8319861B870A872C87CE01079613
:104B80000E94EB2086E0F701A3E8B8E001900D92C7
:104B90008A95E1F70E9490240E948224CC24C39439
:104BA000E2C0702F198B088B60E089890E94202950
:104BB000292F22952F7030E0223031050CF0C7C02C
:104BC0009F7009F0C1C0805E883008F4CCC0C70176
:104BD0000E94EB20E3CF0817190708F456C0F8012C
:104BE000E81BF90BCF01843B910508F453C0C12C9D
:104BF000702F198B088B6D2D89890E944224E3E860
:104C0000F8E086E0DF011D928A95E9F70E94822490
:104C1000AAC0651314C0341312C0D11010C0809103
:104C20008808F7018583C7010E94EB2086E0E3E84E
:104C3000F8E0DF011D928A95E9F7CB2C94C04D87EF
:104C40005E87DF86702F198B088B6D2D89890E94F6
:104C50009120882309F4BBCFDD2009F4B8CF20913F
:104C60008808822F82958F7090E002970CF48ACF8B
:104C700080918308909184089A8389831B821D8385
:104C80000C832E83CE0101967BCF80959095800F6B
:104C9000911FA9CFCD2CDD2009F499CF65132EC02B
:104CA00034132CC02091880820FD1FC0822F8295CC
:104CB0008F70D9F0D70115962C9315978F3049F046
:104CC0008F5F982F9295907F822F8F70892B1596EA
:104CD0008C93C7010E94EB2086E0F701A3E8B8E0BF
:104CE00001900D928A95E1F791CF86E0F701A3E854
:104CF000B8E001900D928A95E1F735C04D875E8747
:104D0000DF86702F198B088B6D2D89890E94912069
:104D1000811138CF80918808816080938808C7010D
:104D20000E94EB2020C0DD2009F451CF4D875E8723
:104D3000DF86702F198B088B6D2D89890E94912039
:104D4000882309F444CF1ECF81113DCF0CC02430FD
:104D500031050CF03CCF9F7009F435CFF7019581F8
:104D6000907F09F030CF8C2D61960FB6F894DEBF9E
:104D70000FBECDBFDF91CF911F910F91FF90EF90AC
:104D8000DF90CF90BF9008951F93CF93DF93CDB75F
:104D9000DEB72C970FB6F894DEBF0FBECDBF4F83A2
:104DA000588769877A878B879C87CE0107960E94F0
:104DB000EB24882369F08F8198852A853B85232BF6
:104DC000F1F19F3F09F063C08F3F09F060C037C029
:104DD00086E0FE013796DE01119601900D928A95CC
:104DE000E1F76F817885EA85FB85309741F17F3F58
:104DF00011F46F3F21F12091520830E0C901019672
:104E0000877099274091510850E08417950709F45D
:104E100047C069837A83FD83EC8396E0929FD0013B
:104E2000939FB00D1124AD5AB74FFE0131960190FA
:104E30000D929A95E1F7809352080E94612416E042
:104E400080915108909152088917C1F1189FC001B3
:104E500011248D5A974F0E94EB24882379F1E09119
:104E600051081E9FF0011124ED5AF74F40815181E6
:104E700062817381848195810E94512480915108BF
:104E800090E001968770992780935108D9CF4F8180
:104E9000588569857A858B859C850E945124CFCF62
:104EA0000E948D201092520810925108E3E8F8E019
:104EB00086E0DF011D928A95E9F7C1CF2C960FB6E7
:104EC000F894DEBF0FBECDBFDF91CF911F91089543
:104ED000DF92EF92FF920F931F93CF93DF93FC012A
:104EE000892B09F48AC0E12CF12CDD24D394EF0145
:104EF00021968491853709F461C058F4843708F00D
:104F00004EC0843008F06AC08130D1F0823071F137
:104F100074C0883709F45DC050F4863709F455C071
:104F2000873709F06AC08E2D0E94232A54C09CE75F
:104F3000980F903708F061C08F770E94412050C0D1
:104F40008F010E5F1F4FFE01849190E2980F983001
:104F500050F48770FD2D01C0FF0F8A95EAF78F2F5F
:104F60000E94292A14C00E94CF1F13C08F010E5F18
:104F70001F4FFE01C49180E28C0F883060F4C7702F
:104F80008D2D01C0880FCA95EAF70E942F2A0E9432
:104F9000502AE80125C08C2F0E944120FACF9F01A2
:104FA0002E5F3F4FFE01C491CC2369F08FEC97E058
:104FB0000197F1F700C00000C150F6CF9F012E5FAE
:104FC0003F4FFE01F490E9010BC00E94132AE82E26
:104FD00007C00E94262A0E94502A02C00E94CF1FAA
:104FE0008F2D882341F0EFECF7E03197F1F700C007
:104FF00000008150F6CFFE017ACFDF91CF911F9153
:105000000F91FF90EF90DF9008956093B90870932F
:10501000BA088093BB089093BC080C946904089567
:105020006093BD087093BE088093BF089093C0083A
:105030000C9476040F931F930091BD081091BE0845
:105040002091BF083091C008602B712B822B932BCD
:105050006093BD087093BE088093BF089093C0080A
:105060001F910F910C9476040F931F930091BD082C
:105070001091BE082091BF083091C00860237123B1
:10508000822393236093BD087093BE088093BF086A
:105090009093C0081F910F910C9476040F931F9367
:1050A0000091BD081091BE082091BF083091C00842
:1050B00060277127822793276093BD087093BE08ED
:1050C0008093BF089093C0081F910F910C947604B1
:1050D00060E070E0CB010C9405280F931F9341E032
:1050E00050E060E070E08A019B0104C0000F111FD6
:1050F000221F331F8A95D2F7C901B8011F910F9162
:105100000C9405280F931F9341E050E060E070E09D
:1051100004C0440F551F661F771F8A95D2F78091F0
:10512000B9089091BA08A091BB08B091BC088A0157
:105130009B01082B192B2A2B3B2BC901B8011F916E
:105140000F910C9405280F931F9341E050E060E00D
:1051500070E004C0440F551F661F771F8A95D2F771
:1051600040955095609570958091B9089091BA08D6
:10517000A091BB08B091BC088A019B0108231923A8
:105180002A233B23C901B8011F910F910C940528D4
:105190000F931F9341E050E060E070E004C0440FC3
:1051A000551F661F771F8A95D2F78091B908909195
:1051B000BA08A091BB08B091BC088A019B010827DE
:1051C00019272A273B27C901B8011F910F910C9479
:1051D00005280F931F930091B9081091BA082091E8
:1051E000BB083091BC08602B712B822B932B1F9135
:1051F0000F910C9405280F931F930091B9081091FB
:10520000BA082091BB083091BC0860237123822327
:1052100093231F910F910C9405280F931F930091D6
:10522000B9081091BA082091BB083091BC086027DA
:105230007127822793271F910F910C9405280895B9
:105240008F929F92AF92BF92DF92EF92FF920F9355
:105250001F93CF93DF9300D000D01F92CDB7DEB75E
:105260008A016623C9F18090BD089090BE08A09085
:10527000BF08B090C0088091B9089091BA08A09179
:10528000BB08B091BC08882A992AAA2ABB2A8FE1B8
:10529000E82EF12CD501C4010E2C04C0B695A795BB
:1052A000979587950A94D2F780FF07C0DE2CB80146
:1052B0008E2D0E94AB01019729F481E0E81AF108D4
:1052C00048F7D12C8CE0189FF0011124E00FF11D5C
:1052D000E757F74FD08209C08CE0189FF0011124E6
:1052E000E40FF11DE757F74FD08009831A836981D6
:1052F0007A818D2D0E94AB010F900F900F900F902F
:105300000F90DF91CF911F910F91FF90EF90DF9061
:10531000BF90AF909F908F90089590911C0199231A
:1053200021F090911D01911109C020911E01309131
:105330001F01F90132969FEF40E01FC0982F96950C
:10534000969596959F3050F5E0911E01F0911F01C2
:10535000E90FF11D877021E030E0A90102C0440F80
:10536000551F8A95E2F7CA019181892B818308959F
:105370009F3F39F04F5F4E3041F051915813F8CFB5
:105380000DC05111F7CF942FF5CF9F3F39F0F901A0
:10539000E90FF11D97FDFA95828308950895909184
:1053A0001C01992321F090911D01911109C02091B8
:1053B0001E0130911F01F9013296205F3F4F1FC03F
:1053C000982F9695969596959F30F0F4E0911E0152
:1053D000F0911F01E90FF11D877021E030E0A90174
:1053E00002C0440F551F8A95E2F7CA01809591814A
:1053F0008923818308953196E217F30729F090817C
:105400009813F9CF1082F7CF089581E090E0E091F2
:105410001E01F0911F01E80FF91F108201968031E3
:105420009105A9F708958091D30808959091D30824
:10543000892B8093D308089580959091D308892370
:105440008093D30808958093D30808951092D308C9
:1054500008959091D208892B8093D2080895809561
:105460009091D20889238093D20808951092D2088F
:1054700008958093C10808951092C10808958091FD
:105480001E0190911F01FC0131969C01205F3F4F4E
:1054900080E0919191118F5FE217F307D1F70895A2
:1054A000E0911E01F0911F018091D3088083E0916B
:1054B0001E01F0911F0190818091D208892B808379
:1054C0008091C108882361F0E0911E01F0911F01D5
:1054D0009081892B80830E943F2A81111092C108FC
:1054E00080911E0190911F010C94B11E0C949E1F7F
:1054F00082E084BD93E095BD9DE797BD80936E00EB
:1055000008952FB7F8948091D5089091D608A0916E
:10551000D708B091D8082FBF08952FB7F89460919D
:10552000D5087091D6088091D7089091D8082FBFE0
:105530000895CF92DF92EF92FF920F931F932FB7B0
:10554000F8944091D5085091D6086091D708709191
:10555000D8082FBF6A017B01EE24FF248C0120E0D4
:1055600030E0C016D106E206F30610F441505109AE
:105570009A01281B390BC9011F910F91FF90EF90E1
:10558000DF90CF900895CF92DF92EF92FF920F932A
:105590001F932FB7F894C090D508D090D608E0900C
:1055A000D708F090D8082FBF97018601061B170B6C
:1055B000280B390BC616D706E806F90618F0C901FC
:1055C000B80106C0C901B80161507109810991098A
:1055D0001F910F91FF90EF90DF90CF9008957894F6
:1055E0001F920F920FB60F9211248F939F93AF9338
:1055F000BF938091D5089091D608A091D708B0911B
:10560000D8080196A11DB11D8093D5089093D608A6
:10561000A093D708B093D808BF91AF919F918F9175
:105620000F900FBE0F901F9018950E94C41AF89407
:105630002FEF83ED90E3215080409040E1F700C0D0
:10564000000087E090EBDC018093E4099093E5098A
:10565000A093E609B093E7099CE088E10FB6F894BF
:10566000A895809360000FBE90936000FFCF1F92BB
:105670000F920FB60F9211248F939F93AF93BF9306
:105680008091D908811113C08091D5089091D608D6
:10569000A091D708B091D8084196A11DB11D809363
:1056A000D5089093D608A093D708B093D808BF9197
:1056B000AF919F918F910F900FBE0F901F901895F3
:1056C0008091DB09843009F431C00FB6F894A895B5
:1056D00080916000886180936000109260000FBE2E
:1056E0001092D90820E488E190E00FB6F894A895CC
:1056F000809360000FBE209360000E94281283B741
:10570000817F846083BF83B7816083BF78948895ED
:1057100083B78E7F83BF0FB6F894A8958091600001
:10572000886180936000109260000FBE08950C9411
:105730002B122CE0929FF0011124E80FF11DE0598B
:10574000FE4F9491892F8F7092959F70089580914C
:10575000DE0880FF0BC06091230185E0689FB001E7
:10576000112475956795759567952BC081FF09C0C4
:105770006091230185E0689FB001112475956795BC
:1057800020C082FF07C06091230185E0689FB001BF
:10579000112417C09091DF089923D1F06091220164
:1057A000961788F72091230185E0289F9001112406
:1057B000929FA001939F500D112470E0CA010E9496
:1057C00094316038710540F46115710539F002C0FB
:1057D00065E070E0862F08958FE7089581E00895D1
:1057E0008091DE0880FF08C06091210170E075950E
:1057F00067957595679521C081FF06C0609121016D
:1058000070E07595679519C082FF04C06091210111
:1058100070E010C09091DF089923C1F060912001E1
:105820009617A0F780912101899FC001112470E093
:105830000E9494316038710528F46115710521F0DA
:10584000862F08958FE7089581E0089561E070E064
:10585000F4CF803F21F40E94A72B819504C0813FA3
:1058600029F40E94A72B8093E2080895823F21F437
:105870000E94A72B819504C0833F29F40E94A72B87
:105880008093E1080895893F19F40E94F02B05C028
:105890008A3F31F40E94F02B81958093E3080895AC
:1058A0008B3F21F40E94F02B819504C08C3F29F49A
:1058B0000E94F02B8093E4080895843F21F48091A6
:1058C000E008816017C0853F21F48091E008826084
:1058D00011C0863F21F48091E00884600BC0873FAF
:1058E00021F48091E008886005C0883F31F4809100
:1058F000E00880618093E00808958D3F21F4809155
:10590000DE0881600BC08E3F21F48091DE0882604A
:1059100005C08F3F29F48091DE0884608093DE0803
:105920000895803F39F48091E20887FF6CC010929F
:10593000E20869C0813F29F48091E2081816BCF39F
:1059400062C09091E108823F29F497FF5CC01092F9
:10595000E10859C0833F19F41916CCF354C0893FAC
:1059600041F48091E30818160CF04DC01092E30842
:105970004AC08A3F29F48091E30887FF44C0F6CFEC
:105980008B3F39F48091E40887FF3DC01092E40812
:105990003AC08C3F29F48091E4081816BCF333C058
:1059A000843F21F48091E0088E7F17C0853F21F469
:1059B0008091E0088D7F11C0863F21F48091E0083E
:1059C0008B7F0BC0873F21F48091E008877F05C063
:1059D000883F31F48091E0088F7E8093E00813C007
:1059E0008D3F21F48091DE088E7F0BC08E3F21F425
:1059F0008091DE088D7F05C08F3F29F48091DE08FD
:105A00008B7F8093DE088091E10881110EC0809128
:105A1000E20881110AC08091E308811106C08091DB
:105A2000E408811102C01092DF08089580EE98E02A
:105A30000E94BC1E0E94812A9093DB088093DA08A2
:105A400008950F931F93CF93DF93809110088823BD
:105A5000C9F18091DC089091DD080E94992A0B978A
:105A600088F105E118E0C4E0F80181918F018823F5
:105A700051F08C2F0E948D290E94502A8C2F0E9459
:105A8000CF290E94502ACF5FC63471F78091110848
:105A9000882391F08091E00881608093E00880EE97
:105AA00098E00E94BC1E8091E0088E7F8093E00801
:105AB00080EE98E00E94BC1E0E94812A9093DD082F
:105AC0008093DC088091DA089091DB080E94992A83
:105AD000AC019091DF08992321F02091240130E05E
