:100000000C940C010C9429010C9429010C942901E5
:100010000C9429010C9429010C9429010C942901B8
:100020000C9429010C9429010C941F1D0C94FC1DA7
:100030000C94BA2B0C9429010C9429010C942901DD
:100040000C9429010C9429010C9429010C94290188
:100050000C9429010C94832B0C9429010C942901F4
:100060000C9429010C945B130C9429010C94290124
:100070000C9429010C9429010C9429010C94290158
:100080000C9429010C9429010C9429010C94290148
:100090000C9489060C9429010C9429010C942901D3
:1000A0000C9429010C9429010C94290183028702E4
:1000B00089028B028D028F026B029A029F026F02ED
:1000C000710275027F0281028302870289028B021C
:1000D0008D028F0294029A02A6029F02D409DE09C1
:1000E000DE09E709E709060A060A1A0A1A0A671268
:1000F00069126B126D126D127012701273127512FA
:10010000771277127A127A127D127D127D127D1289
:10011000801280128012801283128312C818CA18AB
:10012000CC18CE18D018D218F818F818F818F818F3
:10013000F818F118F318F518641E871E421F871E61
:10014000421FCC1EEF1E421F111F241F1722172211
:10015000442244229F22F122032503251123032553
:100160000E240E24D92403250325EF2429141A086C
:1001700015171C180C12802A7C041607090A0B0D8F
:100180000E0F8028791D1B06190511103637807D4A
:10019000787B7A7E80802C135051804F29141A0866
:1001A00015171C180C12132A2B041607090A0B0D1D
:1001B0000E0F3328791D1B06190511103637387DAF
:1001C000787B7A657C2C2C7E5051524F00000000C9
:1001D00000000000000001010203040506080A0CEB
:1001E0000F1114181C2024292E33393F464C535B21
:1001F000626A7179818A929AA2AAB2B9C1C8CFD52E
:10020000DCE1E7EBF0F4F7FAFCFDFEFF62620028A8
:10021000008315087432000011241FBECFEFDAE00E
:10022000DEBFCDBF14E0A0E0B1E0E6EAF5E602C033
:1002300005900D92AE3EB107D9F72AE0AEEEB4E0DC
:1002400001C01D92A630B207E1F70E94F9180C9484
:10025000D1320C9400002091F104E82FF0E0892FB6
:1002600090E04CE0222351F0489F9001499F300DCF
:100270001124E20FF31FE456FE4F09C0489F90017E
:10028000499F300D1124E20FF31FE459FE4F949162
:10029000892F8F7092959F700895EF92FF921F9310
:1002A000CF93DF937C01D62FC42F0E94F12A182F01
:1002B000F7019281D13029F0A8F0D43009F450C070
:1002C0005AC0992309F449C081FF04C080FD02C0CF
:1002D00085E301C089E28093F0048091F0040E94DC
:1002E000FD2047C0C230F9F048F4CC2389F0C1307A
:1002F00051F584E38093EE0488E223C0C430E9F032
:10030000B8F0C53001F581E38093EE048AE219C0AC
:1003100082FF02C08DE301C089E28093EF0485E390
:100320008093EE0410C088E38093EE0487E309C055
:1003300088E38093EE0482E504C083E38093EE04B7
:100340008FE08093EF04992341F015FF03C0809163
:10035000EE04C1CF8091EF04BECF8091F00407C0BE
:10036000992321F0827239F48CE2B9CF8CE20E9499
:100370002A210E942B2BF7018281882309F494C043
:10038000DA3089F1A8F4D230C1F0D33009F08CC052
:100390009091300581E089278093300581708093AA
:1003A000DD07DF91CF911F91FF90EF900C94E70450
:1003B000DB3009F1DC3039F177C0113019F40E94DB
:1003C000A92B04C01C3011F40E944E1583E30E9437
:1003D000562183E30E945D218CEC0E9456218CEC17
:1003E0000E945D215AC08C2FDF91CF911F91FF9009
:1003F000EF900C94A1098C2FDF91CF911F91FF906A
:10040000EF900C94BF180E945B1F8152914009F03D
:100410004BC00FB6F894A8958091600088618093D6
:100420006000109260000FBE87E10E94562180E4B8
:100430000E94562187E50E945D21C0E0D0E0FE01C8
:10044000F695E795FC58859194919E01237033278A
:10045000232B31F48130910519F4239615E00CC05B
:10046000C0FD02C020E001C022E002C09695879541
:100470002A95E2F7182F1373812F0E94562186EEDA
:1004800090E00E943025812F0E945D212196C115A8
:1004900080E1D807A0F20E949513DF91CF911F91C0
:1004A000FF90EF900C947621DF91CF911F91FF90F8
:1004B000EF90089580E090E008952091F10490E09D
:1004C0002223A9F08C30910508F040C0FC01EA5AC3
:1004D000FF4F0C94DF2E8FB18095817008958FB1FE
:1004E00013C08FB1869581702EC08CB124C08C3022
:1004F000910560F5FC01EE59FF4F0C94DF2E89B198
:100500001AC089B112C083B1829581701CC083B1B9
:1005100017C083B110C086B10EC086B106C08CB1C1
:1005200082FB882780F90FC08FB18095881F8827AC
:10053000881F08958FB186FB882780F904C08FB18A
:1005400085FB882780F991E08927089580E0089548
:100550009091F104992381F0813041F028F08230AC
:1005600039F0833039F00895879A0895579A08959D
:10057000229A0895239A0895813041F028F082301C
:1005800039F0833039F00895849A0895819A089556
:10059000809A08956E9A0895E0EAFFE7E49181E079
:1005A000E43209F080E08093F10408958091F10431
:1005B000882319F082E391E002C08CE391E00C946F
:1005C0006115E82FF0E0EE0FFF1FEB5DFA4F808121
:1005D0009181089508958091F104882331F08798DE
:1005E000579884B1837F84B9089580B38C7E80BB93
:1005F0006E98089585B7806885BF85B7806885BF88
:100600000E9418065C9A549A80E590E00E94E105E9
:100610000E943C090E945F2B8FEC97E00197F1F755
:1006200000C000000E94EB028091F104882369F071
:1006300080B38C7880BB81B3836781BB8EB18464C7
:100640008EB98DB18B7B8DB90EC080B38F7180BB9D
:1006500081B3806E81BB729A6A988AB18F738AB9AE
:100660008BB1806C8BB987B18F7387B988B1806C7F
:1006700088B984B18F7884B985B1806785B90895C8
:10068000CF92DF92EF92FF920F931F93CF93DF935E
:100690008091240581110EC00E94682B20912205B3
:1006A000309123052817390709F478C09093230562
:1006B0008093220500E010E05CE0C52EEE24E39478
:1006C000F12CD0902405CD2DD0E0802F0E945D022A
:1006D000CC9EF001CD9EF00D1124E00FF11FEE50E5
:1006E000FB4F9081990F890F80839FEF980F9E3F5A
:1006F00030F59701002E02C0220F331F0A94E2F753
:1007000090910401482F492349130AC0FE01EE0FBE
:10071000FF1FEB5DFA4F80819181282B392B0DC093
:100720008F7769F4FE01EE0FFF1FEB5DFA4F209506
:1007300030958081918128233923318320830F5F75
:100740001F4F0C30110509F0BCCF0E94EB02CC0FFB
:10075000DD1FCB5DDA4F88819981892B91F08091E3
:100760002E0980FD07C08CE090E09093BD07809338
:10077000BC0707C08C738430B1F31092BD07109290
:10078000BC0781E08D0D843018F48093240502C0ED
:1007900010922405809124050E94A80281E0DF9137
:1007A000CF911F910F91FF90EF90DF90CF90089520
:1007B0008091F104882331F0879A579A84B18C6034
:1007C00084B9089580B3836180BB6E9A08950F93B6
:1007D0001F93CF93DF9380911B018A3041F080916A
:1007E000200181114BC08091FC09811147C080918B
:1007F000F104882311F0579801C0819800E010E0BF
:10080000C0E0D0E0802F0E945D0290E0002E02C088
:10081000880F991F0A94E2F7C82BD92B0F5F1F4F3F
:100820000C30110579F7209711F080E037C00E9455
:10083000EB0281E00E94A80200E010E0802F0E94FD
:100840005D0290E0002E02C0880F991F0A94E2F723
:10085000C82BD92B0F5F1F4F0C30110579F7C0390A
:10086000D10519F780911B018A3021F08AE190E0CF
:100870000E94531881E080931F0110C0C0E08C2FAC
:100880000E945D02882331F080911B01843091F336
:1008900081E004C0CF5FCC3091F7C7CFDF91CF911B
:1008A0001F910F910895882329F081E0809304011E
:1008B00080E004C08FE78093040186E060E00C9440
:1008C000BF21E0E0F6E7E491E0933205E2E0F4E7EF
:1008D00085919591A591B491EDE2F5E081839083A6
:1008E000A283089580912E0980FD06C02F9A8091E1
:1008F000F104811101C05C9A20912F0530E04091F4
:100900002D0550E060912E0570E080E390E00E949C
:10091000720581E080933105089520E030E040E0E9
:1009200050E060E070E080E390E00E947205109279
:10093000310580912E0980FD06C02F988091F10429
:10094000811101C05C9808958091310581110C944A
:1009500072040C948D0490913205981308C0909104
:10096000310581E08927809331050C94A404089512
:100970002091320590EF920F933060F490E0205177
:1009800002C0959587952A95E2F780FD0C94720434
:100990000C948D040895809132058150873010F4B5
:1009A0000E948D0480912E0980FF08C08E738830CC
:1009B00029F40E945D0781E08093080608958091E4
:1009C00032058950873010F40C948D0408952091DD
:1009D00032058BEE820F883070F48091300590E004
:1009E000255102C0959587952A95E2F780FD0C94D4
:1009F00072040C948D0408953091F104242F2095F5
:100A0000332321F03BB123233BB103C035B1232372
:100A100035B1432B3FB7F8945091F104FC01680FB6
:100A2000791FE617F70709F439C081915523D9F0EA
:100A300098E04BB987FF2BB9880F000000C02BB995
:100A4000000000C000C000C000C000C000C000C066
:100A500000C000C000C000C000C000C000C000C096
:100A60009A9539F7DECF98E045B987FF25B9880F09
:100A7000000000C025B9000000C000C000C000C0D8
:100A800000C000C000C000C000C000C000C000C066
:100A900000C000C000C09A9539F7C3CF3FBF08958A
:100AA0009C018091F104882321F09AB1942B9AB98A
:100AB00003C094B1942B94B9CB01880F991F680F90
:100AC000791FC9010E94FC0485E88A95F1F70000AE
:100AD00008952091F104222311F040E401C048E080
:100AE0000C945005E82FE295E37090E3E99FF00144
:100AF00011248F70ED5CFA4FE80FF11D60A3408365
:100B0000208B81E08093F3050895880F8093180966
:100B10006093190940931A0988EF8093FC0880912B
:100B2000FC088F3F39F040E063E088E199E00E94E3
:100B30002E06F5CF0895CF93DF93C82FD62F45EC1F
:100B40006EEF0E9485054D2F6DEF8C2FDF91CF91B9
:100B50000C9485050F931F93CF93DF93C82F8B01C0
:100B600061E070E090E00E949B05CC0FC0931809F3
:100B7000E80110E008EF1093190980E090E0FE0111
:100B8000E80FF91F2081FC01E85EF64F22830196F1
:100B900080319105A1F70093FC088091FC088F3FFC
:100BA00039F040E062E188E199E00E942E06F5CF3D
:100BB000105F6096103CF9F6DF91CF911F910F9175
:100BC0000895CF93DF93C82F63E00E949B0540E018
:100BD00060E08C2F0E94850541E060E08C2F0E9430
:100BE000850540E861E08C2F0E9485058FE19EE439
:100BF0000197F1F700C0000060E08C2F0E949B0578
:100C0000D0E04FE36D2F8C2F0E948505DF5FD93137
:100C1000C1F7DF91CF9108958091F305882339F0D2
:100C20001092F30563E375E080E50C94AA0508953E
:100C3000EBEFF8E010828FEF818312821092B900FF
:100C400082E08093B80085E08093BC000895909185
:100C5000FB089D7F81E009F080E008951F93CF930A
:100C6000DF9300D01F92CDB7DEB7182F653110F09B
:100C700081E048C04A8369839B830E9427064A819A
:100C800069819B81811105C082E08A95F1F700C0DE
:100C9000F1CF4093FD08E12FF92FA0E0B9E070E01B
:100CA000CD0180509940861797071CF481918D9350
:100CB000F7CF70932D0960932C091092FF081092C2
:100CC000FE088091FB088230B1F481E08093FB083C
:100CD0008091FE089091FF089C012F5F3F4F309359
:100CE000FF082093FE08FC01E050F74F80818093BD
:100CF000BB0085E804C081E08093FB0885EA80930F
:100D0000BC0080E00F900F900F90DF91CF911F916A
:100D100008951F920F920FB60F9211242F933F93B5
:100D20004F938F939F93EF93FF938091B900887FA8
:100D3000883239F180F4803109F49FC030F488237F
:100D400009F49FC08830E9F0A3C08831B9F080323F
:100D500009F480C09DC0803491F138F4803309F4E7
:100D600079C0883309F476C093C08035A9F18835FD
:100D700009F455C0883409F08BC06CC083E08093BF
:100D8000FB082091FE083091FF0880912C0990917A
:100D90002D09281739070CF053C08091FE08909157
:100DA000FF089C012F5F3F4F3093FF082093FE0800
:100DB000FC01E050F74F80818093BB002BC084E0A2
:100DC0008093FB0880911409909115090197209157
:100DD00016093091170916C08091160990911709CC
:100DE0009C012F5F3F4F30931709209316094091C4
:100DF000BB00FC01E951F74F4083809114099091A9
:100E000015090197281739072CF488EF8093FC08FF
:100E100085EC3CC088EF8093FC0885E837C0809162
:100E20001609909117099C012F5F3F4F30931709C6
:100E3000209316092091BB00FC01E951F74F208354
:100E40008091FD08882311F08FEF0BC01092FB08F2
:100E50008FEF10C08091FD08882339F08091B90090
:100E6000887F8093FC0885EA11C01092FB0880916E
:100E7000B900887F8093FC0808C082E08093FB085B
:100E800007C01092FC081092FB0885E98093BC0013
:100E9000FF91EF919F918F914F913F912F910F90E3
:100EA0000FBE0F901F901895549A8091F1048823DB
:100EB00011F0279A0895219A08952F9A8091F104AC
:100EC000882311F05C9808955C9A299808952F98CA
:100ED0008091F104882311F05C9A08955C98299A16
:100EE0000895CF93DF9300D000D01F92CDB7DEB727
:100EF000FA0193E0899F90011124232F330F330BC4
:100F00001C821982982F990F890F8150869FC001EA
:100F100011249D839A83691B6B83DE01A20FB31F8B
:100F200013968C918183DE01A20FB31F12968C91D0
:100F30008083DE01A20FB31F11968C9182830F90E4
:100F40000F900F900F900F90DF91CF9108950F9316
:100F50001F93CF93C82FE62F862F90E08C0F911D03
:100F6000840F911D83329240D4F0A5E0CA9FC00146
:100F7000112407E010E0B8010E94CB2EC62FB5E087
:100F8000EB9FC0011124B8010E94CB2EE62FF5E0A3
:100F90004F9FC0011124B8010E94CB2E462FD901CA
:100FA0001196CC931197EC9312964C93CF911F917D
:100FB0000F9108950F931F93CF93DF9300D000D02C
:100FC0001F92CDB7DEB7453008F445E0A42FB0E05E
:100FD00070E0869FF001879FF00D1124EF2FFF270F
:100FE000AE9F8001AF9F100DBE9F100D1124E0E059
:100FF000F1E0E61BF70BEA9FB001EB9F700DFA9F43
:10100000700D11247C837983872F810F8D838A83D0
:10101000411B4B83892F90E063E070E00E94B72E64
:10102000DE01A80FB91FFD0111964C9162818381E9
:101030000F900F900F900F900F90DF91CF911F9115
:101040000F910C94A7078AE090E00C94F731AB0164
:10105000BC018AE090E00C94153261E871E080E018
:1010600090E00C94270880E9E8E4F9E0DF011D92A4
:101070008A95E9F782E1E6E3F9E0DF011D928A95BE
:10108000E9F708950F931F93CF93DF9380912E0973
:1010900080FF0E9433080AE419E0C0E0D6E08091A6
:1010A0001F01811104C080913105882311F0CC30DB
:1010B00091F08C2F6D2F0E94AB2EE82FF0E0E75FB0
:1010C000FE4F8081F8012081329740813196608106
:1010D000890F0E947205CF5F0D5F1F4FC033F9F675
:1010E00066E070E086E399E0DF91CF911F910F9168
:1010F0000C94690520912E0920FF1DC028ED39E0D0
:101100000E94DA07A8E4B9E0E6E3F9E080E0209184
:10111000D8093091D9094091DA09863018F4208332
:10112000318342832D933D934D938F5F339680336C
:1011300071F70C94420808950F931F93CF93DF9398
:1011400020912E0920FF2FC0142F062FC92FD82F32
:101150002E73223011F40E947A089D2F9295990FD8
:10116000990F907C80912E098F73892B80932E0983
:10117000C295CC0FCC0FC07CD695D695CD2BC09305
:101180002F09009330091093310960912E09709155
:101190002F098091300990913109DF91CF911F91F2
:1011A0000F910C942708DF91CF911F910F91089513
:1011B000CF9390912E0990FF5DC0917C811102C068
:1011C000906308C0893110F0926004C0282F2F71FD
:1011D000220F922B90932E09C82F60912E097091A7
:1011E0002F0980913009909131090E942708809140
:1011F0002E0986958F7111F00E945D0780912E094E
:10120000982F9E739230B9F4829586958695837057
:1012100090912F09292F220F220F409131096091BF
:101220003009822B92959695969593700E949C0812
:10123000CF910C944208C23051F480E3E0E5F6E02F
:10124000DF011D928A95E9F7CF910C943308C430E1
:1012500059F460916C0870916D0880916E089091BE
:101260006F08CF910C94CB0487EF8C0F823010F471
:1012700010920906CF9108958091F104882359F0C6
:101280001092090188E080930A0180E280930F01A7
:1012900088E2809310010E94A02E811104C00E9458
:1012A000862E0E942D080E94230860932E097093B9
:1012B0002F0980933009909331096E736E3361F476
:1012C0000E942D080E94230860932E0970932F0915
:1012D00080933009909331090E94540780912E0920
:1012E00080FF04C086958F710C94D8080E94420834
:1012F0000C94670780912E09982F909590FB80F9A8
:1013000080932E0960912E0970912F0980913009E8
:10131000909131090E94270880912E0980FF04C016
:1013200086958F710C94D8080E9442088091FC0920
:10133000843031F080913105811102C00C9467072F
:101340000895CF92DF92EF92FF920F931F93CF9366
:10135000DF93C82ED0912E09D295D695D695D3700D
:10136000D0902F098D2D880F880FD82BD294D6942A
:10137000D69493E0D922E090300940913109042FAE
:10138000C0FE02C0CFEF01C0C1E00E94F12A81FD82
:10139000C1954C2D50E04930510508F05EC0FA016E
:1013A000E259FF4F0C94DF2EDF91CF911F910F91E7
:1013B000FF90EF90DF90CF900C947A0990912E09D6
:1013C0009695892F8F718C0F0E94D80846C0209166
:1013D0002E09229526952695237030912F09432FAB
:1013E000440F440F842F822B932F929596959695B8
:1013F00093709D5F24E1C202800D911D112460E075
:1014000073E00E94CB2ED82FD92E2AC080913009AC
:1014100091E1C90270011124E80EF11C2FEFE216D0
:10142000F10409F01CF4F7FC29C01AC0EE24EA9478
:10143000F12C16C08091310991E1C902A00111245B
:101440008A01080F111D0F3F110509F01CF417FD4B
:1014500018C006C00FEF10E003C022E02C15A0F466
:10146000402F6E2D8D2F9D2DDF91CF911F910F91CC
:10147000FF90EF90DF90CF900C949C08E12CF12C22
:10148000EFCF00E010E0ECCFDF91CF911F910F91F3
:10149000FF90EF90DF90CF900895CF93DF93C82F08
:1014A000D62F262F30E0280F311D240F311D233277
:1014B0003240D4F025E0829FC001112427E030E0C3
:1014C000B9010E94CB2EC62F55E0D59FC001112433
:1014D000B9010E94CB2ED62F55E0459FC0011124A3
:1014E000B9010E94CB2E462F20E030E0F901EA5CE2
:1014F000F64FC183D08342832D5F3F4F22313105A8
:10150000A9F720E030E0F901E85BF64FC183D08312
:1015100042832D5F3F4F20393105A9F7DF91CF91ED
:101520000C944208FC019091050A8081803449F5B1
:1015300081818B3B21F4CF0103960C94611593308C
:1015400019F482810C94D808943021F4438162818B
:101550000C944D0A9530A9F4863048F4282F30E0D9
:101560004481638182810E94A7070C9442088F3FC7
:1015700041F4838190E0982F88272281822B0C945C
:10158000302508950F931F93CF93DF93C82FD62F45
:1015900080912E0980FF7EC09091F104911106C0C8
:1015A000C33021F4673011F4DAE0C0E08E73843088
:1015B00089F52F9906C08091B607811102C00E945B
:1015C0005D070D2F10E08CE0C89F000D111D112448
:1015D000F801E05BF94F8FE380830E94312F60E0D8
:1015E00071E00E94CB2EF801E15EF94F8083D63086
:1015F00010F025E001C022E0C33008F0C2E02C1B4F
:1016000030E0F901E75EF94F9FE39083F901ED5E69
:10161000F94F808380912E098E738630D9F52F99EA
:1016200006C08091B607811102C00E945D0720911B
:101630000A06822F90E0019683709927FC01E15FF2
:10164000F94F30813E3F7CF4FC01E55FF94F80812A
:101650008E304CF081E0820F843018F480930A06BB
:1016600002C010920A0680910A0690E0FC01E55F34
:10167000F94FD083FC01E15FF94FD0830E94312FF5
:10168000E0910A06F0E0E15EF94F60E071E00E944F
:10169000CB2E8083DF91CF911F910F910895CF932F
:1016A000C82FE0910706F0E0E453FE4F449180918B
:1016B0002E09829586958695837090912F09292F02
:1016C000220F220F60913009822B92959695969564
:1016D00093700E947A083091080120910706C39FF9
:1016E000200D1124209307062C1730F08C2F90E04A
:1016F000820F911DCF971CF0319530930801CF9147
:101700000895DF92EF92FF920F931F93CF93DF9391
:101710002FE1E22E26E0F22E08E419E0C0E5D6E043
:1017200080E0DC2E90E3D90EE881EE2369F0F0E052
:10173000E453FE4F6491A801F70180810E94710774
:1017400088818150888381E02196FFEFEF1AFF0A9C
:101750000D5F1F4FDC12E8CF93E1E92E96E0F92EE2
:1017600006E319E0C9E1D6E0DC2EE6E0DE0EE88112
:10177000EE2369F0F0E0E453FE4F6491A801F70115
:1017800080810E94710788818150888381E0219641
:10179000FFEFEF1AFF0A0D5F1F4FDC12E8CF811138
:1017A00013C080912E098E73843071F48091FC09EE
:1017B000843051F080913105811106C080911F0164
:1017C000811102C00E946707DF91CF911F910F9195
:1017D000FF90EF90DF900C9442086F927F928F926F
:1017E000DF92EF92FF920F931F93CF93DF9380913D
:1017F0000606109206068F3F09F4C3C00E94330804
:101800008FE1E82E86E0F82E0BE016E0CFE0D6E080
:10181000DC2E84E0D80E48ED59E06FEFF70181919E
:101820007F010E94710788818E3FBCF1F3E08F0237
:10183000A001112420E030E087FD0EC0F901E40F83
:10184000F51FE85BF64F6090D8097090D909809039
:10185000DA096082718282822C5D3F4F2039310526
:1018600059F7811118C02091D8093091D9094091B8
:10187000DA0920933C0930933D0940933E092093B7
:10188000390930933A0940933B0920933609309344
:1018900037094093380981508883F80180818E3060
:1018A000C4F5F3E08F02A001112420E030E08C3079
:1018B00074F4F901E40FF51FE85BF64F6090D80966
:1018C0007090D9098090DA096082718282822C5DE1
:1018D0003F4F2039310559F78B30C1F42091D80999
:1018E0003091D9094091DA0920934509309346098E
:1018F0004093470920934209309343094093440998
:1019000020933F0930934009409341098F5FF801CC
:10191000808321960F5F1F4FDC127DCF80910A06D6
:1019200090E0FC01E15FF94F20812E3FF4F4FC01CF
:10193000E55FF94F80818E30C4F08091FC098430DE
:10194000A1F080913105811110C080911F0181119A
:101950000CC0DF91CF911F910F91FF90EF90DF901E
:101960008F907F906F900C946707DF91CF911F91BC
:101970000F91FF90EF90DF908F907F906F900C947D
:101980004208DF91CF911F910F91FF90EF90DF9070
:101990008F907F906F900895DF92EF92FF920F9358
:1019A0001F93CF93DF930E9433088091080688230A
:1019B00009F482C01092080680916C0890916D081D
:1019C000A0916E08B0916F0827E030E0D22EAC01F4
:1019D000BD01022E04C076956795579547950A94E8
:1019E000D2F7452B462B472B59F087E028130CC024
:1019F00028ED39E046EB66EB86EB0E94A70711C0A5
:101A00002150310919F749C0C901019728ED39E082
:101A10004FEF6FEF9695982F8827979587950E949F
:101A2000DA0708E419E0C0E0E12CF12CD0E06D2FDA
:101A30007C2F8D2D0E940A2C029760F08091D8098E
:101A40009091D909A091DA09F801EE0DFF1D80836C
:101A50009183A283DF5F83E0E80EF11CDC3039F76D
:101A6000CF5F0C5D1F4FC430F9F6E6E3F9E08091DB
:101A7000D8099091D909A091DA0981939193A19302
:101A800089E0E834F80799F7DF91CF911F910F9122
:101A9000FF90EF90DF900C9442080E9442088091E2
:101AA000FC09843049F0DF91CF911F910F91FF9095
:101AB000EF90DF900C946707DF91CF911F910F910A
:101AC000FF90EF90DF900895EF92FF920F931F9396
:101AD000CF93DF93209105062F5F422F50E090E0D7
:101AE000880F991F841795071CF02093050644C0A2
:101AF000109205060E94312F7C010E94312FEC01CB
:101B00000E94312F66E070E00E94CB2E8C01C7014D
:101B100064E070E00E94CB2E282FCE016CE070E0D4
:101B20000E94CB2EC82F9CE0299FC00D1124D0E02D
:101B3000FE01E05BF94F8081823058F48FE38083AF
:101B40000E94312FC15ED94F60E071E00E94CB2E20
:101B50008883E801DD27FE01E75EF94F808182304E
:101B600058F48FE380830E94312FCD5ED94F60E01F
:101B700071E00E94CB2E8883DF91CF911F910F914E
:101B8000FF90EF900C94810BEF92FF920F931F93B5
:101B9000CF93DF93909104069F5F9093040689177B
:101BA00008F07FC00E9433080E94312F6CE070E083
:101BB0000E94CB2EEC01DD27FE01E05BF94F808116
:101BC00081110DC085E080830E94312FC15ED94F05
:101BD00060E071E00E94CB2E88831092040600E53D
:101BE00016E0C0E0D0E054E0F52E65E0E62EF80106
:101BF0008081882309F446C048ED59E06FEFFE016B
:101C0000E15EF94F80810E947107F80120818F2DDC
:101C1000821B8430C0F4AE01ECE08E9F400D511D5C
:101C20001124CA01FA01EE0FFF1F8E0F9F1FFC0146
:101C3000E85BF64F8091D8099091D909A091DA0913
:101C400080839183A2838E2D821B8430C0F4AE01E9
:101C5000ECE08E9F400D511D1124CA01FA01EE0FD8
:101C6000FF1F8E0F9F1FFC01E85BF64F8091D80984
:101C70009091D909A091DA0980839183A2832150A0
:101C8000F801208321960F5F1F4FCC30D10509F05A
:101C9000AECFDF91CF911F910F91FF90EF900C94F9
:101CA0004208DF91CF911F910F91FF90EF9008951F
:101CB0006F927F929F92AF92BF92CF92DF92EF92FC
:101CC000FF920F931F93CF93DF93809103068F5F53
:101CD00080930306882309F4C2C080E9E8E4F9E0B0
:101CE000DF011D928A95E9F780910906882341F06A
:101CF00080910206882369F1815080930206AFC06B
:101D000084E08093090684E1809302060FE116E0E7
:101D1000C0E5D6E07EE0972EA12CBB24B394F6E379
:101D2000CF2EF9E0DF2EA2E1EA2EFC2EB4E0FB0E6E
:101D300099920E94312FB5010E94CB2EF801819318
:101D40008F01D601EE2D1D92EA95E9F7FC12F0CF36
:101D5000CFCF40E5A42E46E0B42E5FE1E52E56E05D
:101D6000F52EE50100E010E064E0C62ED12C9C2E9B
:101D70009A1888818F3018F01092090670C0882355
:101D800009F454C048ED59E06FEFD7018C910E94DF
:101D900071072CE08881B22FB81BBC30A0F4F80189
:101DA000EB0FF11DCF01EE0FFF1F8E0F9F1FFC01E8
:101DB000E85BF64F8091D8099091D909A091DA0992
:101DC00080839183A2832F5F2F3021F70E94312FD0
:101DD0003C010E94312F9C01C301B6010E94CB2E11
:101DE000981621F1C901B6010E94CB2E9816F1F088
:101DF000888181508883811119C0809109068430BF
:101E000099F4E6E3F9E02091D8093091D90940919D
:101E1000DA0921933193419349E0E834F40799F7C3
:101E200081508093090602C08111FACF2196045F88
:101E30001F4F5FEFE51AF50A0033110509F097CF40
:101E4000DF91CF911F910F91FF90EF90DF90CF9096
:101E5000BF90AF909F907F906F900C944208DF915D
:101E6000CF911F910F91FF90EF90DF90CF90BF9097
:101E7000AF909F907F906F9008952F923F924F92D6
:101E80005F926F927F928F929F92AF92BF92CF920A
:101E9000DF92EF92FF920F931F93CF93DF93CDB713
:101EA000DEB72A970FB6F894DEBF0FBECDBF809184
:101EB00001068F5F80930106882309F413C1809186
:101EC00009068823C9F10E94312F04E010E0B8010F
:101ED0000E94CB2E4C010E94312FB8010E94CB2EC4
:101EE0005C010E94312FB8010E94CB2E6C010E9430
:101EF000312FB8010E94CB2E0BE016E02FE036E028
:101F00003A872987612C712C412C512CE12CF12C22
:101F1000212CE3E03E2EF401FF27FA83E9839501AB
:101F200033273C832B83FC01FF27FE83ED8396013F
:101F3000332738872F8315C084E0809309061092D9
:101F40000F068BE080930B061092100680930C0610
:101F50001092110680930D061092120680930E06C1
:101F6000B2CF89859A858F5096406C01E985FA85B4
:101F7000A080F801B080BA14C4F480E090E093012E
:101F80002D5F3F4FF901E80FF91FE85BF64F108214
:101F90001182128203968E319105A1F7E985FA85A7
:101FA00010822BE0F80120836DC020912E0922952C
:101FB00026952695237030912F09432F440F440F07
:101FC000842F822B932F9295969596959370840DDE
:101FD000951DB1010E94CB2E4C0189819A81C816B2
:101FE000D90621F1EF81F885CE16DF06F9F0A7FCBE
:101FF0001DC097012A0D311DA7FC3A95C901880F14
:10200000991F280F391F285B364F4FEF6091300919
:10201000C4010E94DA0781E08A0DE985FA85808390
:102020008F3024F0109209060E9433082B813C81E6
:10203000C216D30639F18D819E81C816D90611F1D9
:102040001B1404F5C401845D9E4F97012B0D311DB7
:10205000B7FC3A95A901440F551F240F351F285B83
:10206000364FB1010E94B72E4FEF609130090E94A8
:10207000DA07BA94F801B082B11004C010920906D0
:102080000E94330829853A852F5F3F4F3A87298779
:102090000F5F1F4F3CE0E30EF11C80E8480E511C1F
:1020A00094E2690E711CE0E96E16710409F059CFD3
:1020B0002A960FB6F894DEBF0FBECDBFDF91CF9149
:1020C0001F910F91FF90EF90DF90CF90BF90AF9056
:1020D0009F908F907F906F905F904F903F902F9048
:1020E0000C9442082A960FB6F894DEBF0FBECDBFFF
:1020F000DF91CF911F910F91FF90EF90DF90CF90E4
:10210000BF90AF909F908F907F906F905F904F9017
:102110003F902F900895CF93C82FEEE2F9E04381CE
:1021200062818091FF05909100060E947A082091BB
:10213000FF0530910006C90143E0C49F800D911D49
:10214000112460E073E00E94B72E90930006809304
:10215000FF05CF9108956F927F928F92BF92CF9299
:10216000DF92EF92FF920F931F93CF93DF93D82FBD
:10217000C82FC69578E4E72E79E0F72E00E010E04E
:10218000B12CC12CE3E0DE2E8091FD059091FE057F
:10219000800F911FB6010E94B72E28ED39E04091C3
:1021A0003109609130090E94DA0780E090E0F70180
:1021B000E80FF91F2091D8093091D9094091DA0927
:1021C00020833183428384968039910581F7BB2037
:1021D00071F08BE0B81669F0B394005D1F4F83E097
:1021E000E80EF11C003482E0180771F621C090E07F
:1021F00001C093E0492F50E04E5F5F4F292F092E19
:10220000000C330B421753073CF3F901EE0FFF1F8D
:102210002E0F3F1FF901EA5CF64F6090D8097090CD
:10222000D9098090DA096082718282829F5FE6CF4D
:102230000E9442082091FD053091FE054C2F50E090
:10224000D0FF09C0CA0144E0880F991F4A95E1F701
:10225000820F931F09C0C9019D5F24E0440F551FE1
:102260002A95E1F7841B950B60E073E00E94B72E7E
:102270009093FE058093FD05DF91CF911F910F9103
:10228000FF90EF90DF90CF90BF908F907F906F90F6
:102290000895CF92DF92EF92FF920F931F93CF9307
:1022A000DF939091FC059F5F282F2695291758F002
:1022B0009093FC05DF91CF911F910F91FF90EF90CC
:1022C000DF90CF900895C82F1092FC050E9433082C
:1022D000C0FF03C0FF24FA9402C0FF24F39456E029
:1022E000D52EE12C00E310E0C0E0D3E0C090070160
:1022F00097013203C00111248C0D911DC7FC9A95E2
:10230000C096B8010E94CB2E9C013327C901880FCB
:10231000991F280F391F285B364F80912E0982950F
:1023200086958695837090912F09692F660F660FA9
:10233000462F482B592F5295569556955370CA01E2
:1023400062E3E69E800D911D1124BE010E94CB2EFA
:1023500040913109609130090E94DA07E394DA94E0
:10236000D110C4CF8C2D8F0D81331CF0109207013A
:1023700004C087FD80E380930701DF91CF911F9117
:102380000F91FF90EF90DF90CF900C944208CF9286
:10239000DF92EF929091FB059F5F891718F0909361
:1023A000FB057FC01092FB050E94330840E050E01F
:1023B00090E0809106019A01280F311D87FD3A9522
:1023C0002C30310508F03FC0840F93E0899FB001A5
:1023D000112420E030E0F901E60FF71FE85BF64F2B
:1023E000C090D809D090D909E090DA09C082D18292
:1023F000E2822C5D3F4F2039310569F7882321F0B7
:102400008B3021F091E01FC080E001C083E0682F95
:1024100070E06E5F7F4F282F30E06217730794F3F0
:10242000F901EE0FFF1F2E0F3F1FF901EA5CF64F77
:10243000C090D809D090D909E090DA09C082D18241
:10244000E2828F5FE8CF4F5F5F4F4630510509F062
:10245000B0CF91110E944208909105018091060130
:10246000890F809306018B5F8131D8F0919590930D
:1024700005018091F9059091FA05889660E073E076
:102480000E94B72E9093FA058093F90528ED39E064
:102490004091310960913009EF90DF90CF900C941A
:1024A000DA07EF90DF90CF90089580912E0980FF9A
:1024B0002DC02F9B2BC086958F71E82FF0E03297AF
:1024C000E731F10548F5E958FF4F0C94DF2E0C94E5
:1024D000810B0C94ED0B0C94CC0C84500C94640D7B
:1024E00086500C94C40D0C94580E0C943D0F8950DA
:1024F0000C944F0B8B500C948B108D500C94AB1094
:1025000083510C94491187510C94C7118091310566
:10251000811102C00C94670708950C94670710920C
:10252000FB080E943C090C94A404CF93DF9300D0D5
:1025300000D01F92CDB7DEB7662359F0642F852FE8
:102540000F900F900F900F900F90DF91CF910C9400
:10255000C20A0F900F900F900F900F90DF91CF91C4
:1025600008952F9B16C08091F7059091F8050E9461
:10257000742B899770F00E94682B9093F8058093D4
:10258000F7058091B607811102C00E9455120C9484
:102590000C0608958091F5059091F6050E94742B24
:1025A0008739910508F46BC00E94682B9093F6055B
:1025B0008093F5058091F4058F5F8093F4059091E9
:1025C000B607992351F1843008F459C01092F405EC
:1025D0008091FC098430E9F00E9433080E9442088F
:1025E0008091F104882311F05C9A01C0299A20E0BF
:1025F00040E060E880E30E94720585B1805885B9AB
:102600008091F10481113BC09BB180E189278BB996
:1026100008951092B6070C948F1280911F018823A1
:1026200071F12F9A8091F104811101C05C9A80911F
:10263000F405813031F420E040E060E080E30E9466
:1026400072058091F405833069F48091BA07811195
:1026500003C040E020E802C040E820E060E080E302
:102660000E9472059091BA078091F405911105C0FE
:10267000853018F01092F40508958B30D8F708953E
:102680002091810680918206821759F030E0F9018D
:10269000ED57F94F80812F5F3F4F2093810690E0E7
:1026A00008958FEF9FEF08959091C80095FFFCCF9C
:1026B0008093CE0008951F920F920FB60F921124AF
:1026C0002F933F934F938F939F93EF93FF9380911B
:1026D000820690E09C012F5F3F4F40918106421798
:1026E00041F03091CE00FC01ED57F94F308320933B
:1026F0008206FF91EF919F918F914F913F912F9182
:102700000F900FBE0F901F90189580919D07089510
:1027100008950FB6F894A895809160008861809321
:102720006000109260000FBE08950E9489139EE021
:1027300088E10FB6F894A895809360000FBE90933F
:1027400060000895EF92FF920F931F93CF93082F8D
:102750000E94682B7C01C0E010E0C7010E94742B2E
:1027600080179107F0F40E9440139C012F3F8FEFD8
:102770003807A9F02D3099F04C2F50E02A3051F451
:10278000C23030F0FA01EE57F84F80818F3449F0B3
:102790002FE530E0FA01EC57F84F2083CF5FC731C7
:1027A000E0F2EC2FF0E0EC57F84F108284E897E06D
:1027B000CF911F910F91FF90EF900895CF93DF93EA
:1027C000EC018991882319F00E945413FACFDF910C
:1027D000CF9108950E94DE1384E60C94A2139C010D
:1027E0002F5631092230310528F02A57310922307D
:1027F000310588F42091A0073091A107232B31F4F3
:1028000029E732E03093A1072093A00790939F0718
:1028100080939E0704C01092A1071092A0072091F8
:10282000A207211124C09F938F9383E491E09F938B
:102830008F938BED99E09F938F930E944E2F8BED9A
:1028400099E00E94EA1342E050E061E272E00E94E7
:10285000412F0F900F900F900F900F900F90892B9A
:1028600019F41092A207089581E08093A2070895B9
:10287000CF93DF93EC018091A207811141C08C813D
:10288000282F082E000C330B3F938F938B81282F1A
:10289000082E000C330B3F938F938A81282F082E2C
:1028A000000C330B3F938F938981282F082E000C47
:1028B000330B3F938F938BE591E09F938F938BED39
:1028C00099E09F938F930E944E2F8BED99E00E9489
:1028D000EA1342E050E061E272E00E94412F2DB71E
:1028E0003EB7245F3F4F0FB6F8943EBF0FBE2DBFDB
:1028F000892B19F41092A20703C081E08093A207EC
:102900008091A20781112BC0888190919C07891723
:1029100031F180939C071F928F938BE791E09F93F7
:102920008F9389EE99E09F938F930E944E2F8BEDAA
:1029300099E00E94EA1342E050E061E272E00E94F6
:10294000412F0F900F900F900F900F900F90892BA9
:1029500019F41092A20703C081E08093A207DF91CF
:10296000CF910895CF93DF93EC0186E90E94532B1A
:10297000CE01DF91CF910C94EA13CF93DF93209196
:10298000BA07222309F45EC02091A20721115AC080
:10299000EC0186E891E00E94DE13209731F48AE989
:1029A00091E0DF91CF910C94EA138F811F928F9366
:1029B0008E811F928F938D811F928F938C811F9296
:1029C0008F938B811F928F938A811F928F9388811F
:1029D0001F928F9381EA91E09F938F938BED99E003
:1029E0009F938F930E944E2F8BED99E00E94EA13E4
:1029F00045E050E068EC71E00E94412F2DB73EB7F2
:102A00002E5E3F4F0FB6F8943EBF0FBE2DBF892BF1
:102A100021F481E08093A20702C01092A2078A816C
:102A2000988191110FC0833531F0893331F08734AB
:102A300049F482E103C080E101C081E1DF91CF91DF
:102A40000C94AB04DF91CF91089580E090E00C945A
:102A5000BD148091A0079091A1070097F1F08230FA
:102A6000910530F001979093A1078093A0070895F6
:102A7000209183072F5F2093830780919E07909179
:102A80009F0730E043EF50E0481B590B24173507F0
:102A900020F0109283070C94EF1308958EEC91E0D0
:102AA0000C94B214CF93C82F8FED91E00E94DE13E7
:102AB00080E38C0F0E9454138FE991E0CF910C9426
:102AC000B214CF93DF93EC018CEE91E00E94DE1301
:102AD000CE010E94DE138FE991E0DF91CF910C943B
:102AE000B2148BEF91E00E94EA13FC0180810895FB
:102AF0008AE092E00C94B214CF93DF93559A5D98DC
:102B00000E945F2BF89487E68093CC001092CD0052
:102B10008091C90080698093C9008091C900886054
:102B20008093C9008091CA008093CA008091C80038
:102B300082608093C80078948AE192E00E94B21487
:102B40008AE192E00E94EA13EC0142E050E06EE17B
:102B500072E00E94412F892B49F042E050E061E28F
:102B600072E0CE010E94412F892BD9F40E944E15AC
:102B70008AE192E00E94B21484E292E00E94B214D0
:102B80000E94D60281E00E9452158BE292E00E94E0
:102B9000B2140E9478158BE392E00E94B2140E9456
:102BA000A92BF8948CE08093CC0078948AE192E091
:102BB0000E94B21482E30E94532B8EE492E00E94A2
:102BC000EA1345E050E068EC71E00E94412F892B48
:102BD00071F48DE592E00E94B2148AE792E00E94BF
:102BE000B21486EB92E0DF91CF910C94B214DF9196
:102BF000CF910895CF932F9B04C09091C30791115B
:102C00009EC0C82F8BEB92E00E94EA13FC01418129
:102C100080ED840F8A3020F081E08093C10738C0B6
:102C200082818A33A8F5608170E06053710994E66F
:102C3000969FF001979FF00D112450E040535109E9
:102C40009AE0949F9001959F300D11242E0F3F1F05
:102C5000280F311D83E0220F331F8A95E1F72A5494
:102C6000324030931E0120931D012C358DE0380732
:102C700010F482E005C0283E8DE0380720F481E0A2
:102C80008093B60705C021313E4010F01092B60780
:102C9000C23009F054C080911D0190911E0183370C
:102CA0002EE0920741F1833D2FE09207F0F48F363A
:102CB0002FE09207F0F58D332FE09207E0F58F3D7E
:102CC0002DE0920768F08C5A9D4062E370E00E940C
:102CD000B72EC62FCC0F8C2F880F880FC80F0CC0B3
:102CE0008C359D4050F5C1E007C0CAE5853590415F
:102CF00018F0C4E601C0CCE2C0931C0187EC92E05E
:102D00000E94DE131F92CF9387E791E09F938F93EA
:102D10008BED99E09F938F930E944E2F0F900F9011
:102D20000F900F900F900F908BED99E0CF910C9436
:102D3000EA13C0E5E1CFC6E4DFCFC5E0DDCFCF9138
:102D4000089582E00C94FA150895CF93DF93809153
:102D5000C207811122C00E945B1F8151914079F00E
:102D60000E94762180912B01826080932B0181E16A
:102D700091E00E94561F809130058D7F24C0809184
:102D8000BB0781112DC08091FC09843049F581E099
:102D90008093C2078093BB0723C00E945B1F8152B0
:102DA0009140B1F081E08093BB070E947621809131
:102DB0002B018D7F80932B0181E291E00E94561FB1
:102DC000809130058260809330050E94E70408C03E
:102DD0008091FC09843021F01092C2071092BB0749
:102DE00080912001882309F45BC15D9951C18091D4
:102DF000A2078823A1F08AE192E00E94EA1342E050
:102E000050E061E272E00E94412F892B29F4109278
:102E1000A2070E94251503C081E08093C10780911D
:102E2000C1078823B9F084E60E94A213EC0142E0B6
:102E300050E061E272E00E94412F892B59F045E099
:102E400050E068EC71E0CE010E94412F892B11F017
:102E50001092C10780911B01823039F40E94FA154B
:102E60000E94A41683E080931B018091A40788230D
:102E700031F10E947115813311F586ED92E00E94C7
:102E8000EA13FC0122812A33D1F441E150E065EAE2
:102E900077E00E94412F892B31F01092A40781E046
:102EA0008093BA070CC089EE92E00E94EA138091E9
:102EB000B8079091B9070F9714F01092A40780916A
:102EC000C1078111B0C08091BE079091BF070E94D9
:102ED000742B893E934008F4A6C00E94682B9093FF
:102EE000BF078093BE078091BA07811107C0109277
:102EF000A3078091A40781113FC008C08091A30758
:102F00008F5F8093A307833090F75BC00E94711599
:102F1000813351F48091BA07811118C081E0809308
:102F2000BA071092C00712C0803369F48091BA07C3
:102F3000882319F01092BA0709C08091C0078F5FEB
:102F40008093C00703C081E08093C1078091C207CE
:102F5000811112C080911B01882371F08091C007FC
:102F60008A3550F08091FC09843021F05D9A84E02C
:102F700080931B011092C00780911F01882309F1E3
:102F80008091B8079091B9078436910549F4109261
:102F9000B9071092B80710921F010E94A40411C033
:102FA00001969093B9078093B807449724F48091D1
:102FB000BA07813031F484E690E09093B9078093AA
:102FC000B80780911B01823018F481E00E94FA1545
:102FD0008091BB07811127C080911F01811123C0FF
:102FE0008091BC079091BD0701969093BD07809397
:102FF000BC0720911B01213039F40F9728F00E9463
:10300000251582E080931B0180911B01833059F4C8
:103010008091BC079091BD078832934220F084E0F4
:1030200080931B015D9A8091B707882379F10E94F4
:1030300089138091B7078C3011F08231B1F48BEF96
:1030400092E00E94DE138091B707823129F484E177
:1030500093E00E94EA1304C084EC92E00E94B21450
:103060001092B7070E94951311C0853179F40E9420
:10307000781580E00E94521581E00E94521586EB7F
:1030800092E00E94B2148CE08093B7070E94291549
:1030900080911B01823020F4DF91CF910C94CA12F1
:1030A000DF91CF910895CF93DF93C82F0E94F12A2B
:1030B000D82F0E947621C53149F198F4CC3031F1F6
:1030C00018F4C530C1F157C0C23101F1C33109F064
:1030D00052C090911B0181E0892780931B0160E021
:1030E0003BC0C93151F168F4C63199F0C83109F0DB
:1030F00042C09091C2078091200189278093C20726
:1031000038C0CA3179F0C03C51F135C0C093B7071F
:1031100030C090911F0181E0892780931F010E9498
:10312000A40427C0D0FD02C061E001C06DEB80E2C5
:1031300090E00E9403320E94A92B80911C0160E064
:1031400090E00E943C25D232A1F48DE290E00E94F2
:10315000302560E08091BA070E94BF210AC08091AB
:10316000BB07811106C05D9A8AE080931B01109213
:10317000BA0781E001C080E0DF91CF91089590E02F
:103180008E309105A8F5FC01E257FF4F0C94DF2E1D
:1031900088E12CC083E12AC082E128C08CE026C0EF
:1031A00085E124C08091BA07882311F181E08093E2
:1031B000A40780931F011092B9071092B8071092CC
:1031C000BA0786ED92E00E94EA13FC0182818A33FD
:1031D00079F491E1A5EAB7E001900D929A95E1F7B3
:1031E000089589E103C080EC01C08AE10C94531872
:1031F0000895CF9390E080E80FB6F8948093610033
:10320000909361000FBE0E94CC020E94011D789431
:1032100080E290E00E94EF318D3B11F4109220018A
:10322000CFEF8091FC09843059F080912001811109
:1032300002C088E001C084E00E94532BC15089F78E
:103240008091FC09843019F481E08093C207809159
:103250002001882321F00E947C150E94A1160E9463
:10326000B61F81E08093C3070E949513C1E080914F
:103270001B01823010F10E94D8030E94E32B0E94B0
:10328000E7038823D1F00E94EB021092BD07109251
:10329000BC070E9495130E94082C5D98C0931B01E7
:1032A0000CC08091FC098430A1F00E94D8030E94D8
:1032B000E32B0E94E703811105C080912001882340
:1032C00081F307C08091FC098530B9F70E947E1B0D
:1032D000F4CF80911B01843050F6A895823010F411
:1032E0000E94BC1F0E94A516C2CF8091D5070895E9
:1032F0008FEF9091E800815095FD06C09AE69A956F
:10330000F1F700C08111F5CF8091E80085FB882797
:1033100080F991E089270895CF93DF9300D01F9221
:10332000CDB7DEB72091FC092430B9F423E029831E
:103330009B838A832093E9000E94781981110DC034
:1033400040E050E063E070E0CE0101960E94931BE4
:103350008091E8008E778093E8000F900F900F9097
:10336000DF91CF910895CF93DF9300D01F92CDB717
:10337000DEB72091FC092430C1F422E029839B832D
:103380008A8383E08093E9000E94781981110DC03F
:1033900040E050E063E070E0CE0101960E94931B94
:1033A0008091E8008E778093E8000F900F900F9047
:1033B000DF91CF910895CF93DF932091FC092430C2
:1033C000A1F4EC0182E08093E9000E947819811158
:1033D0000CC040E050E065E070E0CE010E94931B1D
:1033E0008091E8008E778093E800DF91CF91089577
:1033F000CF93DF93EC019091FC099430D1F580914B
:103400002B018823D9F08091DE078823B9F09093AF
:10341000E9008FEF9091E800815095FD06C095E19D
:103420009A95F1F700008111F5CF8091E80085FFB2
:1034300020C040E050E060E170E00BC081E080938C
:10344000E9000E947819811114C040E050E068E062
:1034500070E0CE010E94931B8091E8008E778093EC
:10346000E80080E1FE01A5ECB7E001900D928A959D
:10347000E1F7DF91CF9108958091FB09811109C097
:103480000E94A61C0E94011D8091E200846080932E
:10349000E20008951092FB0908950895089542E00E
:1034A00061EC81E00E94411C42E061EC82E00E94FC
:1034B000411C42E061EC83E00E94411C42E161EC6E
:1034C00084E00C94411C8091FE09833009F455C0BE
:1034D00030F4813071F0823009F48EC008958A3062
:1034E00009F47AC08B3009F460C0893009F09CC0BF
:1034F00020C08091FD09813A09F096C08091E800D2
:10350000877F8093E8008091010A9091020A892BBD
:1035100021F460E185EC97E003C060E080E090E09A
:1035200070E00E94DE1B8091E8008B778093E800BA
:1035300008958091FD09813209F076C08091010AD9
:103540009091020A009719F0039709F06DC08091DD
:10355000E800877F8093E8008091E80082FD05C045
:103560008091FC098111F8CF5FC08091F1008093B8
:10357000D5078091E8008B7753C08091FD09813A8F
:1035800009F052C08091010A9091020A892B09F03A
:103590004BC08091E800877F8093E8008091E8002D
:1035A00080FFFCCF80912B0136C08091FD098132D4
:1035B000D9F58091010A9091020A892BA9F5809191
:1035C000E800877F8093E8000E94551C8091FF09E6
:1035D00080932B010C9476218091FD09813221F595
:1035E0008091E800877F8093E8000E94551C8091BD
:1035F000000A8093D60708958091FD09813AA1F4CD
:103600008091E800877F8093E8008091E80080FF48
:10361000FCCF8091D6078093F1008091E8008E77EF
:103620008093E8000C94551C08958091D5078093F1
:10363000C4071092D50780E00E94B8040E94CE20F3
:103640000C9476210C94151B0E94082C8091C407C1
:103650008093D50708950C94241B292F33272330FA
:103660003105C1F05CF42130310579F022303105AB
:10367000E9F58DE690E022E733E03CC021323105E8
:10368000C1F02232310511F131C082E190E02FED1D
:1036900033E030C099278330910540F5FC01EE0FEF
:1036A000FF1FE25DFC4F20813181FC01E55DFC4F95
:1036B0001AC06430D8F4E62FF0E0EE0FFF1FED5D86
:1036C000FC4F2081318189E090E014C0643070F4B7
:1036D00070E0FB01EE0FFF1FE55EFC4F20813181A2
:1036E000FB01E95EFC4F808190E004C080E090E047
:1036F00020E030E0FA0131832083089519BC82E094
:1037000089BD09B400FEFDCF8091D8008F7D8093E4
:10371000D8008091E00082608093E0008091E0001A
:1037200081FDFCCF0895CF92DF92EF92FF920F932D
:103730001F93CF93DF93EC018B016A010E94741CED
:10374000811133C0C114D10439F0F6018081918117
:10375000081B190BC80FD91FE12CF12C01151105FD
:1037600019F18091E80085FD16C08091E8008E7700
:103770008093E800C114D10449F0F6018081918161
:10378000E80EF91EF182E08285E00FC00E94741CF1
:10379000882321F30AC089918093F1000150110917
:1037A000FFEFEF1AFF0ADACF80E0DF91CF911F9190
:1037B0000F91FF90EF90DF90CF9008952091030A32
:1037C0003091040A2617370748F06115710539F45E
:1037D0002091E8002E772093E80001C0B90140E075
:1037E00061157105A9F12091FC09222309F443C058
:1037F000253009F442C02091E80023FD40C020910B
:10380000E80022FD32C02091E80020FFE9CF40917E
:10381000F3002091F20030E0342BFC01CF01611560
:10382000710559F02830310540F481918093F10001
:10383000615071092F5F3F4FF1CF41E028303105D2
:1038400009F040E02091E8002E772093E800C8CFEF
:103850004111C9CF0AC08091FC09882361F08530ED
:1038600061F08091E80083FD0AC08091E80082FF4A
:10387000F2CF80E0089582E0089583E0089581E02A
:1038800008958F708093E900EBEEF0E08081816015
:103890008083EDEEF0E010826093EC004083809135
:1038A000EE00881F8827881F08958091FD0987FFF3
:1038B00011C08091E80082FD05C08091FC09811152
:1038C000F8CF11C08091E8008B770BC08091FC0984
:1038D000882349F08091E80080FFF8CF8091E800CC
:1038E0008E778093E80008952091E4003091E50000
:1038F00095E64091EC00842F817040FF22C08091BA
:10390000E80080FD1CC08091FC09882391F085307F
:1039100091F08091EB0085FD10C04091E400509142
:10392000E5004217530729F39A01915011F784E0FB
:10393000089582E0089583E0089581E0089580E08D
:1039400008954091E80042FFDECF08950E94121DC5
:103950000E941A1DE0EEF0E0808181608083E8ED36
:10396000F0E080818F77808319BCA7EDB0E08C9167
:103970008E7F8C9380818F7E80831092FB090895C7
:103980000F931F93CF93DF930E94121D0E941A1D65
:10399000C8EDD0E088818F778883888180688883AC
:1039A00088818F7D888319BC1092FC091092F909D7
:1039B0001092FA0900EE10E0F80180818B7F80837D
:1039C00088818160888342E060E080E00E94411C41
:1039D000E1EEF0E080818E7F8083E2EEF0E0808196
:1039E00081608083808188608083F80180818E7F00
:1039F0008083888180618883DF91CF911F910F91AF
:103A00000895E8EDF0E080818F7E8083E7EDF0E0BF
:103A100080818160808384E082BF81E08093FB09A4
:103A20000C94C01CE8EDF0E080818E7F80831092C2
:103A3000E20008951092DA001092E10008951F92BA
:103A40000F920FB60F9211242F933F934F935F93D2
:103A50006F937F938F939F93AF93BF93EF93FF9356
:103A60008091E10082FF0BC08091E20082FF07C0DD
:103A70008091E1008B7F8093E1000E944E1A80913B
:103A8000DA0080FF26C08091D80080FF22C080919C
:103A9000C307882329F08091200181110E94A92B5E
:103AA0008091DA008E7F8093DA008091D90019BC72
:103AB00080FF0BC082E089BD09B400FEFDCF81E02C
:103AC0008093FC090E943C1A04C01092FC090E94D9
:103AD0004A1A8091E10080FF19C08091E20080FFC6
:103AE00015C08091E2008E7F8093E2008091E20019
:103AF00080618093E2008091D80080628093D8003A
:103B000019BC85E08093FC090E94221B8091E10092
:103B100084FF34C08091E20084FF30C08091C307ED
:103B200081110E94A92B19BC82E089BD09B400FE55
:103B3000FDCF8091D8008F7D8093D8008091E100E7
:103B40008F7E8093E1008091E2008F7E8093E2007F
:103B50008091E20081608093E2008091F9098823DE
:103B600011F084E007C08091E30087FD02C081E08E
:103B700001C083E08093FC090E942B1B8091E1002F
:103B800083FF29C08091E20083FF25C08091E1007E
:103B9000877F8093E10082E08093FC091092F9090D
:103BA0008091E1008E7F8093E1008091E2008E7F22
:103BB0008093E2008091E20080618093E20042E025
:103BC00060E080E00E94411C8091F000886080935A
:103BD000F0000E944D1AFF91EF91BF91AF919F911C
:103BE0008F917F916F915F914F913F912F910F90A6
:103BF0000FBE0F901F9018951F920F920FB60F9245
:103C000011242F933F934F935F936F937F938F93E1
:103C10009F93AF93BF93CF93DF93EF93FF93C091A5
:103C2000E900CF708091EC00D82FD17080FDD0E8F2
:103C30001092E9008091F000877F8093F0007894E3
:103C40000E94401E1092E9008091F00088608093ED
:103C5000F000CD2BCF70C093E900FF91EF91DF9181
:103C6000CF91BF91AF919F918F917F916F915F9114
:103C70004F913F912F910F900FBE0F901F9018956D
:103C80001F93CF93DF9300D0CDB7DEB7EDEFF9E010
:103C900088E08E0F9091F10091938E13FBCF0E94DC
:103CA000631A8091E80083FFEDC08091FD09909137
:103CB000FE09492F50E04A30510508F0E3C0FA01EF
:103CC000E456FF4F0C94DF2E803881F0823809F0E3
:103CD000D9C08091010A8F708093E9008091EB0038
:103CE00085FB882780F91092E90007C08091FA09C6
:103CF000882311F082E001C080E09091E800977F76
:103D00009093E8008093F1001092F10095C0282F65
:103D10002D7F09F0B7C0882319F0823061F0B2C05E
:103D20008091FF09813009F0ADC0933009F080E047
:103D30008093FA092BC08091FF09811127C08091DF
:103D4000010A8F7009F49EC08093E9002091EB0076
:103D500020FF1CC0933021F48091EB00806214C0DE
:103D60009091EB0090619093EB0021E030E0A9018D
:103D700002C0440F551F8A95E2F74093EA00109263
:103D8000EA008091EB0088608093EB001092E900DC
:103D90008091E800877F53C0811174C01091FF09A2
:103DA0001F778091E3008078812B8093E3008091DE
:103DB000E800877F8093E8000E94551C8091E8000E
:103DC00080FFFCCF8091E30080688093E3001111B5
:103DD00002C082E001C083E08093FC0953C0805898
:103DE000823008F04FC0AE014F5F5F4F6091010A13
:103DF0008091FF099091000A0E942D1BBC01892B24
:103E000009F440C09091E800977F9093E800898181
:103E10009A810E94DE1B8091E8008B778093E800F6
:103E200031C0803879F58091E800877F8093E80081
:103E30008091F9098093F1008091E8008E7780935A
:103E4000E8000E94551C1EC081111CC09091FF0902
:103E50009230C0F48091E800877F8093E8009093CF
:103E6000F9090E94551C8091F909811106C08091C1
:103E7000E30087FD02C081E001C084E08093FC097B
:103E80000E944F1A8091E80083FF0AC08091E800E9
:103E9000877F8093E8008091EB0080628093EB0045
:103EA0000F900F90DF91CF911F9108959093DC07B1
:103EB0008093DB0708958091DB079091DC070895DC
:103EC000E091DB07F091DC07309721F00190F08161
:103ED000E02D099480E00895E091DB07F091DC0784
:103EE000309761F02091DD07222321F0DC012C9135
:103EF00027772C930280F381E02D09940895E091B7
:103F0000DB07F091DC07309721F00480F581E02D8C
:103F1000099408952091D9073091DA078217930701
:103F200071F09093DA078093D907E091DB07F09165
:103F3000DC07309721F00680F781E02D0994089581
:103F40002091D7073091D8078217930771F090938B
:103F5000D8078093D707E091DB07F091DC07309713
:103F600021F00084F185E02D099408950E945F2BD3
:103F70000E94FA020C9461048F929F92AF92BF92BA
:103F8000CF92DF92EF92FF920F931F93CF93DF9325
:103F900000D000D01F92CDB7DEB70E9440030CEFD7
:103FA00017E0F12C8F2D0E94E1024C01F801A08056
:103FB000B180A826B926A114B10439F4F3940E5F98
:103FC0001F4FF4E0FF12EECF39C08091830881FDCE
:103FD0000E94EA02E12CCC24C394D12CC6018A2190
:103FE0009B21892B21F1E982FA8221E0C6018821F7
:103FF0009921892B09F420E02B830E94682B816092
:10400000782F9D838C8349815A816B818D810E9499
:10401000CF2049815A816B817C818D810E949512CC
:10402000F801808191818C259D2591838083E39483
:10403000CC0CDD1CFCE0EF12D1CFC0CF8FEF898319
:104040008A831B820E94682B8160782F9D838C83DA
:1040500049815A816B818D810E94CF200E94B112CB
:104060000E941D2D8091FB07882379F08091F9072C
:104070009091FA070E94742B8C34910530F01092C5
:10408000FB0785EE97E00E94920A1091E4070E94D8
:10409000601F181709F46EC00E94601F8093E40728
:1040A00084FF55C08091F9079091FA070E94742B04
:1040B0008C34910520F01092E3071092050A40918C
:1040C000E30750E0FA01E152F84F8091E407837072
:1040D00023E030E0241B350B220F331F01C0880F73
:1040E0002A95EAF780830E94682B9093FA078093C1
:1040F000F9078091E3078F5F8093E3078430D0F165
:104100002091050AE22FF0E0EB51F84F9091E00783
:104110008091DF07892B9091E107892B9091E2072D
:10412000892B80838091E507803431F4223020F49C
:1041300087E490E00E9430251092E3078091050A01
:104140008F5F8093050A81E08093FB0713C00F9077
:104150000F900F900F900F90DF91CF911F910F91C3
:10416000FF90EF90DF90CF90BF90AF909F908F9097
:104170000C94512B0F900F900F900F900F90DF9198
:10418000CF911F910F91FF90EF90DF90CF90BF9054
:10419000AF909F908F9008950C94B8040895CF939A
:1041A000DF93CDB7DEB72B970FB6F894DEBF0FBE07
:1041B000CDBF4F83588769877A878B87DE01119639
:1041C00086E0FD0111928A95E9F785E0FE013796B8
:1041D00001900D928A95E1F749815A816B817C812A
:1041E0008D819E810E94CE272B960FB6F894DEBF5C
:1041F0000FBECDBFDF91CF910895CF93882341F1BA
:10420000803B29F48CE092E0CF910C947228C82F67
:104210008CEF8C0F813A20F080E58C0F8E3248F4C1
:104220008C2F0E94552E811113C08C2F0E946E2A54
:104230000CC080E28C0F883058F4C77081E001C058
:10424000880FCA95EAF70E94F42ACF910C942B2B81
:10425000CF910895882349F19CEF980F913A20F06F
:1042600090E5980F9E3218F40E94B02A0DC090E29B
:10427000980F983058F4877091E001C0990F8A9593
:10428000EAF7892F0E94FA2A0C942B2B9BE5980FB2
:10429000933020F480E090E00C948A1F885A873194
:1042A00020F480E090E00C94A01F0895882321F072
:1042B0000E94F42A0C942B2B0895882321F00E944D
:1042C000FA2A0C942B2B08950E94112B0E94E62AA7
:1042D0000E942B2B0E94162E0E94122D80E090E04F
:1042E0000E948A1F80E090E00C94A01F0E94012B86
:1042F0000C946421CF93DF9300D000D01F92CDB7F0
:10430000DEB70E94012A292F22952F7030E02C3031
:1043100031054CF42A303105C4F4225031092230E1
:10432000310540F023C02C303105D1F02F3031055C
:10433000B9F01CC0853A28F48430B0F4823028F4F7
:1043400013C090E2980F983078F0883E30F4803EA9
:1043500058F48450813A50F407C0803F39F404C0C7
:1043600093FB882780F903C081E001C080E00F90B3
:104370000F900F900F900F90DF91CF9108958111C2
:1043800001C08AE0662311F0885A01C0835E90E084
:104390000C943025CF92DF92EF92FF920F931F93F0
:1043A000CF93DF93CDB7DEB727970FB6F894DEBF74
:1043B0000FBECDBF25E0FC01DE01119601900D92EC
:1043C0002A95E1F7FC010281438154813581232F35
:1043D00022952F7069817A814115510509F413C323
:1043E0007F3F19F46F3F09F40EC36C0133FD0DC01C
:1043F000742F5D834C8349815A81602F8D812F8377
:104400000E94012A182F2F8102C019819A812F83BF
:104410009E830E94002A0E94F0289E81E92FE29547
:10442000EF70F0E0EA55FF4F2F810C94DF2E892FBB
:10443000807F9F70F92E882319F0F29490EFF92273
:10444000002349F0FF2009F466C28F2D0E94042B3F
:104450000E942B2B60C2812F0E942A21FF2009F489
:10446000D2C28F2D0E940A2B27960FB6F894DEBF7A
:104470000FBECDBFDF91CF911F910F91FF90EF90B5
:10448000DF90CF900C942B2B892F807F9F70F92E7B
:10449000803219F0F29480EFF822112319F01130D4
:1044A00001F129C00023A9F08F2D222349F12130E9
:1044B00039F527960FB6F894DEBF0FBECDBFDF915A
:1044C000CF911F910F91FF90EF90DF90CF900C94C0
:1044D000142B222319F0213009F495C20E94172BC6
:1044E0002CC00023E9F0233008F08DC20E94F12A8D
:1044F0008F2129F022C00023F1F0211115C08F2D4A
:1045000027960FB6F894DEBF0FBECDBFDF91CF91D7
:104510001F910F91FF90EF90DF90CF900C94562158
:10452000223008F070C209C0F601858180FFF3C116
:104530008F708583E4CF211119C28F2D89C1292F56
:1045400026952695237030E02115310521F0213084
:104550003105C1F058C2002319F0812F937002C0B9
:1045600080E090E027960FB6F894DEBF0FBECDBF77
:10457000DF91CF911F910F91FF90EF90DF90CF903F
:104580000C94A01F0023D9F0212F392F337021154F
:10459000F3E03F0794F081E192E00E94722860E02E
:1045A000812F82958F700E94BF2160E0812F8F70D4
:1045B0000E94BF218FE092E002C2C90102C080E0E8
:1045C00090E027960FB6F894DEBF0FBECDBFDF9107
:1045D000CF911F910F91FF90EF90DF90CF900C94AF
:1045E0008A1F812F002381F00E944B2C0E94122DE4
:1045F000163408F008C2E12FF0E0E157F74F81E0F0
:10460000808380938E08FFC10E949B2C0E94122DF4
:10461000163408F0F8C1E12FF0E0E157F74F1082AF
:10462000F2C1892F837009F079C00111ECC1812F8B
:10463000829586958770880F880F212F2F70C22E44
:10464000D12CE12CF12C082E04C0CC0CDD1CEE1C6E
:10465000FF1C0A94D2F714FF12C04FE050E060E054
:1046600070E004C0440F551F661F771F8A95D2F76C
:104670008A019B01009510952095309503C000E0BC
:1046800010E09801969596959370492F50E0C901D6
:10469000B80142305105D1F04330510559F16C2930
:1046A0007D298E299F294130510541F127960FB66A
:1046B000F894DEBF0FBECDBFDF91CF911F910F9158
:1046C000FF90EF90DF90CF900C9415296C297D29F5
:1046D0008E299F2927960FB6F894DEBF0FBECDBF57
:1046E000DF91CF911F910F91FF90EF90DF90CF90CE
:1046F0000C942F290E941529C701B60127960FB6E1
:10470000F894DEBF0FBECDBFDF91CF911F910F9107
:10471000FF90EF90DF90CF900C94FB28002319F0CE
:10472000892F817001C08695882309F46CC1812F7F
:10473000829586958770880F880F212F2F70C22E43
:10474000D12CE12CF12C082E04C0CC0CDD1CEE1C6D
:10475000FF1C0A94D2F714FF12C04FE050E060E053
:1047600070E004C0440F551F661F771F8A95D2F76B
:104770008A019B01009510952095309503C000E0BB
:1047800010E09801969596959370492F50E0C901D5
:10479000B80142305105D1F04330510559F16C292F
:1047A0007D298E299F294130510541F127960FB669
:1047B000F894DEBF0FBECDBFDF91CF911F910F9157
:1047C000FF90EF90DF90CF900C94DC296C297D292D
:1047D0008E299F2927960FB6F894DEBF0FBECDBF56
:1047E000DF91CF911F910F91FF90EF90DF90CF90CD
:1047F0000C94EE290E94DC29C701B60127960FB65A
:10480000F894DEBF0FBECDBFDF91CF911F910F9106
:10481000FF90EF90DF90CF900C94CA29103F41F1A8
:1048200018F4103E48F46DC0123F09F441C0D8F1AD
:10483000133F09F442C065C01F70892F8F71002398
:1048400021F00E946329812F5BCE0E948429812F51
:1048500027960FB6F894DEBF0FBECDBFDF91CF9184
:104860001F910F91FF90EF90DF90CF900C945D21FE
:104870000023A9F0223008F0C6C0892F8F71279637
:104880000FB6F894DEBF0FBECDBFDF91CF911F9161
:104890000F91FF90EF90DF90CF900C94A9292330D7
:1048A00008F0B1C0EACF002329F0892F8F7146C0EC
:1048B0000023D9F3892F8F716CC0002391F0892FC9
:1048C0008F7127960FB6F894DEBF0FBECDBFDF9174
:1048D000CF911F910F91FF90EF90DF90CF900C94AC
:1048E0004E2927960FB6F894DEBF0FBECDBFDF91DD
:1048F000CF911F910F91FF90EF90DF90CF900C948C
:104900004929002359F12223B9F093FF04C0F6018D
:10491000858180FD11C0812F27960FB6F894DEBFE8
:104920000FBECDBFDF91CF911F910F91FF90EF9000
:10493000DF90CF900C94FD20892F877027960FB6BB
:10494000F894DEBF0FBECDBFDF91CF911F910F91C5
:10495000FF90EF90DF90CF900C9463292223B9F061
:1049600093FF04C0F601858180FD11C0812F279639
:104970000FB6F894DEBF0FBECDBFDF91CF911F9170
:104980000F91FF90EF90DF90CF900C942A21892F08
:10499000877027960FB6F894DEBF0FBECDBFDF91AC
:1049A000CF911F910F91FF90EF90DF90CF900C94DB
:1049B0008429492F4F70612FC6010E945A02279601
:1049C0000FB6F894DEBF0FBECDBFDF91CF911F9120
:1049D0000F91FF90EF90DF90CF900C947228492FA9
:1049E0004F70612FC60127960FB6F894DEBF0FBE39
:1049F000CDBFDF91CF911F910F91FF90EF90DF908E
:104A0000CF900C944D0127960FB6F894DEBF0FBEE1
:104A1000CDBFDF91CF911F910F91FF90EF90DF906D
:104A2000CF900895CF93DF9300D000D000D0CDB7C2
:104A3000DEB72E8128602E8389839A836B8381E081
:104A400090E09D838C83CE0101960E94CA21269618
:104A50000FB6F894DEBF0FBECDBFDF91CF910895A2
:104A6000CF93DF93EC0161E00E94122560E0CE015C
:104A7000DF91CF910C941225BF92CF92DF92EF92EB
:104A8000FF920F931F93CF93DF936C01B62EC5E077
:104A9000D0E000E117E28AE0E82EF12CC601B8016F
:104AA0000E94B72ECB01009731F0B7010E94B72EBC
:104AB0006B2D0E94BF21C801B7010E94B72E8B0148
:104AC000219761F7DF91CF911F910F91FF90EF90A8
:104AD000DF90CF90BF900895CF93DF9300D000D0A8
:104AE0001F92CDB7DEB70F900F900F900F900F90E1
:104AF000DF91CF910895CF93DF9300D000D000D005
:104B0000CDB7DEB726960FB6F894DEBF0FBECDBF89
:104B1000DF91CF9108951F93CF93DF93C091040845
:104B200016E080910508C81799F0D0E01C9FF001AD
:104B30001D9FF00D1124EA5FF74F40815181628182
:104B40007381848195810E947B252196C770E9CF6E
:104B5000DF91CF911F910895409136085091370809
:104B6000609138087091390880913A0890913B081B
:104B70000C947B25CF93DF9380913B0882958F70B7
:104B800009F051C080913808882309F44CC0809105
:104B90000408C0910508409136085091370860918B
:104BA000390870913A08D6E08C17E9F190E0611568
:104BB0007105B1F15F3F11F44F3F91F1D89FF001C2
:104BC000D99FF00D1124DF01AA5FB74F11962C91E8
:104BD0001197521325C02C91421322C012962C918A
:104BE000129721111DC013962D913C911497261BED
:104BF000370B283C3105A0F480913B088F70806111
:104C000080933B08E55FF74F80818F7080618083E0
:104C100086E398E00E94CA21DF91CF910C948B2506
:104C200001968770C1CFDF91CF910895AF92BF9267
:104C3000CF92DF92EF92FF920F931F93CF93DF9368
:104C4000CDB7DEB761970FB6F894DEBF0FBECDBF0C
:104C50008C0185E0F801DE011D9601900D928A9588
:104C6000E1F7F80140815181F280C380D4809091B6
:104C70003608209137086091390870913A0861151B
:104C8000710509F442C12F3F19F49F3F09F43DC15A
:104C900086E3A82E88E0B82EE0903808F601E61BDF
:104CA000F70BEE2009F4D8C080913B08382F307FF5
:104CB000E83CF10508F094C0311145C0251312C03D
:104CC000941310C0F1100EC08F70806180933B0868
:104CD0000E94AC25C5010E94CA2180913B08F801C1
:104CE00085832FC0C114D10419F15F3F11F44F3FE8
:104CF000F9F0BF2CF1101CC0809104082091050828
:104D000036E0821709F412C190E0389FF001399F14
:104D1000F00D1124EA5FF74F6181561306C06081E0
:104D2000461303C06281611103C001968770E9CF09
:104D3000EF2CFF2009F420C180913B088160809313
:104D40003B08E12C19C1251306C0941304C0F110CF
:104D500002C0F801A0C04D875E87FF867C2DD98AEE
:104D6000C88A6F2D89890E947A21882399F1FF20B2
:104D700089F120913B08822F82958F7090E00297F5
:104D800074F0809136089091370898878F83198640
:104D9000DB86CA862C87CE0107960E94CA2186E050
:104DA000F801A6E3B8E001900D928A95E1F70E9420
:104DB000BA250E94AC2511C0251739F14D875E87B1
:104DC000FF867C2DD98AC88A6F2D89890E947A2115
:104DD00081112AC0C8010E94CA21EE24E394CCC0EC
:104DE0003111EACF7C2DD98AC88A6F2D89890E941A
:104DF0006C2586E398E00E94CA2186E0F5011192B5
:104E00008A95E9F70E94AC259CCF9413D7CFF11077
:104E1000D5CFF8018583C8010E94CA2186E0F5013B
:104E200011928A95E9F7A8C0FF20A1F220913B08D2
:104E3000822F82958F7090E002970CF4B0CF809112
:104E40003608909137089A8389831B82DD82CC8251
:104E50002E83CE010196A1CFE83CF10508F046C0B3
:104E6000EF2CFF2009F4B6CF25132BC0941329C0D3
:104E700020913B0820FD1CC0822F82958F70C1F0CD
:104E8000F80125838F3041F08F5F982F9295907FA6
:104E9000822F8F70892B8583C8010E94CA2186E0EA
:104EA000F801A6E3B8E001900D928A95E1F72AC0D7
:104EB00086E0F801A6E3B8E001900D928A95E1F74B
:104EC0005BC04D875E87FF867C2DD98AC88A6F2D8F
:104ED00089890E947A21811162CF80913B0881608B
:104EE00080933B08C8010E94CA2146C07C2DD98A04
:104EF000C88A6F2D89890E946C2586E0F501119280
:104F00008A95E9F70E94AC2537C0FF2009F462CFEB
:104F10004D875E87FF867C2DD98AC88A6F2D898947
:104F20000E947A21882309F455CF39CF7C2DD98A64
:104F3000C88A60E089890E94012A292F22952F7052
:104F400030E0223031052CF49F7041F0811106C011
:104F50000CC0243031052CF49F7049F4805E8830F9
:104F600020F0C8010E94CA21BE2CEB2C05C0F8011C
:104F70009581907F99F7F9CF8E2D61960FB6F894B1
:104F8000DEBF0FBECDBFDF91CF911F910F91FF907C
:104F9000EF90DF90CF90BF90AF9008951F93CF9385
:104FA000DF93CDB7DEB72C970FB6F894DEBF0FBEF8
:104FB000CDBF4F83588769877A878B879C87CE01BF
:104FC00007960E941626882369F08F8198852A8586
:104FD0003B85232BF1F19F3F09F063C08F3F09F020
:104FE00060C037C086E0FE013796DE011196019061
:104FF0000D928A95E1F76F817885EA85FB85309778
:1050000041F17F3F11F46F3F21F12091050830E01D
:10501000C9010196877099274091040850E08417D0
:10502000950709F447C069837A83FD83EC8396E092
:10503000929FD001939FB00D1124AA5FB74FFE013C
:10504000319601900D929A95E1F7809305080E94A0
:105050008B2516E080910408909105088917C1F10D
:10506000189FC00111248A5F974F0E94162688233B
:1050700079F1E09104081E9FF0011124EA5FF74FD7
:105080004081518162817381848195810E947B2559
:105090008091040890E00196877099278093040816
:1050A000D9CF4F81588569857A858B859C850E94EB
:1050B0007B25CFCF0E94762110920508109204081C
:1050C000E6E3F8E086E0DF011D928A95E9F7C1CFBB
:1050D0002C960FB6F894DEBF0FBECDBFDF91CF91F7
:1050E0001F910895EF92FF921F93CF93DF939C013E
:1050F000892B09F465C0E9012196F901149119374A
:1051000009F43FC0C0F4143740F4143008F053C021
:105110008FEF810F823000F153C0143709F050C077
:105120007901F2E0EF0EF11CFE0184910E94532BF5
:10513000E7019E01E0CF133828F4113868F41038E5
:1051400001F13EC01338B9F0143F08F039C01F77A1
:10515000812F90E0926031C0FE0185919491612F82
:105160006170E901133018F42296992701C0239643
:105170000E941225DECFFE0185919491E9012396CC
:105180001CC0FE01E590F490E901239684E00E94A2
:105190005621103841F461E081E00E94BF21F0EA1D
:1051A000EF1AF6E8FF0A61E0C7010E943C2584E09F
:1051B0000E945D21BECF812F90E00E943025B9CFA3
:1051C000DF91CF911F91FF90EF90089560936C084D
:1051D00070936D0880936E0890936F080C94CB04C5
:1051E000089560932C0170932D0180932E0190936C
:1051F0002F010C94DF040F931F9300912C01109149
:105200002D0120912E0130912F01602B712B822BCB
:10521000932B60932C0170932D0180932E0190931A
:105220002F011F910F910C94DF040F931F93009196
:105230002C0110912D0120912E0130912F0160231E
:1052400071238223932360932C0170932D0180930B
:105250002E0190932F011F910F910C94DF040F9357
:105260001F9300912C0110912D0120912E0130915E
:105270002F01602771278227932760932C01709359
:105280002D0180932E0190932F011F910F910C946B
:10529000DF0460E070E0CB010C94E6280F931F93CD
:1052A00041E050E060E070E08A019B0104C0000F23
:1052B000111F221F331F8A95D2F7C901B8011F9110
:1052C0000F910C94E6280F931F9341E050E060E0AB
:1052D00070E004C0440F551F661F771F8A95D2F7F0
:1052E00080916C0890916D08A0916E08B0916F0844
:1052F0008A019B01082B192B2A2B3B2BC901B801D2
:105300001F910F910C94E6280F931F9341E050E0FA
:1053100060E070E004C0440F551F661F771F8A9538
:10532000D2F7409550956095709580916C0890915A
:105330006D08A0916E08B0916F088A019B01082347
:1053400019232A233B23C901B8011F910F910C9403
:10535000E6280F931F9341E050E060E070E004C046
:10536000440F551F661F771F8A95D2F780916C08EE
:1053700090916D08A0916E08B0916F088A019B0111
:10538000082719272A273B27C901B8011F910F9128
:105390000C94E6280F931F9300916C0810916D08F0
:1053A00020916E0830916F08602B712B822B932B0C
:1053B0001F910F910C94E6280F931F9300916C0896
:1053C00010916D0820916E0830916F086023712351
:1053D000822393231F910F910C94E6280F931F9320
:1053E00000916C0810916D0820916E0830916F0843
:1053F00060277127822793271F910F910C94E6282D
:1054000008958F929F92AF92BF92DF92EF92FF9298
:105410000F931F93CF93DF9300D000D01F92CDB78F
:10542000DEB78A016623C9F180902C0190902D018E
:10543000A0902E01B0902F0180916C0890916D0882
:10544000A0916E08B0916F08882A992AAA2ABB2ACF
:105450008FE1E82EF12CD501C4010E2C04C0B695C5
:10546000A795979587950A94D2F780FF07C0DE2C01
:10547000B8018E2D0E940A2C019729F481E0E81AC8
:10548000F10848F7D12C8CE0189FF0011124E00FAF
:10549000F11DE45CF74FD08209C08CE0189FF00149
:1054A0001124E40FF11DE45CF74FD08009831A83C7
:1054B00069817A818D2D0E940A2C0F900F900F9098
:1054C0000F900F90DF91CF911F910F91FF90EF9070
:1054D000DF90BF90AF909F908F90089590912B0197
:1054E000913021F49091DE07911109C02091300193
:1054F00030913101F90132969FEF40E01FC0982FA3
:105500009695969596959F3050F5E0913001F091E3
:105510003101E90FF11D877021E030E0A90102C0DF
:10552000440F551F8A95E2F7CA019181892B818327
:1055300008959F3F39F04F5F4E3041F0519158131D
:10554000F8CF0DC05111F7CF942FF5CF9F3F39F011
:10555000F901E90FF11D97FDFA95828308950895E9
:1055600090912B01913021F49091DE07911109C0A7
:105570002091300130913101F9013296205F3F4F87
:105580001FC0982F9695969596959F30F0F4E091D0
:105590003001F0913101E90FF11D877021E030E019
:1055A000A90102C0440F551F8A95E2F7CA018095F0
:1055B00091818923818308953196E217F30729F0B9
:1055C00090819813F9CF1082F7CF0895E0913001C0
:1055D000F091310131968FE0DF011D928A95E9F754
:1055E000089580918208089590918208892B809374
:1055F000820808958095909182088923809382087B
:10560000089510928208089590918108892B8093C3
:10561000810808958095909181088923809381085D
:10562000089510928108089580937008089510924B
:10563000700808958091300190913101FC013196FC
:105640009C01205F3F4F80E0919191118F5FE217A5
:10565000F307D1F70895E0913001F0913101809185
:1056600082088083E0913001F09131019081809136
:105670008108892B808380917008882361F0E091F4
:105680003001F09131019081892B80830E941A2B87
:1056900081111092700880913001909131010C9429
:1056A0006C1F0C94CC20882341F0EFE9FFE0319788
:1056B000F1F700C000008150F6CFA895089582E070
:1056C00084BD93E095BD9DE797BD80936E000895DE
:1056D0002FB7F8948091840890918508A09186084E
:1056E000B09187082FBF08959C014FB7F89480911F
:1056F000840890918508A0918608B09187084FBFD3
:10570000821B930B089578941F920F920FB60F92FD
:1057100011248F939F93AF93BF93809184089091AE
:105720008508A0918608B09187080196A11DB11D3A
:105730008093840890938508A0938608B093870887
:10574000BF91AF919F918F910F900FBE0F901F90BF
:10575000189580911B01823050F40E9476218FE1D0
:105760009EE40197F1F700C000000E94A61C0E9471
:105770009513FFCF1F920F920FB60F9211248F93A4
:105780009F93AF93BF9380918808813099F4809163
:10579000840890918508A0918608B091870880962A
:1057A000A11DB11D8093840890938508A09386085D
:1057B000B0938708BF91AF919F918F910F900FBECB
:1057C0000F901F9018958091FC09843001F10E9480
:1057D000891381E08093880821E488E190E00FB686
:1057E000F894A895809360000FBE209360000E94FB
:1057F0008D1283B7817F846083BF83B7816083BF4D
:105800007894889583B78E7F83BF0C94891308950D
:105810000C948F12CF93C82FCB010E942B01282FFD
:1058200030E080E1989FA0011124422B532B403897
:10583000510519F480E090E015C09770E92FF0E071
:1058400088E0C89FE00DF11D112484E0EE0FFF1FDA
:105850008A95E1F7E20FF31FEE0FFF1FE050FC48BF
:1058600085919491CF9108959091D508992329F02D
:10587000892F880F880F890F02C0843140F4662376
:1058800011F086958695811105C081E0089584E127
:105890006111F7CF0895803F08F44CC0803F11F4A8
:1058A0009FEF03C0813F21F491E09093E3083BC058
:1058B000823F11F49FEF03C0833F21F491E0909366
:1058C000E20831C0893F70F421E030E09CE0980F9D
:1058D00001C0220F9A95EAF79091E108292B2093B5
:1058E000E10821C0893F11F491E003C08A3F21F40F
:1058F0009FEF9093E40817C08B3F11F49FEF03C014
:105900008C3F21F491E09093E5080DC021E030E058
:1059100093E0980F01C0220F9A95EAF79091D5086D
:10592000292B2093D508895F843020F41092D70862
:105930001092D6080895803F08F473C0803F49F460
:105940001092DB088091E30887FF6BC01092E30898
:105950000895813F39F41092DC088091E30818160D
:10596000ACF30895823F49F41092D9088091E2087F
:1059700087FF57C01092E2080895833F39F41092D0
:10598000DA088091E2081816ACF30895893F88F48C
:10599000845F21E030E0A90102C0440F551F8A95C1
:1059A000E2F7CA0180959091E10889238093E1088C
:1059B0000895893F49F41092DF088091E408181691
:1059C00084F51092E40808958A3F39F41092E008B3
:1059D0008091E40887FF25C0F4CF8B3F49F41092F3
:1059E000DD088091E50887FF1CC01092E508089546
:1059F0008C3F39F41092DE088091E5081816ACF35C
:105A000008958D5F21E030E0A90102C0440F551FC9
:105A10008A95E2F7CA0180959091D50889238093F1
:105A2000D508089581EE98E00E947F1F0E94682BA0
:105A300090938B0880938A0808950F931F93CF93B8
:105A4000DF9380918E08882339F180918C089091A2
:105A50008D080E94742B4597F8F00FE818E0C0E01D
:105A6000D0E080E0F80191918F01992349F02097CF
:105A700019F484EF90E501C0CE010E94302581E049
:105A80002196C634D10571F780938E080E94682B49
:105A900090938D0880938C0880918A0890918B0850
:105AA0000E94742BAC019091D808923019F028E232
:105AB00030E002C025E030E04217530708F4B1C0DF
:105AC0002091E2081091E308D091E408C091E50824
:105AD000812F822B8D2B8C2B19F41092D808A1C00A
